{
  "safe": "0x8eA6C3Cca1c96967F7B164FfaA5fabede10311A9",
  "to": "0x1BEF05C7303d44e0E2FCD2A19d993eDEd4c51b5B",
  "value": "0",
  "data": "0x134008d30000000000000000000000004fda8998ec3b7d4b4a612d45feb8fb36734470f2000000000000000000000000000000000000000000000000000000000000000000000000000000000000000000000000000000000000000000000000000000a00000000000000000000000000000000000000000000000000000000000000000000000000000000000000000000000000000000000000000000000000000000000000000000000000000000000000000000000000000000000000000000004c46a7612020000000000000000000000009641d764fc13c8b624c04430c7356c1c7c8102e200000000000000000000000000000000000000000000000000000000000000000000000000000000000000000000000000000000000000000000000000000140000000000000000000000000000000000000000000000000000000000000000100000000000000000000000000000000000000000000000000000000000000000000000000000000000000000000000000000000000000000000000000000000000000000000000000000000000000000000000000000000000000000000000000000000000000000000000000000000000000000000000000000000000000000000000000000000000000000000000000000000000000000000000000000000000000000000000000000000000000000000000000000000000000000000044000000000000000000000000000000000000000000000000000000000000002c48d80ff0a000000000000000000000000000000000000000000000000000000000000002000000000000000000000000000000000000000000000000000000000000002640056e88cb4f0136fc27d95499de4be2acf47946fa10000000000000000000000000000000000000000000000000000000000000000000000000000000000000000000000000000000000000000000000000000004499a88ec4000000000000000000000000b02a15c6bd0882b35e9936a9579f35fb26e11476000000000000000000000000fd859cf6ce0e7e3b37e637edf699f2f87f78df7d0056e88cb4f0136fc27d95499de4be2acf47946fa10000000000000000000000000000000000000000000000000000000000000000000000000000000000000000000000000000000000000000000000000000004499a88ec4000000000000000000000000b3cd1a457dea9a9a6f6406c6419b1c326670a96f000000000000000000000000b5b2179c0c58ae285a02c1390dbaf28651902a900056e88cb4f0136fc27d95499de4be2acf47946fa10000000000000000000000000000000000000000000000000000000000000000000000000000000000000000000000000000000000000000000000000000004499a88ec4000000000000000000000000ff58a373c18268f483c1f5ca03cf885c0c43373a000000000000000000000000157a9f3e97c7688372617262239aa3b8fd3b61800056e88cb4f0136fc27d95499de4be2acf47946fa10000000000000000000000000000000000000000000000000000000000000000000000000000000000000000000000000000000000000000000000000000004499a88ec4000000000000000000000000b99cc53e8db7018f557606c2a5b066527bf96b26000000000000000000000000005d147a956c5d8114c630a3a23a203d48334888000000000000000000000000000000000000000000000000000000000000000000000000000000000000000000000000000000000000000000000000000000000000000000000000000000000000000000000000000000410000000000000000000000001bef05c7303d44e0e2fcd2a19d993eded4c51b5b0000000000000000000000000000000000000000000000000000000000000000010000000000000000000000000000000000000000000000000000000000000000000000000000000000000000000000000000000000000000000000",
  "operation": 0,
  "gasToken": "0x0000000000000000000000000000000000000000",
  "safeTxGas": 0,
  "baseGas": 0,
  "gasPrice": "0",
  "refundReceiver": "0x0000000000000000000000000000000000000000",
  "nonce": 13,
  "executionDate": "2025-08-28T20:09:36Z",
  "submissionDate": "2025-08-28T20:06:10.970421Z",
  "modified": "2025-08-28T20:09:38.153991Z",
  "blockNumber": 9084380,
  "transactionHash": "0x3ba04cef4111e59ac32125b0696f0eab79b4707a0f80fe97456a8c65ce0c33ec",
  "safeTxHash": "0x404136067787a8df5a2f3d728228bf31101f353645f8f2e5f315bf9504162167",
  "proposer": "0xDA29BB71669f46F2a779b4b62f03644A84eE3479",
  "proposedByDelegate": null,
  "executor": "0xDA29BB71669f46F2a779b4b62f03644A84eE3479",
  "isExecuted": true,
  "isSuccessful": true,
  "ethGasPrice": "1062324",
  "maxFeePerGas": "1125364",
  "maxPriorityFeePerGas": "1000000",
  "gasUsed": 181356,
  "fee": "192658831344",
  "origin": "{}",
  "dataDecoded": {
    "method": "execute",
    "parameters": [
      {
        "name": "target",
        "type": "address",
        "value": "0x4FDA8998EC3b7d4b4A612d45FeB8fB36734470f2"
      },
      {
        "name": "value",
        "type": "uint256",
        "value": "0"
      },
      {
        "name": "payload",
        "type": "bytes",
        "value": "0x6a7612020000000000000000000000009641d764fc13c8b624c04430c7356c1c7c8102e200000000000000000000000000000000000000000000000000000000000000000000000000000000000000000000000000000000000000000000000000000140000000000000000000000000000000000000000000000000000000000000000100000000000000000000000000000000000000000000000000000000000000000000000000000000000000000000000000000000000000000000000000000000000000000000000000000000000000000000000000000000000000000000000000000000000000000000000000000000000000000000000000000000000000000000000000000000000000000000000000000000000000000000000000000000000000000000000000000000000000000000000000000000000000000000044000000000000000000000000000000000000000000000000000000000000002c48d80ff0a000000000000000000000000000000000000000000000000000000000000002000000000000000000000000000000000000000000000000000000000000002640056e88cb4f0136fc27d95499de4be2acf47946fa10000000000000000000000000000000000000000000000000000000000000000000000000000000000000000000000000000000000000000000000000000004499a88ec4000000000000000000000000b02a15c6bd0882b35e9936a9579f35fb26e11476000000000000000000000000fd859cf6ce0e7e3b37e637edf699f2f87f78df7d0056e88cb4f0136fc27d95499de4be2acf47946fa10000000000000000000000000000000000000000000000000000000000000000000000000000000000000000000000000000000000000000000000000000004499a88ec4000000000000000000000000b3cd1a457dea9a9a6f6406c6419b1c326670a96f000000000000000000000000b5b2179c0c58ae285a02c1390dbaf28651902a900056e88cb4f0136fc27d95499de4be2acf47946fa10000000000000000000000000000000000000000000000000000000000000000000000000000000000000000000000000000000000000000000000000000004499a88ec4000000000000000000000000ff58a373c18268f483c1f5ca03cf885c0c43373a000000000000000000000000157a9f3e97c7688372617262239aa3b8fd3b61800056e88cb4f0136fc27d95499de4be2acf47946fa10000000000000000000000000000000000000000000000000000000000000000000000000000000000000000000000000000000000000000000000000000004499a88ec4000000000000000000000000b99cc53e8db7018f557606c2a5b066527bf96b26000000000000000000000000005d147a956c5d8114c630a3a23a203d48334888000000000000000000000000000000000000000000000000000000000000000000000000000000000000000000000000000000000000000000000000000000000000000000000000000000000000000000000000000000410000000000000000000000001bef05c7303d44e0e2fcd2a19d993eded4c51b5b00000000000000000000000000000000000000000000000000000000000000000100000000000000000000000000000000000000000000000000000000000000"
      },
      {
        "name": "predecessor",
        "type": "bytes32",
        "value": "0x0000000000000000000000000000000000000000000000000000000000000000"
      },
      {
        "name": "salt",
        "type": "bytes32",
        "value": "0x0000000000000000000000000000000000000000000000000000000000000000"
      }
    ]
  },
  "confirmationsRequired": 1,
  "confirmations": [
    {
      "owner": "0xDA29BB71669f46F2a779b4b62f03644A84eE3479",
      "submissionDate": "2025-08-28T20:06:11.023404Z",
      "transactionHash": null,
      "signature": "0x1de82ba314d7650aa8f636e11654de31f72427c63a5039eeb4d7327e50685226057978944148fb3510ce638c0b902df0208af3d772362ea75eabf1fcdd3c1cd61b",
      "signatureType": "EOA"
    }
  ],
  "trusted": true,
  "signatures": "0x1de82ba314d7650aa8f636e11654de31f72427c63a5039eeb4d7327e50685226057978944148fb3510ce638c0b902df0208af3d772362ea75eabf1fcdd3c1cd61b"
}