{
  "safe": "0xb094Ba769b4976Dc37fC689A76675f31bc4923b0",
  "to": "0x1BEF05C7303d44e0E2FCD2A19d993eDEd4c51b5B",
  "value": "0",
  "data": "0x01d5062a0000000000000000000000004fda8998ec3b7d4b4a612d45feb8fb36734470f2000000000000000000000000000000000000000000000000000000000000000000000000000000000000000000000000000000000000000000000000000000c000000000000000000000000000000000000000000000000000000000000000000000000000000000000000000000000000000000000000000000000000000000000000000000000000000000000000000000000000000000000000000000000100000000000000000000000000000000000000000000000000000000000004c46a7612020000000000000000000000009641d764fc13c8b624c04430c7356c1c7c8102e200000000000000000000000000000000000000000000000000000000000000000000000000000000000000000000000000000000000000000000000000000140000000000000000000000000000000000000000000000000000000000000000100000000000000000000000000000000000000000000000000000000000000000000000000000000000000000000000000000000000000000000000000000000000000000000000000000000000000000000000000000000000000000000000000000000000000000000000000000000000000000000000000000000000000000000000000000000000000000000000000000000000000000000000000000000000000000000000000000000000000000000000000000000000000000000044000000000000000000000000000000000000000000000000000000000000002c48d80ff0a000000000000000000000000000000000000000000000000000000000000002000000000000000000000000000000000000000000000000000000000000002640056e88cb4f0136fc27d95499de4be2acf47946fa10000000000000000000000000000000000000000000000000000000000000000000000000000000000000000000000000000000000000000000000000000004499a88ec4000000000000000000000000b02a15c6bd0882b35e9936a9579f35fb26e11476000000000000000000000000fd859cf6ce0e7e3b37e637edf699f2f87f78df7d0056e88cb4f0136fc27d95499de4be2acf47946fa10000000000000000000000000000000000000000000000000000000000000000000000000000000000000000000000000000000000000000000000000000004499a88ec4000000000000000000000000b3cd1a457dea9a9a6f6406c6419b1c326670a96f000000000000000000000000b5b2179c0c58ae285a02c1390dbaf28651902a900056e88cb4f0136fc27d95499de4be2acf47946fa10000000000000000000000000000000000000000000000000000000000000000000000000000000000000000000000000000000000000000000000000000004499a88ec4000000000000000000000000ff58a373c18268f483c1f5ca03cf885c0c43373a000000000000000000000000157a9f3e97c7688372617262239aa3b8fd3b61800056e88cb4f0136fc27d95499de4be2acf47946fa10000000000000000000000000000000000000000000000000000000000000000000000000000000000000000000000000000000000000000000000000000004499a88ec4000000000000000000000000b99cc53e8db7018f557606c2a5b066527bf96b26000000000000000000000000005d147a956c5d8114c630a3a23a203d48334888000000000000000000000000000000000000000000000000000000000000000000000000000000000000000000000000000000000000000000000000000000000000000000000000000000000000000000000000000000410000000000000000000000001bef05c7303d44e0e2fcd2a19d993eded4c51b5b0000000000000000000000000000000000000000000000000000000000000000010000000000000000000000000000000000000000000000000000000000000000000000000000000000000000000000000000000000000000000000",
  "operation": 0,
  "gasToken": "0x0000000000000000000000000000000000000000",
  "safeTxGas": 0,
  "baseGas": 0,
  "gasPrice": "0",
  "refundReceiver": "0x0000000000000000000000000000000000000000",
  "nonce": 16,
  "executionDate": null,
  "submissionDate": "2025-08-28T20:01:00.985366Z",
  "modified": "2025-08-28T20:01:01.087813Z",
  "blockNumber": null,
  "transactionHash": null,
  "safeTxHash": "0x150430d5eb47ea5d6fcec061421e4191a34b1f0cbbef007f7a28840b7cc9be7a",
  "proposer": "0xDA29BB71669f46F2a779b4b62f03644A84eE3479",
  "proposedByDelegate": null,
  "executor": null,
  "isExecuted": false,
  "isSuccessful": null,
  "ethGasPrice": null,
  "maxFeePerGas": null,
  "maxPriorityFeePerGas": null,
  "gasUsed": null,
  "fee": null,
  "origin": "{}",
  "dataDecoded": {
    "method": "schedule",
    "parameters": [
      {
        "name": "target",
        "type": "address",
        "value": "0x4FDA8998EC3b7d4b4A612d45FeB8fB36734470f2"
      },
      {
        "name": "value",
        "type": "uint256",
        "value": "0"
      },
      {
        "name": "data",
        "type": "bytes",
        "value": "0x6a7612020000000000000000000000009641d764fc13c8b624c04430c7356c1c7c8102e200000000000000000000000000000000000000000000000000000000000000000000000000000000000000000000000000000000000000000000000000000140000000000000000000000000000000000000000000000000000000000000000100000000000000000000000000000000000000000000000000000000000000000000000000000000000000000000000000000000000000000000000000000000000000000000000000000000000000000000000000000000000000000000000000000000000000000000000000000000000000000000000000000000000000000000000000000000000000000000000000000000000000000000000000000000000000000000000000000000000000000000000000000000000000000000044000000000000000000000000000000000000000000000000000000000000002c48d80ff0a000000000000000000000000000000000000000000000000000000000000002000000000000000000000000000000000000000000000000000000000000002640056e88cb4f0136fc27d95499de4be2acf47946fa10000000000000000000000000000000000000000000000000000000000000000000000000000000000000000000000000000000000000000000000000000004499a88ec4000000000000000000000000b02a15c6bd0882b35e9936a9579f35fb26e11476000000000000000000000000fd859cf6ce0e7e3b37e637edf699f2f87f78df7d0056e88cb4f0136fc27d95499de4be2acf47946fa10000000000000000000000000000000000000000000000000000000000000000000000000000000000000000000000000000000000000000000000000000004499a88ec4000000000000000000000000b3cd1a457dea9a9a6f6406c6419b1c326670a96f000000000000000000000000b5b2179c0c58ae285a02c1390dbaf28651902a900056e88cb4f0136fc27d95499de4be2acf47946fa10000000000000000000000000000000000000000000000000000000000000000000000000000000000000000000000000000000000000000000000000000004499a88ec4000000000000000000000000ff58a373c18268f483c1f5ca03cf885c0c43373a000000000000000000000000157a9f3e97c7688372617262239aa3b8fd3b61800056e88cb4f0136fc27d95499de4be2acf47946fa10000000000000000000000000000000000000000000000000000000000000000000000000000000000000000000000000000000000000000000000000000004499a88ec4000000000000000000000000b99cc53e8db7018f557606c2a5b066527bf96b26000000000000000000000000005d147a956c5d8114c630a3a23a203d48334888000000000000000000000000000000000000000000000000000000000000000000000000000000000000000000000000000000000000000000000000000000000000000000000000000000000000000000000000000000410000000000000000000000001bef05c7303d44e0e2fcd2a19d993eded4c51b5b00000000000000000000000000000000000000000000000000000000000000000100000000000000000000000000000000000000000000000000000000000000"
      },
      {
        "name": "predecessor",
        "type": "bytes32",
        "value": "0x0000000000000000000000000000000000000000000000000000000000000000"
      },
      {
        "name": "salt",
        "type": "bytes32",
        "value": "0x0000000000000000000000000000000000000000000000000000000000000000"
      },
      {
        "name": "delay",
        "type": "uint256",
        "value": "1"
      }
    ]
  },
  "confirmationsRequired": 1,
  "confirmations": [
    {
      "owner": "0xDA29BB71669f46F2a779b4b62f03644A84eE3479",
      "submissionDate": "2025-08-28T20:01:01.087813Z",
      "transactionHash": null,
      "signature": "0xf1e7d1b37a746910b527b5ebecdd91ddd02caf38ceb32ed55e73a1e2795e885d2b5a74d8130f346f75b42af62bab205b53ceaee4e16634a7eac92e8ee0ae48091b",
      "signatureType": "EOA"
    }
  ],
  "trusted": true,
  "signatures": null
}