{
  "safe": "0x4ACA7e09eF90612941A9185A6690Dbe9e39aae8f",
  "to": "0xB043055dd967A382577c2f5261fA6428f2905c15",
  "value": "0",
  "data": "0x01d5062a000000000000000000000000fa74797e64feb6a4d95d624f6822224c93e613aa000000000000000000000000000000000000000000000000000000000000000000000000000000000000000000000000000000000000000000000000000000c000000000000000000000000000000000000000000000000000000000000000000000000000000000000000000000000000000000000000000000000000000000000000000000000000000000000000000000000000000000000000000000000100000000000000000000000000000000000000000000000000000000000002e46a7612020000000000000000000000009641d764fc13c8b624c04430c7356c1c7c8102e200000000000000000000000000000000000000000000000000000000000000000000000000000000000000000000000000000000000000000000000000000140000000000000000000000000000000000000000000000000000000000000000100000000000000000000000000000000000000000000000000000000000000000000000000000000000000000000000000000000000000000000000000000000000000000000000000000000000000000000000000000000000000000000000000000000000000000000000000000000000000000000000000000000000000000000000000000000000000000000000000000000000000000000000000000000000000000000000000000000000000000000000000000000000000000000026000000000000000000000000000000000000000000000000000000000000000e48d80ff0a0000000000000000000000000000000000000000000000000000000000000020000000000000000000000000000000000000000000000000000000000000009900be2f96efff467c6773dc91ea62ab34c73195a0b50000000000000000000000000000000000000000000000000000000000000000000000000000000000000000000000000000000000000000000000000000004499a88ec4000000000000000000000000b99cc53e8db7018f557606c2a5b066527bf96b260000000000000000000000004b1481fff061a0099408e71702b40fe0932080bc00000000000000000000000000000000000000000000000000000000000000000000000000000000000000000000000000000000000000000000000000000000000041000000000000000000000000b043055dd967a382577c2f5261fa6428f2905c150000000000000000000000000000000000000000000000000000000000000000010000000000000000000000000000000000000000000000000000000000000000000000000000000000000000000000000000000000000000000000",
  "operation": 0,
  "gasToken": "0x0000000000000000000000000000000000000000",
  "safeTxGas": 0,
  "baseGas": 0,
  "gasPrice": "0",
  "refundReceiver": "0x0000000000000000000000000000000000000000",
  "nonce": 4,
  "executionDate": null,
  "submissionDate": "2025-09-22T20:47:05.666156Z",
  "modified": "2025-09-22T20:47:05.720545Z",
  "blockNumber": null,
  "transactionHash": null,
  "safeTxHash": "0x4ac1e1eaa47460171b8f60c90d1e441371d1ff3c84fadeab0e9a762980e4e1fb",
  "proposer": "0xDA29BB71669f46F2a779b4b62f03644A84eE3479",
  "proposedByDelegate": null,
  "executor": null,
  "isExecuted": false,
  "isSuccessful": null,
  "ethGasPrice": null,
  "maxFeePerGas": null,
  "maxPriorityFeePerGas": null,
  "gasUsed": null,
  "fee": null,
  "origin": "{}",
  "dataDecoded": {
    "method": "schedule",
    "parameters": [
      {
        "name": "target",
        "type": "address",
        "value": "0xfA74797E64FeB6A4D95d624f6822224C93e613aa"
      },
      {
        "name": "value",
        "type": "uint256",
        "value": "0"
      },
      {
        "name": "data",
        "type": "bytes",
        "value": "0x6a7612020000000000000000000000009641d764fc13c8b624c04430c7356c1c7c8102e200000000000000000000000000000000000000000000000000000000000000000000000000000000000000000000000000000000000000000000000000000140000000000000000000000000000000000000000000000000000000000000000100000000000000000000000000000000000000000000000000000000000000000000000000000000000000000000000000000000000000000000000000000000000000000000000000000000000000000000000000000000000000000000000000000000000000000000000000000000000000000000000000000000000000000000000000000000000000000000000000000000000000000000000000000000000000000000000000000000000000000000000000000000000000000000026000000000000000000000000000000000000000000000000000000000000000e48d80ff0a0000000000000000000000000000000000000000000000000000000000000020000000000000000000000000000000000000000000000000000000000000009900be2f96efff467c6773dc91ea62ab34c73195a0b50000000000000000000000000000000000000000000000000000000000000000000000000000000000000000000000000000000000000000000000000000004499a88ec4000000000000000000000000b99cc53e8db7018f557606c2a5b066527bf96b260000000000000000000000004b1481fff061a0099408e71702b40fe0932080bc00000000000000000000000000000000000000000000000000000000000000000000000000000000000000000000000000000000000000000000000000000000000041000000000000000000000000b043055dd967a382577c2f5261fa6428f2905c1500000000000000000000000000000000000000000000000000000000000000000100000000000000000000000000000000000000000000000000000000000000"
      },
      {
        "name": "predecessor",
        "type": "bytes32",
        "value": "0x0000000000000000000000000000000000000000000000000000000000000000"
      },
      {
        "name": "salt",
        "type": "bytes32",
        "value": "0x0000000000000000000000000000000000000000000000000000000000000000"
      },
      {
        "name": "delay",
        "type": "uint256",
        "value": "1"
      }
    ]
  },
  "confirmationsRequired": 1,
  "confirmations": [
    {
      "owner": "0xDA29BB71669f46F2a779b4b62f03644A84eE3479",
      "submissionDate": "2025-09-22T20:47:05.720545Z",
      "transactionHash": null,
      "signature": "0x9877adfa7f28f746ecf9d59a5f138536b1ebb8be645f8ff2b001aab62fdcb3fd459be675d78828d2134c082a37aa4f4e06dc9eef65949e2dc83cf65c4e7a36161b",
      "signatureType": "EOA"
    }
  ],
  "trusted": true,
  "signatures": null
}