{
  "safe": "0xa3053EF25F1F7d9D55a7655372B8a31D0f40eCA9",
  "to": "0xba5Ed099633D3B313e4D5F7bdc1305d3c28ba5Ed",
  "value": "0",
  "data": "0x26307668a3053ef25f1f7d9d55a7655372b8a31d0f40eca90019665abeffa4b24c9a13de00000000000000000000000000000000000000000000000000000000000000400000000000000000000000000000000000000000000000000000000000000df66080604052604051610d76380380610d76833981016040819052610022916103c3565b828161002f82825f610043565b5061003b90508261006e565b5050506104df565b61004c836100db565b5f825111806100585750805b1561006957610067838361011a565b505b505050565b7f7e644d79422f17c01e4894b5f4f588d331ebfa28653d42ae832dc59e38c9798f6100ad5f516020610d2f5f395f51905f52546001600160a01b031690565b604080516001600160a01b03928316815291841660208301520160405180910390a16100d881610146565b50565b6100e4816101e1565b6040516001600160a01b038216907fbc7cd75a20ee27fd9adebab32041f755214dbc6bffa90cc0225b39da2e5c2d3b905f90a250565b606061013f8383604051806060016040528060278152602001610d4f60279139610275565b9392505050565b6001600160a01b0381166101b05760405162461bcd60e51b815260206004820152602660248201527f455243313936373a206e65772061646d696e20697320746865207a65726f206160448201526564647265737360d01b60648201526084015b60405180910390fd5b805f516020610d2f5f395f51905f525b80546001600160a01b0319166001600160a01b039290921691909117905550565b6001600160a01b0381163b61024e5760405162461bcd60e51b815260206004820152602d60248201527f455243313936373a206e657720696d706c656d656e746174696f6e206973206e60448201526c1bdd08184818dbdb9d1c9858dd609a1b60648201526084016101a7565b807f360894a13ba1a3210667c828492db98dca3e2076cc3735a920a3ca505d382bbc6101c0565b60605f5f856001600160a01b0316856040516102919190610494565b5f60405180830381855af49150503d805f81146102c9576040519150601f19603f3d011682016040523d82523d5f602084013e6102ce565b606091505b5090925090506102e0868383876102ea565b9695505050505050565b606083156103585782515f03610351576001600160a01b0385163b6103515760405162461bcd60e51b815260206004820152601d60248201527f416464726573733a2063616c6c20746f206e6f6e2d636f6e747261637400000060448201526064016101a7565b5081610362565b610362838361036a565b949350505050565b81511561037a5781518083602001fd5b8060405162461bcd60e51b81526004016101a791906104aa565b80516001600160a01b03811681146103aa575f5ffd5b919050565b634e487b7160e01b5f52604160045260245ffd5b5f5f5f606084860312156103d5575f5ffd5b6103de84610394565b92506103ec60208501610394565b60408501519092506001600160401b03811115610407575f5ffd5b8401601f81018613610417575f5ffd5b80516001600160401b03811115610430576104306103af565b604051601f8201601f19908116603f011681016001600160401b038111828210171561045e5761045e6103af565b604052818152828201602001881015610475575f5ffd5b8160208401602083015e5f602083830101528093505050509250925092565b5f82518060208501845e5f920191825250919050565b602081525f82518060208401528060208501604085015e5f604082850101526040601f19601f83011684010191505092915050565b610843806104ec5f395ff3fe60806040523661001357610011610017565b005b6100115b61001f610168565b6001600160a01b0316330361015e5760606001600160e01b03195f35166364d3180d60e11b81016100595761005261019a565b9150610156565b63587086bd60e11b6001600160e01b0319821601610079576100526101ed565b63070d7c6960e41b6001600160e01b031982160161009957610052610231565b621eb96f60e61b6001600160e01b03198216016100b857610052610261565b63a39f25e560e01b6001600160e01b03198216016100d8576100526102a0565b60405162461bcd60e51b815260206004820152604260248201527f5472616e73706172656e745570677261646561626c6550726f78793a2061646d60448201527f696e2063616e6e6f742066616c6c6261636b20746f2070726f78792074617267606482015261195d60f21b608482015260a4015b60405180910390fd5b815160208301f35b6101666102b3565b565b5f7fb53127684a568b3173ae13b9f8a6016e243e63b6e8ee1178d6a717850b5d61035b546001600160a01b0316919050565b60606101a46102c3565b5f6101b23660048184610668565b8101906101bf91906106aa565b90506101da8160405180602001604052805f8152505f6102cd565b505060408051602081019091525f815290565b60605f806101fe3660048184610668565b81019061020b91906106d7565b9150915061021b828260016102cd565b60405180602001604052805f8152509250505090565b606061023b6102c3565b5f6102493660048184610668565b81019061025691906106aa565b90506101da816102f8565b606061026b6102c3565b5f610274610168565b604080516001600160a01b03831660208201529192500160405160208183030381529060405291505090565b60606102aa6102c3565b5f61027461034f565b6101666102be61034f565b61035d565b3415610166575f5ffd5b6102d68361037b565b5f825111806102e25750805b156102f3576102f183836103ba565b505b505050565b7f7e644d79422f17c01e4894b5f4f588d331ebfa28653d42ae832dc59e38c9798f610321610168565b604080516001600160a01b03928316815291841660208301520160405180910390a161034c816103e6565b50565b5f61035861048f565b905090565b365f5f375f5f365f845af43d5f5f3e808015610377573d5ff35b3d5ffd5b610384816104b6565b6040516001600160a01b038216907fbc7cd75a20ee27fd9adebab32041f755214dbc6bffa90cc0225b39da2e5c2d3b905f90a250565b60606103df83836040518060600160405280602781526020016107e76027913961054a565b9392505050565b6001600160a01b03811661044b5760405162461bcd60e51b815260206004820152602660248201527f455243313936373a206e65772061646d696e20697320746865207a65726f206160448201526564647265737360d01b606482015260840161014d565b807fb53127684a568b3173ae13b9f8a6016e243e63b6e8ee1178d6a717850b5d61035b80546001600160a01b0319166001600160a01b039290921691909117905550565b5f7f360894a13ba1a3210667c828492db98dca3e2076cc3735a920a3ca505d382bbc61018b565b6001600160a01b0381163b6105235760405162461bcd60e51b815260206004820152602d60248201527f455243313936373a206e657720696d706c656d656e746174696f6e206973206e60448201526c1bdd08184818dbdb9d1c9858dd609a1b606482015260840161014d565b807f360894a13ba1a3210667c828492db98dca3e2076cc3735a920a3ca505d382bbc61046e565b60605f5f856001600160a01b031685604051610566919061079b565b5f60405180830381855af49150503d805f811461059e576040519150601f19603f3d011682016040523d82523d5f602084013e6105a3565b606091505b50915091506105b4868383876105be565b9695505050505050565b6060831561062c5782515f03610625576001600160a01b0385163b6106255760405162461bcd60e51b815260206004820152601d60248201527f416464726573733a2063616c6c20746f206e6f6e2d636f6e7472616374000000604482015260640161014d565b5081610636565b610636838361063e565b949350505050565b81511561064e5781518083602001fd5b8060405162461bcd60e51b815260040161014d91906107b1565b5f5f85851115610676575f5ffd5b83861115610682575f5ffd5b5050820193919092039150565b80356001600160a01b03811681146106a5575f5ffd5b919050565b5f602082840312156106ba575f5ffd5b6103df8261068f565b634e487b7160e01b5f52604160045260245ffd5b5f5f604083850312156106e8575f5ffd5b6106f18361068f565b9150602083013567ffffffffffffffff81111561070c575f5ffd5b8301601f8101851361071c575f5ffd5b803567ffffffffffffffff811115610736576107366106c3565b604051601f8201601f19908116603f0116810167ffffffffffffffff81118282101715610765576107656106c3565b60405281815282820160200187101561077c575f5ffd5b816020840160208301375f602083830101528093505050509250929050565b5f82518060208501845e5f920191825250919050565b602081525f82518060208401528060208501604085015e5f604082850101526040601f19601f8301168401019150509291505056fe416464726573733a206c6f772d6c6576656c2064656c65676174652063616c6c206661696c6564a2646970667358221220fb069c0ac66c681da8d71466ef25a9eeb30abff8a031d0850877e6a7fa6454ec64736f6c634300081b0033b53127684a568b3173ae13b9f8a6016e243e63b6e8ee1178d6a717850b5d6103416464726573733a206c6f772d6c6576656c2064656c65676174652063616c6c206661696c656400000000000000000000000070323bc7261136a002ab392f921d67ea52096dcf000000000000000000000000a3053ef25f1f7d9d55a7655372b8a31d0f40eca90000000000000000000000000000000000000000000000000000000000000060000000000000000000000000000000000000000000000000000000000000000000000000000000000000",
  "operation": 0,
  "gasToken": "0x0000000000000000000000000000000000000000",
  "safeTxGas": "0",
  "baseGas": "0",
  "gasPrice": "0",
  "refundReceiver": "0x0000000000000000000000000000000000000000",
  "nonce": "5",
  "executionDate": "2026-01-16T20:24:47Z",
  "submissionDate": "2026-01-16T20:13:46.434670Z",
  "modified": "2026-01-16T20:24:53.628786Z",
  "blockNumber": 24249665,
  "transactionHash": "0xf5a80d13d152ee3d270b88f530c15657f338abd2564ac64f04580b1da81e65a4",
  "safeTxHash": "0xe1bbf24c46d4261e95de255f5351425114f486598329471605a038547a9a20b3",
  "proposer": "0xdC541e2B4adD96888b2C79006F49A9748A4f1bDF",
  "proposedByDelegate": null,
  "executor": "0xE31ad7cFD94bD74C40b53160aA0E8A0b6D340830",
  "isExecuted": true,
  "isSuccessful": true,
  "ethGasPrice": "58168582",
  "maxFeePerGas": "59135893",
  "maxPriorityFeePerGas": "5375990",
  "gasUsed": 636070,
  "fee": "36999289952740",
  "origin": "{}",
  "dataDecoded": {
    "method": "deployCreate2",
    "parameters": [
      {
        "name": "salt",
        "type": "bytes32",
        "value": "0xa3053ef25f1f7d9d55a7655372b8a31d0f40eca90019665abeffa4b24c9a13de"
      },
      {
        "name": "initCode",
        "type": "bytes",
        "value": "0x6080604052604051610d76380380610d76833981016040819052610022916103c3565b828161002f82825f610043565b5061003b90508261006e565b5050506104df565b61004c836100db565b5f825111806100585750805b1561006957610067838361011a565b505b505050565b7f7e644d79422f17c01e4894b5f4f588d331ebfa28653d42ae832dc59e38c9798f6100ad5f516020610d2f5f395f51905f52546001600160a01b031690565b604080516001600160a01b03928316815291841660208301520160405180910390a16100d881610146565b50565b6100e4816101e1565b6040516001600160a01b038216907fbc7cd75a20ee27fd9adebab32041f755214dbc6bffa90cc0225b39da2e5c2d3b905f90a250565b606061013f8383604051806060016040528060278152602001610d4f60279139610275565b9392505050565b6001600160a01b0381166101b05760405162461bcd60e51b815260206004820152602660248201527f455243313936373a206e65772061646d696e20697320746865207a65726f206160448201526564647265737360d01b60648201526084015b60405180910390fd5b805f516020610d2f5f395f51905f525b80546001600160a01b0319166001600160a01b039290921691909117905550565b6001600160a01b0381163b61024e5760405162461bcd60e51b815260206004820152602d60248201527f455243313936373a206e657720696d706c656d656e746174696f6e206973206e60448201526c1bdd08184818dbdb9d1c9858dd609a1b60648201526084016101a7565b807f360894a13ba1a3210667c828492db98dca3e2076cc3735a920a3ca505d382bbc6101c0565b60605f5f856001600160a01b0316856040516102919190610494565b5f60405180830381855af49150503d805f81146102c9576040519150601f19603f3d011682016040523d82523d5f602084013e6102ce565b606091505b5090925090506102e0868383876102ea565b9695505050505050565b606083156103585782515f03610351576001600160a01b0385163b6103515760405162461bcd60e51b815260206004820152601d60248201527f416464726573733a2063616c6c20746f206e6f6e2d636f6e747261637400000060448201526064016101a7565b5081610362565b610362838361036a565b949350505050565b81511561037a5781518083602001fd5b8060405162461bcd60e51b81526004016101a791906104aa565b80516001600160a01b03811681146103aa575f5ffd5b919050565b634e487b7160e01b5f52604160045260245ffd5b5f5f5f606084860312156103d5575f5ffd5b6103de84610394565b92506103ec60208501610394565b60408501519092506001600160401b03811115610407575f5ffd5b8401601f81018613610417575f5ffd5b80516001600160401b03811115610430576104306103af565b604051601f8201601f19908116603f011681016001600160401b038111828210171561045e5761045e6103af565b604052818152828201602001881015610475575f5ffd5b8160208401602083015e5f602083830101528093505050509250925092565b5f82518060208501845e5f920191825250919050565b602081525f82518060208401528060208501604085015e5f604082850101526040601f19601f83011684010191505092915050565b610843806104ec5f395ff3fe60806040523661001357610011610017565b005b6100115b61001f610168565b6001600160a01b0316330361015e5760606001600160e01b03195f35166364d3180d60e11b81016100595761005261019a565b9150610156565b63587086bd60e11b6001600160e01b0319821601610079576100526101ed565b63070d7c6960e41b6001600160e01b031982160161009957610052610231565b621eb96f60e61b6001600160e01b03198216016100b857610052610261565b63a39f25e560e01b6001600160e01b03198216016100d8576100526102a0565b60405162461bcd60e51b815260206004820152604260248201527f5472616e73706172656e745570677261646561626c6550726f78793a2061646d60448201527f696e2063616e6e6f742066616c6c6261636b20746f2070726f78792074617267606482015261195d60f21b608482015260a4015b60405180910390fd5b815160208301f35b6101666102b3565b565b5f7fb53127684a568b3173ae13b9f8a6016e243e63b6e8ee1178d6a717850b5d61035b546001600160a01b0316919050565b60606101a46102c3565b5f6101b23660048184610668565b8101906101bf91906106aa565b90506101da8160405180602001604052805f8152505f6102cd565b505060408051602081019091525f815290565b60605f806101fe3660048184610668565b81019061020b91906106d7565b9150915061021b828260016102cd565b60405180602001604052805f8152509250505090565b606061023b6102c3565b5f6102493660048184610668565b81019061025691906106aa565b90506101da816102f8565b606061026b6102c3565b5f610274610168565b604080516001600160a01b03831660208201529192500160405160208183030381529060405291505090565b60606102aa6102c3565b5f61027461034f565b6101666102be61034f565b61035d565b3415610166575f5ffd5b6102d68361037b565b5f825111806102e25750805b156102f3576102f183836103ba565b505b505050565b7f7e644d79422f17c01e4894b5f4f588d331ebfa28653d42ae832dc59e38c9798f610321610168565b604080516001600160a01b03928316815291841660208301520160405180910390a161034c816103e6565b50565b5f61035861048f565b905090565b365f5f375f5f365f845af43d5f5f3e808015610377573d5ff35b3d5ffd5b610384816104b6565b6040516001600160a01b038216907fbc7cd75a20ee27fd9adebab32041f755214dbc6bffa90cc0225b39da2e5c2d3b905f90a250565b60606103df83836040518060600160405280602781526020016107e76027913961054a565b9392505050565b6001600160a01b03811661044b5760405162461bcd60e51b815260206004820152602660248201527f455243313936373a206e65772061646d696e20697320746865207a65726f206160448201526564647265737360d01b606482015260840161014d565b807fb53127684a568b3173ae13b9f8a6016e243e63b6e8ee1178d6a717850b5d61035b80546001600160a01b0319166001600160a01b039290921691909117905550565b5f7f360894a13ba1a3210667c828492db98dca3e2076cc3735a920a3ca505d382bbc61018b565b6001600160a01b0381163b6105235760405162461bcd60e51b815260206004820152602d60248201527f455243313936373a206e657720696d706c656d656e746174696f6e206973206e60448201526c1bdd08184818dbdb9d1c9858dd609a1b606482015260840161014d565b807f360894a13ba1a3210667c828492db98dca3e2076cc3735a920a3ca505d382bbc61046e565b60605f5f856001600160a01b031685604051610566919061079b565b5f60405180830381855af49150503d805f811461059e576040519150601f19603f3d011682016040523d82523d5f602084013e6105a3565b606091505b50915091506105b4868383876105be565b9695505050505050565b6060831561062c5782515f03610625576001600160a01b0385163b6106255760405162461bcd60e51b815260206004820152601d60248201527f416464726573733a2063616c6c20746f206e6f6e2d636f6e7472616374000000604482015260640161014d565b5081610636565b610636838361063e565b949350505050565b81511561064e5781518083602001fd5b8060405162461bcd60e51b815260040161014d91906107b1565b5f5f85851115610676575f5ffd5b83861115610682575f5ffd5b5050820193919092039150565b80356001600160a01b03811681146106a5575f5ffd5b919050565b5f602082840312156106ba575f5ffd5b6103df8261068f565b634e487b7160e01b5f52604160045260245ffd5b5f5f604083850312156106e8575f5ffd5b6106f18361068f565b9150602083013567ffffffffffffffff81111561070c575f5ffd5b8301601f8101851361071c575f5ffd5b803567ffffffffffffffff811115610736576107366106c3565b604051601f8201601f19908116603f0116810167ffffffffffffffff81118282101715610765576107656106c3565b60405281815282820160200187101561077c575f5ffd5b816020840160208301375f602083830101528093505050509250929050565b5f82518060208501845e5f920191825250919050565b602081525f82518060208401528060208501604085015e5f604082850101526040601f19601f8301168401019150509291505056fe416464726573733a206c6f772d6c6576656c2064656c65676174652063616c6c206661696c6564a2646970667358221220fb069c0ac66c681da8d71466ef25a9eeb30abff8a031d0850877e6a7fa6454ec64736f6c634300081b0033b53127684a568b3173ae13b9f8a6016e243e63b6e8ee1178d6a717850b5d6103416464726573733a206c6f772d6c6576656c2064656c65676174652063616c6c206661696c656400000000000000000000000070323bc7261136a002ab392f921d67ea52096dcf000000000000000000000000a3053ef25f1f7d9d55a7655372b8a31d0f40eca900000000000000000000000000000000000000000000000000000000000000600000000000000000000000000000000000000000000000000000000000000000"
      }
    ]
  },
  "confirmationsRequired": 3,
  "confirmations": [
    {
      "owner": "0xdC541e2B4adD96888b2C79006F49A9748A4f1bDF",
      "submissionDate": "2026-01-16T20:13:46.468640Z",
      "transactionHash": null,
      "signature": "0xe72478e171f6f09ce37e12556e199a15eae9228ea2f3be2994fc87d9c8fded8878cfb73bacfb144f28b8e78f99a0c60cce9873c4221fc5b7dfa5f9c2bfafa88c1c",
      "signatureType": "EOA"
    },
    {
      "owner": "0x957236B539bfA49b650B66426BcaFbF477C1c334",
      "submissionDate": "2026-01-16T20:22:38.386103Z",
      "transactionHash": null,
      "signature": "0x0322e3d652eaa8d78f9de2331426f5a0e36f941339ff2ea97a59b32fd444c77b0ff813288c9938327c46476b17792c9889802e859ceb69052ff712cf63c5e3d91c",
      "signatureType": "EOA"
    },
    {
      "owner": "0xE31ad7cFD94bD74C40b53160aA0E8A0b6D340830",
      "submissionDate": "2026-01-16T20:23:55.702060Z",
      "transactionHash": null,
      "signature": "0x781fab254556e1deb7d2aabf2043a6478b9b3f7a6a28948f9c7969fffb2280555c598ea51031b00e86182f33b8f798563d448484741e44842bd130485b9a91c71c",
      "signatureType": "EOA"
    }
  ],
  "trusted": true,
  "signatures": "0x0322e3d652eaa8d78f9de2331426f5a0e36f941339ff2ea97a59b32fd444c77b0ff813288c9938327c46476b17792c9889802e859ceb69052ff712cf63c5e3d91ce72478e171f6f09ce37e12556e199a15eae9228ea2f3be2994fc87d9c8fded8878cfb73bacfb144f28b8e78f99a0c60cce9873c4221fc5b7dfa5f9c2bfafa88c1c781fab254556e1deb7d2aabf2043a6478b9b3f7a6a28948f9c7969fffb2280555c598ea51031b00e86182f33b8f798563d448484741e44842bd130485b9a91c71c"
}