{
  "safe": "0x8eA6C3Cca1c96967F7B164FfaA5fabede10311A9",
  "to": "0x1BEF05C7303d44e0E2FCD2A19d993eDEd4c51b5B",
  "value": "0",
  "data": "0x134008d30000000000000000000000004fda8998ec3b7d4b4a612d45feb8fb36734470f2000000000000000000000000000000000000000000000000000000000000000000000000000000000000000000000000000000000000000000000000000000a00000000000000000000000000000000000000000000000000000000000000000000000000000000000000000000000000000000000000000000000000000000000000000000000000000000000000000000000000000000000000000000004246a7612020000000000000000000000009641d764fc13c8b624c04430c7356c1c7c8102e20000000000000000000000000000000000000000000000000000000000000000000000000000000000000000000000000000000000000000000000000000014000000000000000000000000000000000000000000000000000000000000000010000000000000000000000000000000000000000000000000000000000000000000000000000000000000000000000000000000000000000000000000000000000000000000000000000000000000000000000000000000000000000000000000000000000000000000000000000000000000000000000000000000000000000000000000000000000000000000000000000000000000000000000000000000000000000000000000000000000000000000000000000000000000000000003a000000000000000000000000000000000000000000000000000000000000002248d80ff0a000000000000000000000000000000000000000000000000000000000000002000000000000000000000000000000000000000000000000000000000000001cb0056e88cb4f0136fc27d95499de4be2acf47946fa10000000000000000000000000000000000000000000000000000000000000000000000000000000000000000000000000000000000000000000000000000004499a88ec4000000000000000000000000a4db30d08d8bbca00d40600bee9f029984db162a000000000000000000000000d3b7f85e3f289c601fb808b0d7d366e2dfff21c30056e88cb4f0136fc27d95499de4be2acf47946fa10000000000000000000000000000000000000000000000000000000000000000000000000000000000000000000000000000000000000000000000000000004499a88ec4000000000000000000000000287381b1570d9048c4b4c7ec94d21ddb8aa1352a0000000000000000000000008f622596e0d98a840c8e5da1d257a701c9d8119c0056e88cb4f0136fc27d95499de4be2acf47946fa10000000000000000000000000000000000000000000000000000000000000000000000000000000000000000000000000000000000000000000000000000004499a88ec400000000000000000000000059c8d715dca616e032b744a753c017c9f3e16bf40000000000000000000000005e3f88341830d01d34971b12179f1ec270fc71d90000000000000000000000000000000000000000000000000000000000000000000000000000000000000000000000000000000000000000000000000000000000000000000000000000000000000000410000000000000000000000001bef05c7303d44e0e2fcd2a19d993eded4c51b5b0000000000000000000000000000000000000000000000000000000000000000010000000000000000000000000000000000000000000000000000000000000000000000000000000000000000000000000000000000000000000000",
  "operation": 0,
  "gasToken": "0x0000000000000000000000000000000000000000",
  "safeTxGas": 0,
  "baseGas": 0,
  "gasPrice": "0",
  "refundReceiver": "0x0000000000000000000000000000000000000000",
  "nonce": 12,
  "executionDate": "2025-08-28T19:51:24Z",
  "submissionDate": "2025-08-28T19:45:44.834241Z",
  "modified": "2025-08-28T19:51:27.524678Z",
  "blockNumber": 9084289,
  "transactionHash": "0xc7c5051dc41ff143e324d8428e9467ea3d9b0e0500d59027bd926cbf7b6a3fab",
  "safeTxHash": "0xc42edf41793e882fb57d79905bd9b4b32c50b5cb22980c90ed1d9c68578bf108",
  "proposer": "0xDA29BB71669f46F2a779b4b62f03644A84eE3479",
  "proposedByDelegate": null,
  "executor": "0xDA29BB71669f46F2a779b4b62f03644A84eE3479",
  "isExecuted": true,
  "isSuccessful": true,
  "ethGasPrice": "1091890",
  "maxFeePerGas": "1163402",
  "maxPriorityFeePerGas": "1000000",
  "gasUsed": 162694,
  "fee": "177643951660",
  "origin": "{}",
  "dataDecoded": {
    "method": "execute",
    "parameters": [
      {
        "name": "target",
        "type": "address",
        "value": "0x4FDA8998EC3b7d4b4A612d45FeB8fB36734470f2"
      },
      {
        "name": "value",
        "type": "uint256",
        "value": "0"
      },
      {
        "name": "payload",
        "type": "bytes",
        "value": "0x6a7612020000000000000000000000009641d764fc13c8b624c04430c7356c1c7c8102e20000000000000000000000000000000000000000000000000000000000000000000000000000000000000000000000000000000000000000000000000000014000000000000000000000000000000000000000000000000000000000000000010000000000000000000000000000000000000000000000000000000000000000000000000000000000000000000000000000000000000000000000000000000000000000000000000000000000000000000000000000000000000000000000000000000000000000000000000000000000000000000000000000000000000000000000000000000000000000000000000000000000000000000000000000000000000000000000000000000000000000000000000000000000000000000003a000000000000000000000000000000000000000000000000000000000000002248d80ff0a000000000000000000000000000000000000000000000000000000000000002000000000000000000000000000000000000000000000000000000000000001cb0056e88cb4f0136fc27d95499de4be2acf47946fa10000000000000000000000000000000000000000000000000000000000000000000000000000000000000000000000000000000000000000000000000000004499a88ec4000000000000000000000000a4db30d08d8bbca00d40600bee9f029984db162a000000000000000000000000d3b7f85e3f289c601fb808b0d7d366e2dfff21c30056e88cb4f0136fc27d95499de4be2acf47946fa10000000000000000000000000000000000000000000000000000000000000000000000000000000000000000000000000000000000000000000000000000004499a88ec4000000000000000000000000287381b1570d9048c4b4c7ec94d21ddb8aa1352a0000000000000000000000008f622596e0d98a840c8e5da1d257a701c9d8119c0056e88cb4f0136fc27d95499de4be2acf47946fa10000000000000000000000000000000000000000000000000000000000000000000000000000000000000000000000000000000000000000000000000000004499a88ec400000000000000000000000059c8d715dca616e032b744a753c017c9f3e16bf40000000000000000000000005e3f88341830d01d34971b12179f1ec270fc71d90000000000000000000000000000000000000000000000000000000000000000000000000000000000000000000000000000000000000000000000000000000000000000000000000000000000000000410000000000000000000000001bef05c7303d44e0e2fcd2a19d993eded4c51b5b00000000000000000000000000000000000000000000000000000000000000000100000000000000000000000000000000000000000000000000000000000000"
      },
      {
        "name": "predecessor",
        "type": "bytes32",
        "value": "0x0000000000000000000000000000000000000000000000000000000000000000"
      },
      {
        "name": "salt",
        "type": "bytes32",
        "value": "0x0000000000000000000000000000000000000000000000000000000000000000"
      }
    ]
  },
  "confirmationsRequired": 1,
  "confirmations": [
    {
      "owner": "0xDA29BB71669f46F2a779b4b62f03644A84eE3479",
      "submissionDate": "2025-08-28T19:45:44.888675Z",
      "transactionHash": null,
      "signature": "0x6063502033db1a23a2590559b555605afac44d140f9f196334294955295d6b0a701a10bea0a2b67c5253471f2db94a30fb63969ff30a25048387be133d3b5a301b",
      "signatureType": "EOA"
    }
  ],
  "trusted": true,
  "signatures": "0x6063502033db1a23a2590559b555605afac44d140f9f196334294955295d6b0a701a10bea0a2b67c5253471f2db94a30fb63969ff30a25048387be133d3b5a301b"
}