{
  "safe": "0x4ACA7e09eF90612941A9185A6690Dbe9e39aae8f",
  "to": "0xB043055dd967A382577c2f5261fA6428f2905c15",
  "value": "0",
  "data": "0x01d5062a000000000000000000000000fa74797e64feb6a4d95d624f6822224c93e613aa000000000000000000000000000000000000000000000000000000000000000000000000000000000000000000000000000000000000000000000000000000c000000000000000000000000000000000000000000000000000000000000000000000000000000000000000000000000000000000000000000000000000000000000000000000000000000000000000000000000000000000000000000000000100000000000000000000000000000000000000000000000000000000000004c46a7612020000000000000000000000009641d764fc13c8b624c04430c7356c1c7c8102e200000000000000000000000000000000000000000000000000000000000000000000000000000000000000000000000000000000000000000000000000000140000000000000000000000000000000000000000000000000000000000000000100000000000000000000000000000000000000000000000000000000000000000000000000000000000000000000000000000000000000000000000000000000000000000000000000000000000000000000000000000000000000000000000000000000000000000000000000000000000000000000000000000000000000000000000000000000000000000000000000000000000000000000000000000000000000000000000000000000000000000000000000000000000000000000044000000000000000000000000000000000000000000000000000000000000002c48d80ff0a0000000000000000000000000000000000000000000000000000000000000020000000000000000000000000000000000000000000000000000000000000026400be2f96efff467c6773dc91ea62ab34c73195a0b50000000000000000000000000000000000000000000000000000000000000000000000000000000000000000000000000000000000000000000000000000004499a88ec4000000000000000000000000b02a15c6bd0882b35e9936a9579f35fb26e1147600000000000000000000000042583067658071247ec8ce0a516a58f682002d0700be2f96efff467c6773dc91ea62ab34c73195a0b50000000000000000000000000000000000000000000000000000000000000000000000000000000000000000000000000000000000000000000000000000004499a88ec4000000000000000000000000b3cd1a457dea9a9a6f6406c6419b1c326670a96f000000000000000000000000885c0cc8118e428a2c04de58a93eb15ed4f0e06400be2f96efff467c6773dc91ea62ab34c73195a0b50000000000000000000000000000000000000000000000000000000000000000000000000000000000000000000000000000000000000000000000000000004499a88ec4000000000000000000000000ff58a373c18268f483c1f5ca03cf885c0c43373a0000000000000000000000005ae8152fb88c26ff9ca5c014c94fca3c6802934900be2f96efff467c6773dc91ea62ab34c73195a0b50000000000000000000000000000000000000000000000000000000000000000000000000000000000000000000000000000000000000000000000000000004499a88ec4000000000000000000000000b99cc53e8db7018f557606c2a5b066527bf96b26000000000000000000000000c908fafae29b5c9f0b5e0da1d3025b8d6d42bfa000000000000000000000000000000000000000000000000000000000000000000000000000000000000000000000000000000000000000000000000000000000000000000000000000000000000000000000000000000041000000000000000000000000b043055dd967a382577c2f5261fa6428f2905c150000000000000000000000000000000000000000000000000000000000000000010000000000000000000000000000000000000000000000000000000000000000000000000000000000000000000000000000000000000000000000",
  "operation": 0,
  "gasToken": "0x0000000000000000000000000000000000000000",
  "safeTxGas": 0,
  "baseGas": 0,
  "gasPrice": "0",
  "refundReceiver": "0x0000000000000000000000000000000000000000",
  "nonce": 2,
  "executionDate": null,
  "submissionDate": "2025-08-28T20:33:00.690907Z",
  "modified": "2025-08-28T20:33:00.748517Z",
  "blockNumber": null,
  "transactionHash": null,
  "safeTxHash": "0xc7a1101842a913ddbce2492cece534b8532390baa7d21d67007cfb7afd8e7608",
  "proposer": "0xDA29BB71669f46F2a779b4b62f03644A84eE3479",
  "proposedByDelegate": null,
  "executor": null,
  "isExecuted": false,
  "isSuccessful": null,
  "ethGasPrice": null,
  "maxFeePerGas": null,
  "maxPriorityFeePerGas": null,
  "gasUsed": null,
  "fee": null,
  "origin": "{}",
  "dataDecoded": {
    "method": "schedule",
    "parameters": [
      {
        "name": "target",
        "type": "address",
        "value": "0xfA74797E64FeB6A4D95d624f6822224C93e613aa"
      },
      {
        "name": "value",
        "type": "uint256",
        "value": "0"
      },
      {
        "name": "data",
        "type": "bytes",
        "value": "0x6a7612020000000000000000000000009641d764fc13c8b624c04430c7356c1c7c8102e200000000000000000000000000000000000000000000000000000000000000000000000000000000000000000000000000000000000000000000000000000140000000000000000000000000000000000000000000000000000000000000000100000000000000000000000000000000000000000000000000000000000000000000000000000000000000000000000000000000000000000000000000000000000000000000000000000000000000000000000000000000000000000000000000000000000000000000000000000000000000000000000000000000000000000000000000000000000000000000000000000000000000000000000000000000000000000000000000000000000000000000000000000000000000000000044000000000000000000000000000000000000000000000000000000000000002c48d80ff0a0000000000000000000000000000000000000000000000000000000000000020000000000000000000000000000000000000000000000000000000000000026400be2f96efff467c6773dc91ea62ab34c73195a0b50000000000000000000000000000000000000000000000000000000000000000000000000000000000000000000000000000000000000000000000000000004499a88ec4000000000000000000000000b02a15c6bd0882b35e9936a9579f35fb26e1147600000000000000000000000042583067658071247ec8ce0a516a58f682002d0700be2f96efff467c6773dc91ea62ab34c73195a0b50000000000000000000000000000000000000000000000000000000000000000000000000000000000000000000000000000000000000000000000000000004499a88ec4000000000000000000000000b3cd1a457dea9a9a6f6406c6419b1c326670a96f000000000000000000000000885c0cc8118e428a2c04de58a93eb15ed4f0e06400be2f96efff467c6773dc91ea62ab34c73195a0b50000000000000000000000000000000000000000000000000000000000000000000000000000000000000000000000000000000000000000000000000000004499a88ec4000000000000000000000000ff58a373c18268f483c1f5ca03cf885c0c43373a0000000000000000000000005ae8152fb88c26ff9ca5c014c94fca3c6802934900be2f96efff467c6773dc91ea62ab34c73195a0b50000000000000000000000000000000000000000000000000000000000000000000000000000000000000000000000000000000000000000000000000000004499a88ec4000000000000000000000000b99cc53e8db7018f557606c2a5b066527bf96b26000000000000000000000000c908fafae29b5c9f0b5e0da1d3025b8d6d42bfa000000000000000000000000000000000000000000000000000000000000000000000000000000000000000000000000000000000000000000000000000000000000000000000000000000000000000000000000000000041000000000000000000000000b043055dd967a382577c2f5261fa6428f2905c1500000000000000000000000000000000000000000000000000000000000000000100000000000000000000000000000000000000000000000000000000000000"
      },
      {
        "name": "predecessor",
        "type": "bytes32",
        "value": "0x0000000000000000000000000000000000000000000000000000000000000000"
      },
      {
        "name": "salt",
        "type": "bytes32",
        "value": "0x0000000000000000000000000000000000000000000000000000000000000000"
      },
      {
        "name": "delay",
        "type": "uint256",
        "value": "1"
      }
    ]
  },
  "confirmationsRequired": 1,
  "confirmations": [
    {
      "owner": "0xDA29BB71669f46F2a779b4b62f03644A84eE3479",
      "submissionDate": "2025-08-28T20:33:00.748517Z",
      "transactionHash": null,
      "signature": "0xad0a7e3977d680879dbcdc1ef7903eaf23b6e6725b9ea7bad093903ec4274bb47670fd6acf872efd001f6457faaefbe576b99dac09f0bb5dcef6bfca922128a61c",
      "signatureType": "EOA"
    }
  ],
  "trusted": true,
  "signatures": null
}