{
  "safe": "0x461854d84Ee845F905e0eCf6C288DDEEb4A9533F",
  "to": "0xC06Fd4F821eaC1fF1ae8067b36342899b57BAa2d",
  "value": "0",
  "data": "0x134008d3000000000000000000000000369e6f597e22eab55ffb173c6d9cd234bd699111000000000000000000000000000000000000000000000000000000000000000000000000000000000000000000000000000000000000000000000000000000a00000000000000000000000000000000000000000000000000000000000000000000000000000000000000000000000000000000000000000000000000000000000000000000000000000000000000000000000000000000000000000000003846a76120200000000000000000000000040a2accbd92bca938b02010e17a5b8929b49130d00000000000000000000000000000000000000000000000000000000000000000000000000000000000000000000000000000000000000000000000000000140000000000000000000000000000000000000000000000000000000000000000100000000000000000000000000000000000000000000000000000000000000000000000000000000000000000000000000000000000000000000000000000000000000000000000000000000000000000000000000000000000000000000000000000000000000000000000000000000000000000000000000000000000000000000000000000000000000000000000000000000000000000000000000000000000000000000000000000000000000000000000000000000000000000000030000000000000000000000000000000000000000000000000000000000000001848d80ff0a000000000000000000000000000000000000000000000000000000000000002000000000000000000000000000000000000000000000000000000000000001320083e9115d334d248ce39a6f36144aeab5b3456e750000000000000000000000000000000000000000000000000000000000000000000000000000000000000000000000000000000000000000000000000000004466eb399f0000000000000000000000003374d2e654ffbfecd35d3f2ac3e915b394dd7e7d00000000000000000000000000000000000000000000000000000000000000010083e9115d334d248ce39a6f36144aeab5b3456e750000000000000000000000000000000000000000000000000000000000000000000000000000000000000000000000000000000000000000000000000000004466eb399f0000000000000000000000000ffc6ac10515ee0f83fee71fcaf5ea580525656300000000000000000000000000000000000000000000000000000000000000000000000000000000000000000000000000000000000000000000000000000000000000000000000000000000000000000000000000000000000000000000000000000000000000000041000000000000000000000000c06fd4f821eac1ff1ae8067b36342899b57baa2d0000000000000000000000000000000000000000000000000000000000000000010000000000000000000000000000000000000000000000000000000000000000000000000000000000000000000000000000000000000000000000",
  "operation": 0,
  "gasToken": "0x0000000000000000000000000000000000000000",
  "safeTxGas": "0",
  "baseGas": "0",
  "gasPrice": "0",
  "refundReceiver": "0x0000000000000000000000000000000000000000",
  "nonce": "14",
  "executionDate": "2025-10-08T21:08:59Z",
  "submissionDate": "2025-10-08T20:51:48.622697Z",
  "modified": "2025-10-08T21:09:05.012035Z",
  "blockNumber": 23535611,
  "transactionHash": "0x31ff5a05618a5453c5f9abc981472b84525d36b9393c65ae7536e60be4e0bf45",
  "safeTxHash": "0x55f79d87fd6e9fb902b04043f194d78c8647e2d776a482e03f3f1f35408546ce",
  "proposer": "0x9229C290F60F303884073F28EB8E81F9B82506d5",
  "proposedByDelegate": null,
  "executor": "0xF2D7291715D222e5C0A1a433BAC7B609A9D32907",
  "isExecuted": true,
  "isSuccessful": true,
  "ethGasPrice": "296065007",
  "maxFeePerGas": "296065007",
  "maxPriorityFeePerGas": "26963520",
  "gasUsed": 164035,
  "fee": "48565023423245",
  "origin": "{}",
  "dataDecoded": {
    "method": "execute",
    "parameters": [
      {
        "name": "target",
        "type": "address",
        "value": "0x369e6F597e22EaB55fFb173C6d9cD234BD699111"
      },
      {
        "name": "value",
        "type": "uint256",
        "value": "0"
      },
      {
        "name": "payload",
        "type": "bytes",
        "value": "0x6a76120200000000000000000000000040a2accbd92bca938b02010e17a5b8929b49130d00000000000000000000000000000000000000000000000000000000000000000000000000000000000000000000000000000000000000000000000000000140000000000000000000000000000000000000000000000000000000000000000100000000000000000000000000000000000000000000000000000000000000000000000000000000000000000000000000000000000000000000000000000000000000000000000000000000000000000000000000000000000000000000000000000000000000000000000000000000000000000000000000000000000000000000000000000000000000000000000000000000000000000000000000000000000000000000000000000000000000000000000000000000000000000000030000000000000000000000000000000000000000000000000000000000000001848d80ff0a000000000000000000000000000000000000000000000000000000000000002000000000000000000000000000000000000000000000000000000000000001320083e9115d334d248ce39a6f36144aeab5b3456e750000000000000000000000000000000000000000000000000000000000000000000000000000000000000000000000000000000000000000000000000000004466eb399f0000000000000000000000003374d2e654ffbfecd35d3f2ac3e915b394dd7e7d00000000000000000000000000000000000000000000000000000000000000010083e9115d334d248ce39a6f36144aeab5b3456e750000000000000000000000000000000000000000000000000000000000000000000000000000000000000000000000000000000000000000000000000000004466eb399f0000000000000000000000000ffc6ac10515ee0f83fee71fcaf5ea580525656300000000000000000000000000000000000000000000000000000000000000000000000000000000000000000000000000000000000000000000000000000000000000000000000000000000000000000000000000000000000000000000000000000000000000000041000000000000000000000000c06fd4f821eac1ff1ae8067b36342899b57baa2d00000000000000000000000000000000000000000000000000000000000000000100000000000000000000000000000000000000000000000000000000000000"
      },
      {
        "name": "predecessor",
        "type": "bytes32",
        "value": "0x0000000000000000000000000000000000000000000000000000000000000000"
      },
      {
        "name": "salt",
        "type": "bytes32",
        "value": "0x0000000000000000000000000000000000000000000000000000000000000000"
      }
    ]
  },
  "confirmationsRequired": 3,
  "confirmations": [
    {
      "owner": "0x9229C290F60F303884073F28EB8E81F9B82506d5",
      "submissionDate": "2025-10-08T20:51:48.661874Z",
      "transactionHash": null,
      "signature": "0xe804cf8f442cb3e16e27150b60b85da138c88a0bf57379c013cdda5f1b60a6d01e1d45e9da266f6b4aae40872cad4f805f6718c5b0524fbcd748ee2c5148eb701b",
      "signatureType": "EOA"
    },
    {
      "owner": "0xc5280E368648b0e192b355c7d8330593bA7af700",
      "submissionDate": "2025-10-08T21:04:56.680264Z",
      "transactionHash": null,
      "signature": "0xbf0c268ec4e34682d3638cbd371dba2e2d06acae9f9f7016733f1945162ae01b177220a8de003b89a14a5fde8a68579da7d5a667a227a388aea44df12e6a7a5d1c",
      "signatureType": "EOA"
    },
    {
      "owner": "0x3e89Ef7435d4A3e0b52b70B1176f849b351953eE",
      "submissionDate": "2025-10-08T21:06:50.392871Z",
      "transactionHash": null,
      "signature": "0x11bb57a65ff27952a0268266a1678948faa58559c8bd04f60ac6039bd14ad0190a09bf58614fb01eec56daa8b994960601a7991ad89fe035f638883dafe51d841c",
      "signatureType": "EOA"
    }
  ],
  "trusted": true,
  "signatures": "0x11bb57a65ff27952a0268266a1678948faa58559c8bd04f60ac6039bd14ad0190a09bf58614fb01eec56daa8b994960601a7991ad89fe035f638883dafe51d841ce804cf8f442cb3e16e27150b60b85da138c88a0bf57379c013cdda5f1b60a6d01e1d45e9da266f6b4aae40872cad4f805f6718c5b0524fbcd748ee2c5148eb701bbf0c268ec4e34682d3638cbd371dba2e2d06acae9f9f7016733f1945162ae01b177220a8de003b89a14a5fde8a68579da7d5a667a227a388aea44df12e6a7a5d1c"
}