{
  "safe": "0xa3053EF25F1F7d9D55a7655372B8a31D0f40eCA9",
  "to": "0x9641d764fc13c8B624c04430C7356C1C7C8102e2",
  "value": "0",
  "data": "0x8d80ff0a000000000000000000000000000000000000000000000000000000000000002000000000000000000000000000000000000000000000000000000000000001920027a84740fdded5b7d66d9bb6e5d1dea6eb0c0129000000000000000000000000000000000000000000000000000000000000000000000000000000000000000000000000000000000000000000000000000000c44f1ef286000000000000000000000000611c5b2fe677a3c09e4d58a1fe40fd6547d5e29e00000000000000000000000000000000000000000000000000000000000000400000000000000000000000000000000000000000000000000000000000000044485cc955000000000000000000000000369e6f597e22eab55ffb173c6d9cd234bd6991110000000000000000000000005050389572f2d220ad927ccbea0d406831012390000000000000000000000000000000000000000000000000000000000027a84740fdded5b7d66d9bb6e5d1dea6eb0c0129000000000000000000000000000000000000000000000000000000000000000000000000000000000000000000000000000000000000000000000000000000248f2839700000000000000000000000008b9566ada63b64d1e1dcf1418b43fd1433b724440000000000000000000000000000",
  "operation": 1,
  "gasToken": "0x0000000000000000000000000000000000000000",
  "safeTxGas": "0",
  "baseGas": "0",
  "gasPrice": "0",
  "refundReceiver": "0x0000000000000000000000000000000000000000",
  "nonce": "6",
  "executionDate": "2026-01-16T20:53:11Z",
  "submissionDate": "2026-01-16T20:29:45.593197Z",
  "modified": "2026-01-16T20:53:11Z",
  "blockNumber": 24249806,
  "transactionHash": "0xc0ffd9d3cdcb9c355194ca06b5f0b4d81d05d5f83b303068e44ecd55eea1fafe",
  "safeTxHash": "0x64243fe8f4188fcb67ea602f570280643b6410eb161887c6b13f11bc24707f4d",
  "proposer": "0xdC541e2B4adD96888b2C79006F49A9748A4f1bDF",
  "proposedByDelegate": null,
  "executor": "0x957236B539bfA49b650B66426BcaFbF477C1c334",
  "isExecuted": true,
  "isSuccessful": true,
  "ethGasPrice": "51610882",
  "maxFeePerGas": "52163404",
  "maxPriorityFeePerGas": "540",
  "gasUsed": 295960,
  "fee": "15274756636720",
  "origin": "{}",
  "dataDecoded": {
    "method": "multiSend",
    "parameters": [
      {
        "name": "transactions",
        "type": "bytes",
        "value": "0x0027a84740fdded5b7d66d9bb6e5d1dea6eb0c0129000000000000000000000000000000000000000000000000000000000000000000000000000000000000000000000000000000000000000000000000000000c44f1ef286000000000000000000000000611c5b2fe677a3c09e4d58a1fe40fd6547d5e29e00000000000000000000000000000000000000000000000000000000000000400000000000000000000000000000000000000000000000000000000000000044485cc955000000000000000000000000369e6f597e22eab55ffb173c6d9cd234bd6991110000000000000000000000005050389572f2d220ad927ccbea0d406831012390000000000000000000000000000000000000000000000000000000000027a84740fdded5b7d66d9bb6e5d1dea6eb0c0129000000000000000000000000000000000000000000000000000000000000000000000000000000000000000000000000000000000000000000000000000000248f2839700000000000000000000000008b9566ada63b64d1e1dcf1418b43fd1433b72444",
        "valueDecoded": [
          {
            "operation": 0,
            "to": "0x27a84740FdDed5B7D66d9bb6E5d1DEA6eb0C0129",
            "value": "0",
            "data": "0x4f1ef286000000000000000000000000611c5b2fe677a3c09e4d58a1fe40fd6547d5e29e00000000000000000000000000000000000000000000000000000000000000400000000000000000000000000000000000000000000000000000000000000044485cc955000000000000000000000000369e6f597e22eab55ffb173c6d9cd234bd6991110000000000000000000000005050389572f2d220ad927ccbea0d40683101239000000000000000000000000000000000000000000000000000000000",
            "dataDecoded": {
              "method": "upgradeToAndCall",
              "parameters": [
                {
                  "name": "newImplementation",
                  "type": "address",
                  "value": "0x611C5b2Fe677a3C09e4D58a1fE40FD6547d5e29E"
                },
                {
                  "name": "data",
                  "type": "bytes",
                  "value": "0x485cc955000000000000000000000000369e6f597e22eab55ffb173c6d9cd234bd6991110000000000000000000000005050389572f2d220ad927ccbea0d406831012390"
                }
              ]
            }
          },
          {
            "operation": 0,
            "to": "0x27a84740FdDed5B7D66d9bb6E5d1DEA6eb0C0129",
            "value": "0",
            "data": "0x8f2839700000000000000000000000008b9566ada63b64d1e1dcf1418b43fd1433b72444",
            "dataDecoded": {
              "method": "changeAdmin",
              "parameters": [
                {
                  "name": "newAdmin",
                  "type": "address",
                  "value": "0x8b9566AdA63B64d1E1dcF1418b43fd1433b72444"
                }
              ]
            }
          }
        ]
      }
    ]
  },
  "confirmationsRequired": 3,
  "confirmations": [
    {
      "owner": "0xdC541e2B4adD96888b2C79006F49A9748A4f1bDF",
      "submissionDate": "2026-01-16T20:29:45.627348Z",
      "transactionHash": null,
      "signature": "0xd20e433bdf4b0b5866f3e3df2e35f6216f5bed2f266fc4eb3cd32fbc20ea715c19db181123d2af8df6fa4cfc19752e991209e4f89410add70d4e2d88fc8469831b",
      "signatureType": "EOA"
    },
    {
      "owner": "0xE31ad7cFD94bD74C40b53160aA0E8A0b6D340830",
      "submissionDate": "2026-01-16T20:50:59.925558Z",
      "transactionHash": null,
      "signature": "0x074e92d468aa595ee6fef76d3e251e414f87722f1d6e58d3995c4b6a359c86194aed5ee4b109b5312217172d7f944d122e593b33ac85fc062561eb0cf80660201b",
      "signatureType": "EOA"
    },
    {
      "owner": "0x957236B539bfA49b650B66426BcaFbF477C1c334",
      "submissionDate": "2026-01-16T20:53:11Z",
      "transactionHash": null,
      "signature": "0x000000000000000000000000957236b539bfa49b650b66426bcafbf477c1c334000000000000000000000000000000000000000000000000000000000000000001",
      "signatureType": "APPROVED_HASH"
    }
  ],
  "trusted": true,
  "signatures": "0x000000000000000000000000957236b539bfa49b650b66426bcafbf477c1c334000000000000000000000000000000000000000000000000000000000000000001d20e433bdf4b0b5866f3e3df2e35f6216f5bed2f266fc4eb3cd32fbc20ea715c19db181123d2af8df6fa4cfc19752e991209e4f89410add70d4e2d88fc8469831b074e92d468aa595ee6fef76d3e251e414f87722f1d6e58d3995c4b6a359c86194aed5ee4b109b5312217172d7f944d122e593b33ac85fc062561eb0cf80660201b"
}