{
  "safe": "0xBE1685C81aA44FF9FB319dD389addd9374383e90",
  "to": "0xC06Fd4F821eaC1fF1ae8067b36342899b57BAa2d",
  "value": "0",
  "data": "0x01d5062a000000000000000000000000369e6f597e22eab55ffb173c6d9cd234bd699111000000000000000000000000000000000000000000000000000000000000000000000000000000000000000000000000000000000000000000000000000000c00000000000000000000000000000000000000000000000000000000000000000000000000000000000000000000000000000000000000000000000000000000000000000000000000000000000000000000000000000000000000000000d2f0000000000000000000000000000000000000000000000000000000000000005846a76120200000000000000000000000040a2accbd92bca938b02010e17a5b8929b49130d00000000000000000000000000000000000000000000000000000000000000000000000000000000000000000000000000000000000000000000000000000140000000000000000000000000000000000000000000000000000000000000000100000000000000000000000000000000000000000000000000000000000000000000000000000000000000000000000000000000000000000000000000000000000000000000000000000000000000000000000000000000000000000000000000000000000000000000000000000000000000000000000000000000000000000000000000000000000000000000000000000000000000000000000000000000000000000000000000000000000000000000000000000000000000000000050000000000000000000000000000000000000000000000000000000000000003848d80ff0a00000000000000000000000000000000000000000000000000000000000000200000000000000000000000000000000000000000000000000000000000000324008b9566ada63b64d1e1dcf1418b43fd1433b724440000000000000000000000000000000000000000000000000000000000000000000000000000000000000000000000000000000000000000000000000000004499a88ec4000000000000000000000000858646372cc42e1a627fce94aa7a7033e7cf075a000000000000000000000000a7536c85898dc424c6bfe8592f983661f830656a008b9566ada63b64d1e1dcf1418b43fd1433b724440000000000000000000000000000000000000000000000000000000000000000000000000000000000000000000000000000000000000000000000000000004499a88ec40000000000000000000000005e4c39ad7a3e881585e383db9827eb4811f6f647000000000000000000000000bbc4124c74c567396181fbfbae746b80619d2b76000fce0a591d96bb76883323ef555867111e2050a9000000000000000000000000000000000000000000000000000000000000000000000000000000000000000000000000000000000000000000000000000000243659cfe6000000000000000000000000c946787cfd6c155886c673bf9815c841c17189030027a84740fdded5b7d66d9bb6e5d1dea6eb0c012900000000000000000000000000000000000000000000000000000000000000000000000000000000000000000000000000000000000000000000000000000124fc434a8a000000000000000000000000000000000000000000000000000000000000008000000000000000000000000000000000000000000000000000000000000000a000000000000000000000000000000000000000000000000000000000000000c000000000000000000000000000000000000000000000000000000000000000e00000000000000000000000000000000000000000000000000000000000000000000000000000000000000000000000000000000000000000000000000000000000000000000000000000000000000000000000000000000000000000000000000000000000000000000000000000000000000000000000000000000000000006312e31332e30000000000000000000000000000000000000000000000000000000000000000000000000000000000000000000000000000000000000000000000000000000000000000000000000000000000000000000000000000000000000000000000000000000000000000000000000000000000041000000000000000000000000c06fd4f821eac1ff1ae8067b36342899b57baa2d0000000000000000000000000000000000000000000000000000000000000000010000000000000000000000000000000000000000000000000000000000000000000000000000000000000000000000000000000000000000000000",
  "operation": 0,
  "gasToken": "0x0000000000000000000000000000000000000000",
  "safeTxGas": "0",
  "baseGas": "0",
  "gasPrice": "0",
  "refundReceiver": "0x0000000000000000000000000000000000000000",
  "nonce": "83",
  "executionDate": "2026-06-05T20:20:11Z",
  "submissionDate": "2026-06-05T20:02:13.810310Z",
  "modified": "2026-06-05T20:20:18.487235Z",
  "blockNumber": 25253525,
  "transactionHash": "0xe8c10584d51a6bc4b346fd6f91d813f592944eb8b49977b26b2898acfad2f862",
  "safeTxHash": "0xfe1174ec3bfe82bc44580f4a66aecf963a1d2c19c2d9701cc56454c66b63cf2a",
  "proposer": "0x9B0098A38548b8B71473B0123A38B90bd882d49E",
  "proposedByDelegate": null,
  "executor": "0xf26dA751ede765864CA92D8aE7522edD21aF0523",
  "isExecuted": true,
  "isSuccessful": true,
  "ethGasPrice": "1179958816",
  "maxFeePerGas": "1179958816",
  "maxPriorityFeePerGas": "110000000",
  "gasUsed": 121457,
  "fee": "143314257914912",
  "payment": "0",
  "origin": "{}",
  "dataDecoded": {
    "method": "schedule",
    "parameters": [
      {
        "name": "target",
        "type": "address",
        "value": "0x369e6F597e22EaB55fFb173C6d9cD234BD699111"
      },
      {
        "name": "value",
        "type": "uint256",
        "value": "0"
      },
      {
        "name": "data",
        "type": "bytes",
        "value": "0x6a76120200000000000000000000000040a2accbd92bca938b02010e17a5b8929b49130d00000000000000000000000000000000000000000000000000000000000000000000000000000000000000000000000000000000000000000000000000000140000000000000000000000000000000000000000000000000000000000000000100000000000000000000000000000000000000000000000000000000000000000000000000000000000000000000000000000000000000000000000000000000000000000000000000000000000000000000000000000000000000000000000000000000000000000000000000000000000000000000000000000000000000000000000000000000000000000000000000000000000000000000000000000000000000000000000000000000000000000000000000000000000000000000050000000000000000000000000000000000000000000000000000000000000003848d80ff0a00000000000000000000000000000000000000000000000000000000000000200000000000000000000000000000000000000000000000000000000000000324008b9566ada63b64d1e1dcf1418b43fd1433b724440000000000000000000000000000000000000000000000000000000000000000000000000000000000000000000000000000000000000000000000000000004499a88ec4000000000000000000000000858646372cc42e1a627fce94aa7a7033e7cf075a000000000000000000000000a7536c85898dc424c6bfe8592f983661f830656a008b9566ada63b64d1e1dcf1418b43fd1433b724440000000000000000000000000000000000000000000000000000000000000000000000000000000000000000000000000000000000000000000000000000004499a88ec40000000000000000000000005e4c39ad7a3e881585e383db9827eb4811f6f647000000000000000000000000bbc4124c74c567396181fbfbae746b80619d2b76000fce0a591d96bb76883323ef555867111e2050a9000000000000000000000000000000000000000000000000000000000000000000000000000000000000000000000000000000000000000000000000000000243659cfe6000000000000000000000000c946787cfd6c155886c673bf9815c841c17189030027a84740fdded5b7d66d9bb6e5d1dea6eb0c012900000000000000000000000000000000000000000000000000000000000000000000000000000000000000000000000000000000000000000000000000000124fc434a8a000000000000000000000000000000000000000000000000000000000000008000000000000000000000000000000000000000000000000000000000000000a000000000000000000000000000000000000000000000000000000000000000c000000000000000000000000000000000000000000000000000000000000000e00000000000000000000000000000000000000000000000000000000000000000000000000000000000000000000000000000000000000000000000000000000000000000000000000000000000000000000000000000000000000000000000000000000000000000000000000000000000000000000000000000000000000006312e31332e30000000000000000000000000000000000000000000000000000000000000000000000000000000000000000000000000000000000000000000000000000000000000000000000000000000000000000000000000000000000000000000000000000000000000000000000000000000000041000000000000000000000000c06fd4f821eac1ff1ae8067b36342899b57baa2d00000000000000000000000000000000000000000000000000000000000000000100000000000000000000000000000000000000000000000000000000000000"
      },
      {
        "name": "predecessor",
        "type": "bytes32",
        "value": "0x0000000000000000000000000000000000000000000000000000000000000000"
      },
      {
        "name": "salt",
        "type": "bytes32",
        "value": "0x0000000000000000000000000000000000000000000000000000000000000000"
      },
      {
        "name": "delay",
        "type": "uint256",
        "value": "864000"
      }
    ]
  },
  "confirmationsRequired": 3,
  "confirmations": [
    {
      "owner": "0x9B0098A38548b8B71473B0123A38B90bd882d49E",
      "submissionDate": "2026-06-05T20:02:13.844508Z",
      "transactionHash": null,
      "signature": "0xd5d66f45f77b9220fd78550ffb4117afdfef04986e658d177f3e81297ca036bd6b0c9590ff62927f3210bde2126f3ba1c64f68a9c9388153537bf76ce894616a1c",
      "signatureType": "EOA"
    },
    {
      "owner": "0xE31ad7cFD94bD74C40b53160aA0E8A0b6D340830",
      "submissionDate": "2026-06-05T20:09:57.844111Z",
      "transactionHash": null,
      "signature": "0xd2e73016dc945c6e06ebadf2efefcf135602e1f49b9647c43549f658ed5831370d0851625b5d134971689b3581f123cb8308044f513ddb0335f1a13556f5e9c21c",
      "signatureType": "EOA"
    },
    {
      "owner": "0xf26dA751ede765864CA92D8aE7522edD21aF0523",
      "submissionDate": "2026-06-05T20:18:46.483842Z",
      "transactionHash": null,
      "signature": "0x06542486e4bcd8172759a7aa59af5add8abdf87bfc83e1f6faa86c39d08fb8eb38c33c27d436adcef3c39a396ad5d51c0c38ca09edc9657e6ebe583442bd176a1c",
      "signatureType": "EOA"
    }
  ],
  "trusted": true,
  "signatures": "0xd5d66f45f77b9220fd78550ffb4117afdfef04986e658d177f3e81297ca036bd6b0c9590ff62927f3210bde2126f3ba1c64f68a9c9388153537bf76ce894616a1cd2e73016dc945c6e06ebadf2efefcf135602e1f49b9647c43549f658ed5831370d0851625b5d134971689b3581f123cb8308044f513ddb0335f1a13556f5e9c21c06542486e4bcd8172759a7aa59af5add8abdf87bfc83e1f6faa86c39d08fb8eb38c33c27d436adcef3c39a396ad5d51c0c38ca09edc9657e6ebe583442bd176a1c"
}