{
  "safe": "0xBE1685C81aA44FF9FB319dD389addd9374383e90",
  "to": "0xC06Fd4F821eaC1fF1ae8067b36342899b57BAa2d",
  "value": "0",
  "data": "0x01d5062a000000000000000000000000369e6f597e22eab55ffb173c6d9cd234bd699111000000000000000000000000000000000000000000000000000000000000000000000000000000000000000000000000000000000000000000000000000000c00000000000000000000000000000000000000000000000000000000000000000000000000000000000000000000000000000000000000000000000000000000000000000000000000000000000000000000000000000000000000000000d2f000000000000000000000000000000000000000000000000000000000000000d046a76120200000000000000000000000040a2accbd92bca938b02010e17a5b8929b49130d000000000000000000000000000000000000000000000000000000000000000000000000000000000000000000000000000000000000000000000000000001400000000000000000000000000000000000000000000000000000000000000001000000000000000000000000000000000000000000000000000000000000000000000000000000000000000000000000000000000000000000000000000000000000000000000000000000000000000000000000000000000000000000000000000000000000000000000000000000000000000000000000000000000000000000000000000000000000000000000000000000000000000000000000000000000000000000000000000000000000000000000000000000000000000000000c800000000000000000000000000000000000000000000000000000000000000b048d80ff0a00000000000000000000000000000000000000000000000000000000000000200000000000000000000000000000000000000000000000000000000000000aa2008b9566ada63b64d1e1dcf1418b43fd1433b724440000000000000000000000000000000000000000000000000000000000000000000000000000000000000000000000000000000000000000000000000000004499a88ec400000000000000000000000039053d51b77dc0d36036fc1fcc8cb819df8ef37a0000000000000000000000006eed6c2802df347e05884857cddb2d3e96d12f89008b9566ada63b64d1e1dcf1418b43fd1433b724440000000000000000000000000000000000000000000000000000000000000000000000000000000000000000000000000000000000000000000000000000004499a88ec4000000000000000000000000948a420b8cc1d6bfd0b6087c2e7c344a2cd0bc39000000000000000000000000c97602648fa52f92b4ee2b0e5a54bd15b6cb0345008b9566ada63b64d1e1dcf1418b43fd1433b724440000000000000000000000000000000000000000000000000000000000000000000000000000000000000000000000000000000000000000000000000000004499a88ec4000000000000000000000000858646372cc42e1a627fce94aa7a7033e7cf075a00000000000000000000000046aefd30415be99e20169ee7046f65784b46d123008b9566ada63b64d1e1dcf1418b43fd1433b724440000000000000000000000000000000000000000000000000000000000000000000000000000000000000000000000000000000000000000000000000000004499a88ec400000000000000000000000091e677b07f7af907ec9a428aafa9fc14a0d3a338000000000000000000000000e48d7caec1790b293667e4bb2de1e00536f2babd008b9566ada63b64d1e1dcf1418b43fd1433b724440000000000000000000000000000000000000000000000000000000000000000000000000000000000000000000000000000000000000000000000000000004499a88ec4000000000000000000000000acb55c530acdb2849e6d4f36992cd8c9d50ed8f7000000000000000000000000530fdb7adf7d489df49c27e3d3512c0dd64886be000ed6703c298d28ae0878d1b28e88ca87f9662fe9000000000000000000000000000000000000000000000000000000000000000000000000000000000000000000000000000000000000000000000000000000243659cfe6000000000000000000000000d4d1746142642db4c1ab17b03b9c58baac913e5b008b9566ada63b64d1e1dcf1418b43fd1433b724440000000000000000000000000000000000000000000000000000000000000000000000000000000000000000000000000000000000000000000000000000004499a88ec400000000000000000000000093c4b944d05dfe6df7645a86cd2206016c51564d00000000000000000000000062f7226fb9d615590eadb539713b250fb2fdf4e0008b9566ada63b64d1e1dcf1418b43fd1433b724440000000000000000000000000000000000000000000000000000000000000000000000000000000000000000000000000000000000000000000000000000004499a88ec40000000000000000000000001bee69b7dfffa4e2d53c2a2df135c388ad25dcd200000000000000000000000062f7226fb9d615590eadb539713b250fb2fdf4e0008b9566ada63b64d1e1dcf1418b43fd1433b724440000000000000000000000000000000000000000000000000000000000000000000000000000000000000000000000000000000000000000000000000000004499a88ec400000000000000000000000054945180db7943c0ed0fee7edab2bd24620256bc00000000000000000000000062f7226fb9d615590eadb539713b250fb2fdf4e0008b9566ada63b64d1e1dcf1418b43fd1433b724440000000000000000000000000000000000000000000000000000000000000000000000000000000000000000000000000000000000000000000000000000004499a88ec40000000000000000000000009d7ed45ee2e8fc5482fa2428f15c971e6369011d00000000000000000000000062f7226fb9d615590eadb539713b250fb2fdf4e0008b9566ada63b64d1e1dcf1418b43fd1433b724440000000000000000000000000000000000000000000000000000000000000000000000000000000000000000000000000000000000000000000000000000004499a88ec400000000000000000000000013760f50a9d7377e4f20cb8cf9e4c26586c658ff00000000000000000000000062f7226fb9d615590eadb539713b250fb2fdf4e0008b9566ada63b64d1e1dcf1418b43fd1433b724440000000000000000000000000000000000000000000000000000000000000000000000000000000000000000000000000000000000000000000000000000004499a88ec4000000000000000000000000a4c637e0f704745d182e4d38cab7e7485321d05900000000000000000000000062f7226fb9d615590eadb539713b250fb2fdf4e0008b9566ada63b64d1e1dcf1418b43fd1433b724440000000000000000000000000000000000000000000000000000000000000000000000000000000000000000000000000000000000000000000000000000004499a88ec400000000000000000000000057ba429517c3473b6d34ca9acd56c0e735b94c0200000000000000000000000062f7226fb9d615590eadb539713b250fb2fdf4e0008b9566ada63b64d1e1dcf1418b43fd1433b724440000000000000000000000000000000000000000000000000000000000000000000000000000000000000000000000000000000000000000000000000000004499a88ec40000000000000000000000000fe4f44bee93503346a3ac9ee5a26b130a5796d600000000000000000000000062f7226fb9d615590eadb539713b250fb2fdf4e0008b9566ada63b64d1e1dcf1418b43fd1433b724440000000000000000000000000000000000000000000000000000000000000000000000000000000000000000000000000000000000000000000000000000004499a88ec40000000000000000000000007ca911e83dabf90c90dd3de5411a10f1a611218400000000000000000000000062f7226fb9d615590eadb539713b250fb2fdf4e0008b9566ada63b64d1e1dcf1418b43fd1433b724440000000000000000000000000000000000000000000000000000000000000000000000000000000000000000000000000000000000000000000000000000004499a88ec40000000000000000000000008ca7a5d6f3acd3a7a8bc468a8cd0fb14b6bd28b600000000000000000000000062f7226fb9d615590eadb539713b250fb2fdf4e0008b9566ada63b64d1e1dcf1418b43fd1433b724440000000000000000000000000000000000000000000000000000000000000000000000000000000000000000000000000000000000000000000000000000004499a88ec4000000000000000000000000ae60d8180437b5c34bb956822ac271097258447300000000000000000000000062f7226fb9d615590eadb539713b250fb2fdf4e0008b9566ada63b64d1e1dcf1418b43fd1433b724440000000000000000000000000000000000000000000000000000000000000000000000000000000000000000000000000000000000000000000000000000004499a88ec4000000000000000000000000298afb19a105d59e74658c4c334ff360bade6dd200000000000000000000000062f7226fb9d615590eadb539713b250fb2fdf4e0000000000000000000000000000000000000000000000000000000000000000000000000000000000000000000000000000000000000000000000000000000000000000000000000000000000000000000000000000000000041000000000000000000000000c06fd4f821eac1ff1ae8067b36342899b57baa2d0000000000000000000000000000000000000000000000000000000000000000010000000000000000000000000000000000000000000000000000000000000000000000000000000000000000000000000000000000000000000000",
  "operation": 0,
  "gasToken": "0x0000000000000000000000000000000000000000",
  "safeTxGas": 0,
  "baseGas": 0,
  "gasPrice": "0",
  "refundReceiver": "0x0000000000000000000000000000000000000000",
  "nonce": 72,
  "executionDate": "2025-07-10T20:49:59Z",
  "submissionDate": "2025-07-10T20:13:06.979941Z",
  "modified": "2025-07-10T20:49:59Z",
  "blockNumber": 22891273,
  "transactionHash": "0x8e6f1701abc942d468a5cea427ae16069b5ee6341407e2f3ac64e18e01e06756",
  "safeTxHash": "0x47c8593ec41b7fa79964abbba0fbf421b27d8a4a5c0850bdc59c3e143fbbf170",
  "proposer": "0xdC541e2B4adD96888b2C79006F49A9748A4f1bDF",
  "proposedByDelegate": null,
  "executor": "0xE31ad7cFD94bD74C40b53160aA0E8A0b6D340830",
  "isExecuted": true,
  "isSuccessful": true,
  "ethGasPrice": "3726493464",
  "maxFeePerGas": "4644729590",
  "maxPriorityFeePerGas": "938142759",
  "gasUsed": 154417,
  "fee": "575433941230488",
  "origin": "{}",
  "dataDecoded": {
    "method": "schedule",
    "parameters": [
      {
        "name": "target",
        "type": "address",
        "value": "0x369e6F597e22EaB55fFb173C6d9cD234BD699111"
      },
      {
        "name": "value",
        "type": "uint256",
        "value": "0"
      },
      {
        "name": "data",
        "type": "bytes",
        "value": "0x6a76120200000000000000000000000040a2accbd92bca938b02010e17a5b8929b49130d000000000000000000000000000000000000000000000000000000000000000000000000000000000000000000000000000000000000000000000000000001400000000000000000000000000000000000000000000000000000000000000001000000000000000000000000000000000000000000000000000000000000000000000000000000000000000000000000000000000000000000000000000000000000000000000000000000000000000000000000000000000000000000000000000000000000000000000000000000000000000000000000000000000000000000000000000000000000000000000000000000000000000000000000000000000000000000000000000000000000000000000000000000000000000000000c800000000000000000000000000000000000000000000000000000000000000b048d80ff0a00000000000000000000000000000000000000000000000000000000000000200000000000000000000000000000000000000000000000000000000000000aa2008b9566ada63b64d1e1dcf1418b43fd1433b724440000000000000000000000000000000000000000000000000000000000000000000000000000000000000000000000000000000000000000000000000000004499a88ec400000000000000000000000039053d51b77dc0d36036fc1fcc8cb819df8ef37a0000000000000000000000006eed6c2802df347e05884857cddb2d3e96d12f89008b9566ada63b64d1e1dcf1418b43fd1433b724440000000000000000000000000000000000000000000000000000000000000000000000000000000000000000000000000000000000000000000000000000004499a88ec4000000000000000000000000948a420b8cc1d6bfd0b6087c2e7c344a2cd0bc39000000000000000000000000c97602648fa52f92b4ee2b0e5a54bd15b6cb0345008b9566ada63b64d1e1dcf1418b43fd1433b724440000000000000000000000000000000000000000000000000000000000000000000000000000000000000000000000000000000000000000000000000000004499a88ec4000000000000000000000000858646372cc42e1a627fce94aa7a7033e7cf075a00000000000000000000000046aefd30415be99e20169ee7046f65784b46d123008b9566ada63b64d1e1dcf1418b43fd1433b724440000000000000000000000000000000000000000000000000000000000000000000000000000000000000000000000000000000000000000000000000000004499a88ec400000000000000000000000091e677b07f7af907ec9a428aafa9fc14a0d3a338000000000000000000000000e48d7caec1790b293667e4bb2de1e00536f2babd008b9566ada63b64d1e1dcf1418b43fd1433b724440000000000000000000000000000000000000000000000000000000000000000000000000000000000000000000000000000000000000000000000000000004499a88ec4000000000000000000000000acb55c530acdb2849e6d4f36992cd8c9d50ed8f7000000000000000000000000530fdb7adf7d489df49c27e3d3512c0dd64886be000ed6703c298d28ae0878d1b28e88ca87f9662fe9000000000000000000000000000000000000000000000000000000000000000000000000000000000000000000000000000000000000000000000000000000243659cfe6000000000000000000000000d4d1746142642db4c1ab17b03b9c58baac913e5b008b9566ada63b64d1e1dcf1418b43fd1433b724440000000000000000000000000000000000000000000000000000000000000000000000000000000000000000000000000000000000000000000000000000004499a88ec400000000000000000000000093c4b944d05dfe6df7645a86cd2206016c51564d00000000000000000000000062f7226fb9d615590eadb539713b250fb2fdf4e0008b9566ada63b64d1e1dcf1418b43fd1433b724440000000000000000000000000000000000000000000000000000000000000000000000000000000000000000000000000000000000000000000000000000004499a88ec40000000000000000000000001bee69b7dfffa4e2d53c2a2df135c388ad25dcd200000000000000000000000062f7226fb9d615590eadb539713b250fb2fdf4e0008b9566ada63b64d1e1dcf1418b43fd1433b724440000000000000000000000000000000000000000000000000000000000000000000000000000000000000000000000000000000000000000000000000000004499a88ec400000000000000000000000054945180db7943c0ed0fee7edab2bd24620256bc00000000000000000000000062f7226fb9d615590eadb539713b250fb2fdf4e0008b9566ada63b64d1e1dcf1418b43fd1433b724440000000000000000000000000000000000000000000000000000000000000000000000000000000000000000000000000000000000000000000000000000004499a88ec40000000000000000000000009d7ed45ee2e8fc5482fa2428f15c971e6369011d00000000000000000000000062f7226fb9d615590eadb539713b250fb2fdf4e0008b9566ada63b64d1e1dcf1418b43fd1433b724440000000000000000000000000000000000000000000000000000000000000000000000000000000000000000000000000000000000000000000000000000004499a88ec400000000000000000000000013760f50a9d7377e4f20cb8cf9e4c26586c658ff00000000000000000000000062f7226fb9d615590eadb539713b250fb2fdf4e0008b9566ada63b64d1e1dcf1418b43fd1433b724440000000000000000000000000000000000000000000000000000000000000000000000000000000000000000000000000000000000000000000000000000004499a88ec4000000000000000000000000a4c637e0f704745d182e4d38cab7e7485321d05900000000000000000000000062f7226fb9d615590eadb539713b250fb2fdf4e0008b9566ada63b64d1e1dcf1418b43fd1433b724440000000000000000000000000000000000000000000000000000000000000000000000000000000000000000000000000000000000000000000000000000004499a88ec400000000000000000000000057ba429517c3473b6d34ca9acd56c0e735b94c0200000000000000000000000062f7226fb9d615590eadb539713b250fb2fdf4e0008b9566ada63b64d1e1dcf1418b43fd1433b724440000000000000000000000000000000000000000000000000000000000000000000000000000000000000000000000000000000000000000000000000000004499a88ec40000000000000000000000000fe4f44bee93503346a3ac9ee5a26b130a5796d600000000000000000000000062f7226fb9d615590eadb539713b250fb2fdf4e0008b9566ada63b64d1e1dcf1418b43fd1433b724440000000000000000000000000000000000000000000000000000000000000000000000000000000000000000000000000000000000000000000000000000004499a88ec40000000000000000000000007ca911e83dabf90c90dd3de5411a10f1a611218400000000000000000000000062f7226fb9d615590eadb539713b250fb2fdf4e0008b9566ada63b64d1e1dcf1418b43fd1433b724440000000000000000000000000000000000000000000000000000000000000000000000000000000000000000000000000000000000000000000000000000004499a88ec40000000000000000000000008ca7a5d6f3acd3a7a8bc468a8cd0fb14b6bd28b600000000000000000000000062f7226fb9d615590eadb539713b250fb2fdf4e0008b9566ada63b64d1e1dcf1418b43fd1433b724440000000000000000000000000000000000000000000000000000000000000000000000000000000000000000000000000000000000000000000000000000004499a88ec4000000000000000000000000ae60d8180437b5c34bb956822ac271097258447300000000000000000000000062f7226fb9d615590eadb539713b250fb2fdf4e0008b9566ada63b64d1e1dcf1418b43fd1433b724440000000000000000000000000000000000000000000000000000000000000000000000000000000000000000000000000000000000000000000000000000004499a88ec4000000000000000000000000298afb19a105d59e74658c4c334ff360bade6dd200000000000000000000000062f7226fb9d615590eadb539713b250fb2fdf4e0000000000000000000000000000000000000000000000000000000000000000000000000000000000000000000000000000000000000000000000000000000000000000000000000000000000000000000000000000000000041000000000000000000000000c06fd4f821eac1ff1ae8067b36342899b57baa2d00000000000000000000000000000000000000000000000000000000000000000100000000000000000000000000000000000000000000000000000000000000"
      },
      {
        "name": "predecessor",
        "type": "bytes32",
        "value": "0x0000000000000000000000000000000000000000000000000000000000000000"
      },
      {
        "name": "salt",
        "type": "bytes32",
        "value": "0x0000000000000000000000000000000000000000000000000000000000000000"
      },
      {
        "name": "delay",
        "type": "uint256",
        "value": "864000"
      }
    ]
  },
  "confirmationsRequired": 3,
  "confirmations": [
    {
      "owner": "0xdC541e2B4adD96888b2C79006F49A9748A4f1bDF",
      "submissionDate": "2025-07-10T20:13:07.554057Z",
      "transactionHash": null,
      "signature": "0x5742f082349d14b95370052049df9eeb66ea4b2800997861a11d6c129d4dbdf971d274f313d02a097d96b65829cae892b514cd49cf8798672c6b049a76716bc61c",
      "signatureType": "EOA"
    },
    {
      "owner": "0xb7Ae34BB33da55f12797e793E01e63a17B11d108",
      "submissionDate": "2025-07-10T20:35:09.141793Z",
      "transactionHash": null,
      "signature": "0xbb49554b2a3b939cbafdd44d3c7b917c194e00ad787577d9d7a2200101e85c725db510701d317d1e0c9777e07274cadb70599085e5ac8067f0dfec96b77c6a611b",
      "signatureType": "EOA"
    },
    {
      "owner": "0xE31ad7cFD94bD74C40b53160aA0E8A0b6D340830",
      "submissionDate": "2025-07-10T20:49:59Z",
      "transactionHash": null,
      "signature": "0x000000000000000000000000e31ad7cfd94bd74c40b53160aa0e8a0b6d340830000000000000000000000000000000000000000000000000000000000000000001",
      "signatureType": "APPROVED_HASH"
    }
  ],
  "trusted": true,
  "signatures": "0xbb49554b2a3b939cbafdd44d3c7b917c194e00ad787577d9d7a2200101e85c725db510701d317d1e0c9777e07274cadb70599085e5ac8067f0dfec96b77c6a611b5742f082349d14b95370052049df9eeb66ea4b2800997861a11d6c129d4dbdf971d274f313d02a097d96b65829cae892b514cd49cf8798672c6b049a76716bc61c000000000000000000000000e31ad7cfd94bd74c40b53160aa0e8a0b6d340830000000000000000000000000000000000000000000000000000000000000000001"
}