{
  "safe": "0x6d609cD2812bDA02a75dcABa7DaafE4B20Ff5608",
  "to": "0x7c66A1e862E11C4887270aBd649157ACe837A2D0",
  "value": "0",
  "data": "0x01d5062a00000000000000000000000084e5e0d6f6c3153057bd5d661be1ff1766ceac08000000000000000000000000000000000000000000000000000000000000000000000000000000000000000000000000000000000000000000000000000000c000000000000000000000000000000000000000000000000000000000000000000000000000000000000000000000000000000000000000000000000000000000000000000000000000000000000000000000000000000000000000000000000100000000000000000000000000000000000000000000000000000000000003646a76120200000000000000000000000040a2accbd92bca938b02010e17a5b8929b49130d0000000000000000000000000000000000000000000000000000000000000000000000000000000000000000000000000000000000000000000000000000014000000000000000000000000000000000000000000000000000000000000000010000000000000000000000000000000000000000000000000000000000000000000000000000000000000000000000000000000000000000000000000000000000000000000000000000000000000000000000000000000000000000000000000000000000000000000000000000000000000000000000000000000000000000000000000000000000000000000000000000000000000000000000000000000000000000000000000000000000000000000000000000000000000000000002e000000000000000000000000000000000000000000000000000000000000001648d80ff0a000000000000000000000000000000000000000000000000000000000000002000000000000000000000000000000000000000000000000000000000000001120092cc4a800a1513e85c481dddf3a06c6921211eac000000000000000000000000000000000000000000000000000000000000000000000000000000000000000000000000000000000000000000000000000000243659cfe600000000000000000000000088771255b311340f2fe8e1b5b1f6d4ac58505e84001bef05c7303d44e0e2fcd2a19d993eded4c51b5b0000000000000000000000000000000000000000000000000000000000000000000000000000000000000000000000000000000000000000000000000000004499a88ec4000000000000000000000000d58f6844f79eb1fbd9f7091d05f7cb30d3363926000000000000000000000000aab4dbcf404a768187342b1566464a4a7ce584cd00000000000000000000000000000000000000000000000000000000000000000000000000000000000000000000000000000000000000000000000000000000000000000000000000410000000000000000000000007c66a1e862e11c4887270abd649157ace837a2d00000000000000000000000000000000000000000000000000000000000000000010000000000000000000000000000000000000000000000000000000000000000000000000000000000000000000000000000000000000000000000",
  "operation": 0,
  "gasToken": "0x0000000000000000000000000000000000000000",
  "safeTxGas": 0,
  "baseGas": 0,
  "gasPrice": "0",
  "refundReceiver": "0x0000000000000000000000000000000000000000",
  "nonce": 25,
  "executionDate": null,
  "submissionDate": "2025-06-05T20:37:48.616831Z",
  "modified": "2025-06-05T20:37:48.766187Z",
  "blockNumber": null,
  "transactionHash": null,
  "safeTxHash": "0x048e6f19f64c673900fbbd3fd8e782e8da49e95d3bbab966d34e1e0c87505c80",
  "proposer": "0xDA29BB71669f46F2a779b4b62f03644A84eE3479",
  "proposedByDelegate": null,
  "executor": null,
  "isExecuted": false,
  "isSuccessful": null,
  "ethGasPrice": null,
  "maxFeePerGas": null,
  "maxPriorityFeePerGas": null,
  "gasUsed": null,
  "fee": null,
  "origin": "{}",
  "dataDecoded": {
    "method": "schedule",
    "parameters": [
      {
        "name": "target",
        "type": "address",
        "value": "0x84E5e0D6f6c3153057bd5d661Be1ff1766cEac08"
      },
      {
        "name": "value",
        "type": "uint256",
        "value": "0"
      },
      {
        "name": "data",
        "type": "bytes",
        "value": "0x6a76120200000000000000000000000040a2accbd92bca938b02010e17a5b8929b49130d0000000000000000000000000000000000000000000000000000000000000000000000000000000000000000000000000000000000000000000000000000014000000000000000000000000000000000000000000000000000000000000000010000000000000000000000000000000000000000000000000000000000000000000000000000000000000000000000000000000000000000000000000000000000000000000000000000000000000000000000000000000000000000000000000000000000000000000000000000000000000000000000000000000000000000000000000000000000000000000000000000000000000000000000000000000000000000000000000000000000000000000000000000000000000000000002e000000000000000000000000000000000000000000000000000000000000001648d80ff0a000000000000000000000000000000000000000000000000000000000000002000000000000000000000000000000000000000000000000000000000000001120092cc4a800a1513e85c481dddf3a06c6921211eac000000000000000000000000000000000000000000000000000000000000000000000000000000000000000000000000000000000000000000000000000000243659cfe600000000000000000000000088771255b311340f2fe8e1b5b1f6d4ac58505e84001bef05c7303d44e0e2fcd2a19d993eded4c51b5b0000000000000000000000000000000000000000000000000000000000000000000000000000000000000000000000000000000000000000000000000000004499a88ec4000000000000000000000000d58f6844f79eb1fbd9f7091d05f7cb30d3363926000000000000000000000000aab4dbcf404a768187342b1566464a4a7ce584cd00000000000000000000000000000000000000000000000000000000000000000000000000000000000000000000000000000000000000000000000000000000000000000000000000410000000000000000000000007c66a1e862e11c4887270abd649157ace837a2d000000000000000000000000000000000000000000000000000000000000000000100000000000000000000000000000000000000000000000000000000000000"
      },
      {
        "name": "predecessor",
        "type": "bytes32",
        "value": "0x0000000000000000000000000000000000000000000000000000000000000000"
      },
      {
        "name": "salt",
        "type": "bytes32",
        "value": "0x0000000000000000000000000000000000000000000000000000000000000000"
      },
      {
        "name": "delay",
        "type": "uint256",
        "value": "1"
      }
    ]
  },
  "confirmationsRequired": 1,
  "confirmations": [
    {
      "owner": "0xDA29BB71669f46F2a779b4b62f03644A84eE3479",
      "submissionDate": "2025-06-05T20:37:48.766187Z",
      "transactionHash": null,
      "signature": "0xd2c7a4e8a7f6a564cc3ca89fafeffd15bca36a549bd17ff178e9dfd655452892441d7eaed0c957061e87e2ede0818a283050f5de2edaa81acdaa6f4572ec10ef1c",
      "signatureType": "EOA"
    }
  ],
  "trusted": true,
  "signatures": null
}