{
  "safe": "0xBE1685C81aA44FF9FB319dD389addd9374383e90",
  "to": "0xC06Fd4F821eaC1fF1ae8067b36342899b57BAa2d",
  "value": "0",
  "data": "0x01d5062a000000000000000000000000369e6f597e22eab55ffb173c6d9cd234bd699111000000000000000000000000000000000000000000000000000000000000000000000000000000000000000000000000000000000000000000000000000000c00000000000000000000000000000000000000000000000000000000000000000000000000000000000000000000000000000000000000000000000000000000000000000000000000000000000000000000000000000000000000000000d2f0000000000000000000000000000000000000000000000000000000000000003846a76120200000000000000000000000040a2accbd92bca938b02010e17a5b8929b49130d00000000000000000000000000000000000000000000000000000000000000000000000000000000000000000000000000000000000000000000000000000140000000000000000000000000000000000000000000000000000000000000000100000000000000000000000000000000000000000000000000000000000000000000000000000000000000000000000000000000000000000000000000000000000000000000000000000000000000000000000000000000000000000000000000000000000000000000000000000000000000000000000000000000000000000000000000000000000000000000000000000000000000000000000000000000000000000000000000000000000000000000000000000000000000000000030000000000000000000000000000000000000000000000000000000000000001848d80ff0a000000000000000000000000000000000000000000000000000000000000002000000000000000000000000000000000000000000000000000000000000001320083e9115d334d248ce39a6f36144aeab5b3456e750000000000000000000000000000000000000000000000000000000000000000000000000000000000000000000000000000000000000000000000000000004466eb399f0000000000000000000000003374d2e654ffbfecd35d3f2ac3e915b394dd7e7d00000000000000000000000000000000000000000000000000000000000000010083e9115d334d248ce39a6f36144aeab5b3456e750000000000000000000000000000000000000000000000000000000000000000000000000000000000000000000000000000000000000000000000000000004466eb399f0000000000000000000000000ffc6ac10515ee0f83fee71fcaf5ea580525656300000000000000000000000000000000000000000000000000000000000000000000000000000000000000000000000000000000000000000000000000000000000000000000000000000000000000000000000000000000000000000000000000000000000000000041000000000000000000000000c06fd4f821eac1ff1ae8067b36342899b57baa2d0000000000000000000000000000000000000000000000000000000000000000010000000000000000000000000000000000000000000000000000000000000000000000000000000000000000000000000000000000000000000000",
  "operation": 0,
  "gasToken": "0x0000000000000000000000000000000000000000",
  "safeTxGas": 0,
  "baseGas": 0,
  "gasPrice": "0",
  "refundReceiver": "0x0000000000000000000000000000000000000000",
  "nonce": 76,
  "executionDate": "2025-09-26T16:24:47Z",
  "submissionDate": "2025-09-26T15:36:18.302726Z",
  "modified": "2025-09-26T16:24:47Z",
  "blockNumber": 23448362,
  "transactionHash": "0x07ae59cf737d137cb790e178f65443cfe425ad2a0a3cea5ca3f27aa49bf5b857",
  "safeTxHash": "0xca92abe447baeb7d67734540b5af04d05f2b0f095555d46aa5901ab18aabf6cc",
  "proposer": "0xdC541e2B4adD96888b2C79006F49A9748A4f1bDF",
  "proposedByDelegate": null,
  "executor": "0xE31ad7cFD94bD74C40b53160aA0E8A0b6D340830",
  "isExecuted": true,
  "isSuccessful": true,
  "ethGasPrice": "1424702002",
  "maxFeePerGas": "1559041373",
  "maxPriorityFeePerGas": "200000000",
  "gasUsed": 109410,
  "fee": "155876646038820",
  "origin": "{}",
  "dataDecoded": {
    "method": "schedule",
    "parameters": [
      {
        "name": "target",
        "type": "address",
        "value": "0x369e6F597e22EaB55fFb173C6d9cD234BD699111"
      },
      {
        "name": "value",
        "type": "uint256",
        "value": "0"
      },
      {
        "name": "data",
        "type": "bytes",
        "value": "0x6a76120200000000000000000000000040a2accbd92bca938b02010e17a5b8929b49130d00000000000000000000000000000000000000000000000000000000000000000000000000000000000000000000000000000000000000000000000000000140000000000000000000000000000000000000000000000000000000000000000100000000000000000000000000000000000000000000000000000000000000000000000000000000000000000000000000000000000000000000000000000000000000000000000000000000000000000000000000000000000000000000000000000000000000000000000000000000000000000000000000000000000000000000000000000000000000000000000000000000000000000000000000000000000000000000000000000000000000000000000000000000000000000000030000000000000000000000000000000000000000000000000000000000000001848d80ff0a000000000000000000000000000000000000000000000000000000000000002000000000000000000000000000000000000000000000000000000000000001320083e9115d334d248ce39a6f36144aeab5b3456e750000000000000000000000000000000000000000000000000000000000000000000000000000000000000000000000000000000000000000000000000000004466eb399f0000000000000000000000003374d2e654ffbfecd35d3f2ac3e915b394dd7e7d00000000000000000000000000000000000000000000000000000000000000010083e9115d334d248ce39a6f36144aeab5b3456e750000000000000000000000000000000000000000000000000000000000000000000000000000000000000000000000000000000000000000000000000000004466eb399f0000000000000000000000000ffc6ac10515ee0f83fee71fcaf5ea580525656300000000000000000000000000000000000000000000000000000000000000000000000000000000000000000000000000000000000000000000000000000000000000000000000000000000000000000000000000000000000000000000000000000000000000000041000000000000000000000000c06fd4f821eac1ff1ae8067b36342899b57baa2d00000000000000000000000000000000000000000000000000000000000000000100000000000000000000000000000000000000000000000000000000000000"
      },
      {
        "name": "predecessor",
        "type": "bytes32",
        "value": "0x0000000000000000000000000000000000000000000000000000000000000000"
      },
      {
        "name": "salt",
        "type": "bytes32",
        "value": "0x0000000000000000000000000000000000000000000000000000000000000000"
      },
      {
        "name": "delay",
        "type": "uint256",
        "value": "864000"
      }
    ]
  },
  "confirmationsRequired": 3,
  "confirmations": [
    {
      "owner": "0xdC541e2B4adD96888b2C79006F49A9748A4f1bDF",
      "submissionDate": "2025-09-26T15:36:18.490608Z",
      "transactionHash": null,
      "signature": "0x4ed9267d7e492eaa03f0a3249473c9a4e08e776a96077de99669731554cfc1916e77af4e458f8451db7fbe01f7bcafa856371735d82a3572196884f99f2a86221b",
      "signatureType": "EOA"
    },
    {
      "owner": "0x957236B539bfA49b650B66426BcaFbF477C1c334",
      "submissionDate": "2025-09-26T16:05:40.058895Z",
      "transactionHash": null,
      "signature": "0x71875a2acf05ed03a256e46f1c3cf8f1e6bbef661188fb5ebbad01e56cb716c816485ca1103260df6ed084fde0bcd5a6e783d1e0830ac6ff42f2ce55d24b324a1c",
      "signatureType": "EOA"
    },
    {
      "owner": "0xE31ad7cFD94bD74C40b53160aA0E8A0b6D340830",
      "submissionDate": "2025-09-26T16:24:47Z",
      "transactionHash": null,
      "signature": "0x000000000000000000000000e31ad7cfd94bd74c40b53160aa0e8a0b6d340830000000000000000000000000000000000000000000000000000000000000000001",
      "signatureType": "APPROVED_HASH"
    }
  ],
  "trusted": true,
  "signatures": "0x71875a2acf05ed03a256e46f1c3cf8f1e6bbef661188fb5ebbad01e56cb716c816485ca1103260df6ed084fde0bcd5a6e783d1e0830ac6ff42f2ce55d24b324a1c4ed9267d7e492eaa03f0a3249473c9a4e08e776a96077de99669731554cfc1916e77af4e458f8451db7fbe01f7bcafa856371735d82a3572196884f99f2a86221b000000000000000000000000e31ad7cfd94bd74c40b53160aa0e8a0b6d340830000000000000000000000000000000000000000000000000000000000000000001"
}