{
  "safe": "0x841B988aaEafce13b6456ff34015FBc42Aedb7e6",
  "to": "0xE48D7CaeC1790b293667e4bB2dE1E00536F2bABd",
  "value": "0",
  "data": "0x134008d30000000000000000000000005d808608ad70873ca4de50f83416264dc15264c2000000000000000000000000000000000000000000000000000000000000000000000000000000000000000000000000000000000000000000000000000000a0000000000000000000000000000000000000000000000000000000000000000000000000000000000000000000000000000000000000000000000000000000000000000000000000000000000000000000000000000000000000000000000aa46a76120200000000000000000000000040a2accbd92bca938b02010e17a5b8929b49130d000000000000000000000000000000000000000000000000000000000000000000000000000000000000000000000000000000000000000000000000000001400000000000000000000000000000000000000000000000000000000000000001000000000000000000000000000000000000000000000000000000000000000000000000000000000000000000000000000000000000000000000000000000000000000000000000000000000000000000000000000000000000000000000000000000000000000000000000000000000000000000000000000000000000000000000000000000000000000000000000000000000000000000000000000000000000000000000000000000000000000000000000000000000000000000000a2000000000000000000000000000000000000000000000000000000000000008a48d80ff0a0000000000000000000000000000000000000000000000000000000000000020000000000000000000000000000000000000000000000000000000000000085d00db0052e272d1d126617c36a9d6d65c801d1549ce0000000000000000000000000000000000000000000000000000000000000000000000000000000000000000000000000000000000000000000000000000004499a88ec40000000000000000000000003f55654b2b2b86bb11be2f72657f9c33bf88120a000000000000000000000000c6c7a63518d0150d57c6b00cdc7f13eb4b275d7d00db0052e272d1d126617c36a9d6d65c801d1549ce0000000000000000000000000000000000000000000000000000000000000000000000000000000000000000000000000000000000000000000000000000004499a88ec4000000000000000000000000d0930ee96d07de4f9d493c259232222e46b6ec25000000000000000000000000f2cc35a48561c2344577489a0873339f5b7e025f00db0052e272d1d126617c36a9d6d65c801d1549ce0000000000000000000000000000000000000000000000000000000000000000000000000000000000000000000000000000000000000000000000000000004499a88ec40000000000000000000000005557e1fe3068a1e823ce5dcd052c6c352e2617b5000000000000000000000000792ffea0d8734695670697f8b9f03de3f666419d00db0052e272d1d126617c36a9d6d65c801d1549ce0000000000000000000000000000000000000000000000000000000000000000000000000000000000000000000000000000000000000000000000000000004499a88ec4000000000000000000000000132b466d9d5723531f68797519dfed701ac2c7490000000000000000000000006ed28c7dfea8f70a7edec02a1e295da6307fc1bd0027a84740fdded5b7d66d9bb6e5d1dea6eb0c0129000000000000000000000000000000000000000000000000000000000000000000000000000000000000000000000000000000000000000000000000000005a4fc434a8a00000000000000000000000000000000000000000000000000000000000000800000000000000000000000000000000000000000000000000000000000000160000000000000000000000000000000000000000000000000000000000000030000000000000000000000000000000000000000000000000000000000000005600000000000000000000000000000000000000000000000000000000000000006000000000000000000000000b1754226917e866c1701f1d9f9e135d88f2e86ea00000000000000000000000027a84740fdded5b7d66d9bb6e5d1dea6eb0c01290000000000000000000000003f55654b2b2b86bb11be2f72657f9c33bf88120a000000000000000000000000d0930ee96d07de4f9d493c259232222e46b6ec250000000000000000000000005557e1fe3068a1e823ce5dcd052c6c352e2617b5000000000000000000000000132b466d9d5723531f68797519dfed701ac2c7490000000000000000000000000000000000000000000000000000000000000006000000000000000000000000000000000000000000000000000000000000000000000000000000000000000000000000000000000000000000000000000000000000000000000000000000000000000000000000000000000000000000000000000000000000000000000000000000000000000000000000000000000000000000000000000000000000000000000000000000000000000000000000000000000000000000000000000000000000000000000000000000000000000000000000000000000000000000000000000000000000000000000000000000000000000000000000000000000000000000000000000000000000000000000000000000000000000000000000000000000000000000000000000000000000000000000001000000000000000000000000000000000000000000000000000000000000000000000000000000000000000000000000000000000000000000000000000000000000000000000000000000000000000000000000000000000000000000000000000000000000000000000000000000000000000000000000000000000000000600000000000000000000000000000000000000000000000000000000000000c000000000000000000000000000000000000000000000000000000000000001000000000000000000000000000000000000000000000000000000000000000140000000000000000000000000000000000000000000000000000000000000018000000000000000000000000000000000000000000000000000000000000001c00000000000000000000000000000000000000000000000000000000000000200000000000000000000000000000000000000000000000000000000000000000e5061757365725265676973747279000000000000000000000000000000000000000000000000000000000000000000000000000000000000000000000000001050726f746f636f6c5265676973747279000000000000000000000000000000000000000000000000000000000000000000000000000000000000000000000018424e3235344365727469666963617465566572696669657200000000000000000000000000000000000000000000000000000000000000000000000000000018454344534143657274696669636174655665726966696572000000000000000000000000000000000000000000000000000000000000000000000000000000144f70657261746f725461626c6555706461746572000000000000000000000000000000000000000000000000000000000000000000000000000000000000000b5461736b4d61696c626f780000000000000000000000000000000000000000000000000000000000000000000000000000000000000000000000000000000005312e392e30000000000000000000000000000000000000000000000000000000000000000000000000000000000000000000000000000000000000000000000000000000000000000000000000000000000000000000000000000000000041000000000000000000000000e48d7caec1790b293667e4bb2de1e00536f2babd0000000000000000000000000000000000000000000000000000000000000000010000000000000000000000000000000000000000000000000000000000000000000000000000000000000000000000000000000000000000000000",
  "operation": 0,
  "gasToken": "0x0000000000000000000000000000000000000000",
  "safeTxGas": "0",
  "baseGas": "0",
  "gasPrice": "0",
  "refundReceiver": "0x0000000000000000000000000000000000000000",
  "nonce": "0",
  "executionDate": "2026-01-29T21:44:51Z",
  "submissionDate": "2026-01-29T21:35:40.002283Z",
  "modified": "2026-01-29T21:44:53.884890Z",
  "blockNumber": 41466872,
  "transactionHash": "0xab7504bac2503afc96c41cd5e3cc536b5d5066fd886900a548f89ef21089df01",
  "safeTxHash": "0xba6e5c73fccc39db1aed51a3a9580ec97ee8142f3e0eccd5ef3fdb58db6ab5b0",
  "proposer": "0xdC541e2B4adD96888b2C79006F49A9748A4f1bDF",
  "proposedByDelegate": null,
  "executor": "0xC4E7263Dd870A29f1cFe438D1A7DB48547B16888",
  "isExecuted": true,
  "isSuccessful": true,
  "ethGasPrice": "3665010",
  "maxFeePerGas": "4731002",
  "maxPriorityFeePerGas": "1000030",
  "gasUsed": 836769,
  "fee": "3066766752690",
  "origin": "{}",
  "dataDecoded": {
    "method": "execute",
    "parameters": [
      {
        "name": "target",
        "type": "address",
        "value": "0x5d808608Ad70873ca4dE50F83416264dc15264C2"
      },
      {
        "name": "value",
        "type": "uint256",
        "value": "0"
      },
      {
        "name": "payload",
        "type": "bytes",
        "value": "0x6a76120200000000000000000000000040a2accbd92bca938b02010e17a5b8929b49130d000000000000000000000000000000000000000000000000000000000000000000000000000000000000000000000000000000000000000000000000000001400000000000000000000000000000000000000000000000000000000000000001000000000000000000000000000000000000000000000000000000000000000000000000000000000000000000000000000000000000000000000000000000000000000000000000000000000000000000000000000000000000000000000000000000000000000000000000000000000000000000000000000000000000000000000000000000000000000000000000000000000000000000000000000000000000000000000000000000000000000000000000000000000000000000000a2000000000000000000000000000000000000000000000000000000000000008a48d80ff0a0000000000000000000000000000000000000000000000000000000000000020000000000000000000000000000000000000000000000000000000000000085d00db0052e272d1d126617c36a9d6d65c801d1549ce0000000000000000000000000000000000000000000000000000000000000000000000000000000000000000000000000000000000000000000000000000004499a88ec40000000000000000000000003f55654b2b2b86bb11be2f72657f9c33bf88120a000000000000000000000000c6c7a63518d0150d57c6b00cdc7f13eb4b275d7d00db0052e272d1d126617c36a9d6d65c801d1549ce0000000000000000000000000000000000000000000000000000000000000000000000000000000000000000000000000000000000000000000000000000004499a88ec4000000000000000000000000d0930ee96d07de4f9d493c259232222e46b6ec25000000000000000000000000f2cc35a48561c2344577489a0873339f5b7e025f00db0052e272d1d126617c36a9d6d65c801d1549ce0000000000000000000000000000000000000000000000000000000000000000000000000000000000000000000000000000000000000000000000000000004499a88ec40000000000000000000000005557e1fe3068a1e823ce5dcd052c6c352e2617b5000000000000000000000000792ffea0d8734695670697f8b9f03de3f666419d00db0052e272d1d126617c36a9d6d65c801d1549ce0000000000000000000000000000000000000000000000000000000000000000000000000000000000000000000000000000000000000000000000000000004499a88ec4000000000000000000000000132b466d9d5723531f68797519dfed701ac2c7490000000000000000000000006ed28c7dfea8f70a7edec02a1e295da6307fc1bd0027a84740fdded5b7d66d9bb6e5d1dea6eb0c0129000000000000000000000000000000000000000000000000000000000000000000000000000000000000000000000000000000000000000000000000000005a4fc434a8a00000000000000000000000000000000000000000000000000000000000000800000000000000000000000000000000000000000000000000000000000000160000000000000000000000000000000000000000000000000000000000000030000000000000000000000000000000000000000000000000000000000000005600000000000000000000000000000000000000000000000000000000000000006000000000000000000000000b1754226917e866c1701f1d9f9e135d88f2e86ea00000000000000000000000027a84740fdded5b7d66d9bb6e5d1dea6eb0c01290000000000000000000000003f55654b2b2b86bb11be2f72657f9c33bf88120a000000000000000000000000d0930ee96d07de4f9d493c259232222e46b6ec250000000000000000000000005557e1fe3068a1e823ce5dcd052c6c352e2617b5000000000000000000000000132b466d9d5723531f68797519dfed701ac2c7490000000000000000000000000000000000000000000000000000000000000006000000000000000000000000000000000000000000000000000000000000000000000000000000000000000000000000000000000000000000000000000000000000000000000000000000000000000000000000000000000000000000000000000000000000000000000000000000000000000000000000000000000000000000000000000000000000000000000000000000000000000000000000000000000000000000000000000000000000000000000000000000000000000000000000000000000000000000000000000000000000000000000000000000000000000000000000000000000000000000000000000000000000000000000000000000000000000000000000000000000000000000000000000000000000000000000001000000000000000000000000000000000000000000000000000000000000000000000000000000000000000000000000000000000000000000000000000000000000000000000000000000000000000000000000000000000000000000000000000000000000000000000000000000000000000000000000000000000000000600000000000000000000000000000000000000000000000000000000000000c000000000000000000000000000000000000000000000000000000000000001000000000000000000000000000000000000000000000000000000000000000140000000000000000000000000000000000000000000000000000000000000018000000000000000000000000000000000000000000000000000000000000001c00000000000000000000000000000000000000000000000000000000000000200000000000000000000000000000000000000000000000000000000000000000e5061757365725265676973747279000000000000000000000000000000000000000000000000000000000000000000000000000000000000000000000000001050726f746f636f6c5265676973747279000000000000000000000000000000000000000000000000000000000000000000000000000000000000000000000018424e3235344365727469666963617465566572696669657200000000000000000000000000000000000000000000000000000000000000000000000000000018454344534143657274696669636174655665726966696572000000000000000000000000000000000000000000000000000000000000000000000000000000144f70657261746f725461626c6555706461746572000000000000000000000000000000000000000000000000000000000000000000000000000000000000000b5461736b4d61696c626f780000000000000000000000000000000000000000000000000000000000000000000000000000000000000000000000000000000005312e392e30000000000000000000000000000000000000000000000000000000000000000000000000000000000000000000000000000000000000000000000000000000000000000000000000000000000000000000000000000000000041000000000000000000000000e48d7caec1790b293667e4bb2de1e00536f2babd00000000000000000000000000000000000000000000000000000000000000000100000000000000000000000000000000000000000000000000000000000000"
      },
      {
        "name": "predecessor",
        "type": "bytes32",
        "value": "0x0000000000000000000000000000000000000000000000000000000000000000"
      },
      {
        "name": "salt",
        "type": "bytes32",
        "value": "0x0000000000000000000000000000000000000000000000000000000000000000"
      }
    ]
  },
  "confirmationsRequired": 3,
  "confirmations": [
    {
      "owner": "0xdC541e2B4adD96888b2C79006F49A9748A4f1bDF",
      "submissionDate": "2026-01-29T21:35:40.037982Z",
      "transactionHash": null,
      "signature": "0x5f35e4619b919f395ce0c7a1ae60949cb5351344b77a0e7a6fe50ebda7cececb7f4aff998a3c5da428a69f9c53d139f3f5b373f64b49f2c2e1dbc0c9f54205e81b",
      "signatureType": "EOA"
    },
    {
      "owner": "0xE31ad7cFD94bD74C40b53160aA0E8A0b6D340830",
      "submissionDate": "2026-01-29T21:43:07.979912Z",
      "transactionHash": null,
      "signature": "0xa0e7f9f72f59eb4acdfcd4e1d1ae702ba4ffd2ef9adeb41abdefeb132a64f27a1bb7ec0c56130d11b143e8f5a6c8411dbdda054479bceb08864180f629303d721c",
      "signatureType": "EOA"
    },
    {
      "owner": "0x957236B539bfA49b650B66426BcaFbF477C1c334",
      "submissionDate": "2026-01-29T21:44:48.778273Z",
      "transactionHash": null,
      "signature": "0xabef9b54dc6debc7d7b687e7f6461d042ce3bcd6143d7ff4c4442fdb725d556e39d9e5b92c80271093a39c4f4ccc7c49f04cb30b5109e2c152cce0e9079024021b",
      "signatureType": "EOA"
    }
  ],
  "trusted": true,
  "signatures": "0xabef9b54dc6debc7d7b687e7f6461d042ce3bcd6143d7ff4c4442fdb725d556e39d9e5b92c80271093a39c4f4ccc7c49f04cb30b5109e2c152cce0e9079024021b5f35e4619b919f395ce0c7a1ae60949cb5351344b77a0e7a6fe50ebda7cececb7f4aff998a3c5da428a69f9c53d139f3f5b373f64b49f2c2e1dbc0c9f54205e81ba0e7f9f72f59eb4acdfcd4e1d1ae702ba4ffd2ef9adeb41abdefeb132a64f27a1bb7ec0c56130d11b143e8f5a6c8411dbdda054479bceb08864180f629303d721c"
}