{
  "safe": "0x461854d84Ee845F905e0eCf6C288DDEEb4A9533F",
  "to": "0xC06Fd4F821eaC1fF1ae8067b36342899b57BAa2d",
  "value": "0",
  "data": "0x134008d3000000000000000000000000369e6f597e22eab55ffb173c6d9cd234bd699111000000000000000000000000000000000000000000000000000000000000000000000000000000000000000000000000000000000000000000000000000000a00000000000000000000000000000000000000000000000000000000000000000000000000000000000000000000000000000000000000000000000000000000000000000000000000000000000000000000000000000000000000000000005846a76120200000000000000000000000040a2accbd92bca938b02010e17a5b8929b49130d00000000000000000000000000000000000000000000000000000000000000000000000000000000000000000000000000000000000000000000000000000140000000000000000000000000000000000000000000000000000000000000000100000000000000000000000000000000000000000000000000000000000000000000000000000000000000000000000000000000000000000000000000000000000000000000000000000000000000000000000000000000000000000000000000000000000000000000000000000000000000000000000000000000000000000000000000000000000000000000000000000000000000000000000000000000000000000000000000000000000000000000000000000000000000000000050000000000000000000000000000000000000000000000000000000000000003848d80ff0a00000000000000000000000000000000000000000000000000000000000000200000000000000000000000000000000000000000000000000000000000000324008b9566ada63b64d1e1dcf1418b43fd1433b724440000000000000000000000000000000000000000000000000000000000000000000000000000000000000000000000000000000000000000000000000000004499a88ec4000000000000000000000000858646372cc42e1a627fce94aa7a7033e7cf075a000000000000000000000000a7536c85898dc424c6bfe8592f983661f830656a008b9566ada63b64d1e1dcf1418b43fd1433b724440000000000000000000000000000000000000000000000000000000000000000000000000000000000000000000000000000000000000000000000000000004499a88ec40000000000000000000000005e4c39ad7a3e881585e383db9827eb4811f6f647000000000000000000000000bbc4124c74c567396181fbfbae746b80619d2b76000fce0a591d96bb76883323ef555867111e2050a9000000000000000000000000000000000000000000000000000000000000000000000000000000000000000000000000000000000000000000000000000000243659cfe6000000000000000000000000c946787cfd6c155886c673bf9815c841c17189030027a84740fdded5b7d66d9bb6e5d1dea6eb0c012900000000000000000000000000000000000000000000000000000000000000000000000000000000000000000000000000000000000000000000000000000124fc434a8a000000000000000000000000000000000000000000000000000000000000008000000000000000000000000000000000000000000000000000000000000000a000000000000000000000000000000000000000000000000000000000000000c000000000000000000000000000000000000000000000000000000000000000e00000000000000000000000000000000000000000000000000000000000000000000000000000000000000000000000000000000000000000000000000000000000000000000000000000000000000000000000000000000000000000000000000000000000000000000000000000000000000000000000000000000000000006312e31332e30000000000000000000000000000000000000000000000000000000000000000000000000000000000000000000000000000000000000000000000000000000000000000000000000000000000000000000000000000000000000000000000000000000000000000000000000000000000041000000000000000000000000c06fd4f821eac1ff1ae8067b36342899b57baa2d0000000000000000000000000000000000000000000000000000000000000000010000000000000000000000000000000000000000000000000000000000000000000000000000000000000000000000000000000000000000000000",
  "operation": 0,
  "gasToken": "0x0000000000000000000000000000000000000000",
  "safeTxGas": "0",
  "baseGas": "0",
  "gasPrice": "0",
  "refundReceiver": "0x0000000000000000000000000000000000000000",
  "nonce": "18",
  "executionDate": "2026-06-15T21:17:11Z",
  "submissionDate": "2026-06-15T21:01:07.785610Z",
  "modified": "2026-06-15T21:17:11Z",
  "blockNumber": 25325539,
  "transactionHash": "0x31038718055572d8230555d9929c63496ca7ec520d6af6b9971bbe241f9088e3",
  "safeTxHash": "0xdaf843627a5afbf517007f18e318176c5151129fd4fd9c240b2c92618ce9903e",
  "proposer": "0x9229C290F60F303884073F28EB8E81F9B82506d5",
  "proposedByDelegate": null,
  "executor": "0xc5280E368648b0e192b355c7d8330593bA7af700",
  "isExecuted": true,
  "isSuccessful": true,
  "ethGasPrice": "112997807",
  "maxFeePerGas": "124731738",
  "maxPriorityFeePerGas": "11032149",
  "gasUsed": 200835,
  "fee": "22693914568845",
  "payment": "0",
  "origin": "{}",
  "dataDecoded": {
    "method": "execute",
    "parameters": [
      {
        "name": "target",
        "type": "address",
        "value": "0x369e6F597e22EaB55fFb173C6d9cD234BD699111"
      },
      {
        "name": "value",
        "type": "uint256",
        "value": "0"
      },
      {
        "name": "payload",
        "type": "bytes",
        "value": "0x6a76120200000000000000000000000040a2accbd92bca938b02010e17a5b8929b49130d00000000000000000000000000000000000000000000000000000000000000000000000000000000000000000000000000000000000000000000000000000140000000000000000000000000000000000000000000000000000000000000000100000000000000000000000000000000000000000000000000000000000000000000000000000000000000000000000000000000000000000000000000000000000000000000000000000000000000000000000000000000000000000000000000000000000000000000000000000000000000000000000000000000000000000000000000000000000000000000000000000000000000000000000000000000000000000000000000000000000000000000000000000000000000000000050000000000000000000000000000000000000000000000000000000000000003848d80ff0a00000000000000000000000000000000000000000000000000000000000000200000000000000000000000000000000000000000000000000000000000000324008b9566ada63b64d1e1dcf1418b43fd1433b724440000000000000000000000000000000000000000000000000000000000000000000000000000000000000000000000000000000000000000000000000000004499a88ec4000000000000000000000000858646372cc42e1a627fce94aa7a7033e7cf075a000000000000000000000000a7536c85898dc424c6bfe8592f983661f830656a008b9566ada63b64d1e1dcf1418b43fd1433b724440000000000000000000000000000000000000000000000000000000000000000000000000000000000000000000000000000000000000000000000000000004499a88ec40000000000000000000000005e4c39ad7a3e881585e383db9827eb4811f6f647000000000000000000000000bbc4124c74c567396181fbfbae746b80619d2b76000fce0a591d96bb76883323ef555867111e2050a9000000000000000000000000000000000000000000000000000000000000000000000000000000000000000000000000000000000000000000000000000000243659cfe6000000000000000000000000c946787cfd6c155886c673bf9815c841c17189030027a84740fdded5b7d66d9bb6e5d1dea6eb0c012900000000000000000000000000000000000000000000000000000000000000000000000000000000000000000000000000000000000000000000000000000124fc434a8a000000000000000000000000000000000000000000000000000000000000008000000000000000000000000000000000000000000000000000000000000000a000000000000000000000000000000000000000000000000000000000000000c000000000000000000000000000000000000000000000000000000000000000e00000000000000000000000000000000000000000000000000000000000000000000000000000000000000000000000000000000000000000000000000000000000000000000000000000000000000000000000000000000000000000000000000000000000000000000000000000000000000000000000000000000000000006312e31332e30000000000000000000000000000000000000000000000000000000000000000000000000000000000000000000000000000000000000000000000000000000000000000000000000000000000000000000000000000000000000000000000000000000000000000000000000000000000041000000000000000000000000c06fd4f821eac1ff1ae8067b36342899b57baa2d00000000000000000000000000000000000000000000000000000000000000000100000000000000000000000000000000000000000000000000000000000000"
      },
      {
        "name": "predecessor",
        "type": "bytes32",
        "value": "0x0000000000000000000000000000000000000000000000000000000000000000"
      },
      {
        "name": "salt",
        "type": "bytes32",
        "value": "0x0000000000000000000000000000000000000000000000000000000000000000"
      }
    ]
  },
  "confirmationsRequired": 3,
  "confirmations": [
    {
      "owner": "0x9229C290F60F303884073F28EB8E81F9B82506d5",
      "submissionDate": "2026-06-15T21:01:07.815688Z",
      "transactionHash": null,
      "signature": "0x81e7341f9f26d2959f728400b66b8179299adf935a857e7090f50137cb16b123544ec0a3d361bab22ac6a9c910e42141f2f456e3314a75f6ace2c94fb7a4ef361b",
      "signatureType": "EOA"
    },
    {
      "owner": "0xC6F9BDEEdEf78c2Cd146cdA31C82F76ca14A2927",
      "submissionDate": "2026-06-15T21:07:08.289468Z",
      "transactionHash": null,
      "signature": "0x586f9856bae47b32403a110632109dc666299367f382c05aad645c4b0a9c17784c901377313e358c89ab1a725513b0da6ef741095c87a7a1409f72b62b8f27da1b",
      "signatureType": "EOA"
    },
    {
      "owner": "0xc5280E368648b0e192b355c7d8330593bA7af700",
      "submissionDate": "2026-06-15T21:17:11Z",
      "transactionHash": null,
      "signature": "0x000000000000000000000000c5280e368648b0e192b355c7d8330593ba7af700000000000000000000000000000000000000000000000000000000000000000001",
      "signatureType": "APPROVED_HASH"
    }
  ],
  "trusted": true,
  "signatures": "0x81e7341f9f26d2959f728400b66b8179299adf935a857e7090f50137cb16b123544ec0a3d361bab22ac6a9c910e42141f2f456e3314a75f6ace2c94fb7a4ef361b000000000000000000000000c5280e368648b0e192b355c7d8330593ba7af700000000000000000000000000000000000000000000000000000000000000000001586f9856bae47b32403a110632109dc666299367f382c05aad645c4b0a9c17784c901377313e358c89ab1a725513b0da6ef741095c87a7a1409f72b62b8f27da1b"
}