{
  "safe": "0xb094Ba769b4976Dc37fC689A76675f31bc4923b0",
  "to": "0x1BEF05C7303d44e0E2FCD2A19d993eDEd4c51b5B",
  "value": "0",
  "data": "0x01d5062a0000000000000000000000004fda8998ec3b7d4b4a612d45feb8fb36734470f2000000000000000000000000000000000000000000000000000000000000000000000000000000000000000000000000000000000000000000000000000000c000000000000000000000000000000000000000000000000000000000000000000000000000000000000000000000000000000000000000000000000000000000000000000000000000000000000000000000000000000000000000000000000100000000000000000000000000000000000000000000000000000000000003646a7612020000000000000000000000009641d764fc13c8b624c04430c7356c1c7c8102e20000000000000000000000000000000000000000000000000000000000000000000000000000000000000000000000000000000000000000000000000000014000000000000000000000000000000000000000000000000000000000000000010000000000000000000000000000000000000000000000000000000000000000000000000000000000000000000000000000000000000000000000000000000000000000000000000000000000000000000000000000000000000000000000000000000000000000000000000000000000000000000000000000000000000000000000000000000000000000000000000000000000000000000000000000000000000000000000000000000000000000000000000000000000000000000002e000000000000000000000000000000000000000000000000000000000000001648d80ff0a00000000000000000000000000000000000000000000000000000000000000200000000000000000000000000000000000000000000000000000000000000112000e19e56e41d42137d00dd4f51ec2f613e50cacf4000000000000000000000000000000000000000000000000000000000000000000000000000000000000000000000000000000000000000000000000000000243659cfe60000000000000000000000003cb5e43c8c46536213ac93f05daab746c9424d560056e88cb4f0136fc27d95499de4be2acf47946fa10000000000000000000000000000000000000000000000000000000000000000000000000000000000000000000000000000000000000000000000000000004499a88ec40000000000000000000000000011fa2c512063c495f77296af8d195f33a8dd3800000000000000000000000038680636a38f5f51609bee487e510893bbaa45ff00000000000000000000000000000000000000000000000000000000000000000000000000000000000000000000000000000000000000000000000000000000000000000000000000410000000000000000000000001bef05c7303d44e0e2fcd2a19d993eded4c51b5b0000000000000000000000000000000000000000000000000000000000000000010000000000000000000000000000000000000000000000000000000000000000000000000000000000000000000000000000000000000000000000",
  "operation": 0,
  "gasToken": "0x0000000000000000000000000000000000000000",
  "safeTxGas": 0,
  "baseGas": 0,
  "gasPrice": "0",
  "refundReceiver": "0x0000000000000000000000000000000000000000",
  "nonce": 4,
  "executionDate": null,
  "submissionDate": "2025-06-06T21:04:05.486946Z",
  "modified": "2025-06-06T21:04:05.565403Z",
  "blockNumber": null,
  "transactionHash": null,
  "safeTxHash": "0x7b3eaab05cf16d8b5393c15a4b32bb0455b861d8fbfaa92b5f5c6a233c4f47b4",
  "proposer": "0xDA29BB71669f46F2a779b4b62f03644A84eE3479",
  "proposedByDelegate": null,
  "executor": null,
  "isExecuted": false,
  "isSuccessful": null,
  "ethGasPrice": null,
  "maxFeePerGas": null,
  "maxPriorityFeePerGas": null,
  "gasUsed": null,
  "fee": null,
  "origin": "{}",
  "dataDecoded": {
    "method": "schedule",
    "parameters": [
      {
        "name": "target",
        "type": "address",
        "value": "0x4FDA8998EC3b7d4b4A612d45FeB8fB36734470f2"
      },
      {
        "name": "value",
        "type": "uint256",
        "value": "0"
      },
      {
        "name": "data",
        "type": "bytes",
        "value": "0x6a7612020000000000000000000000009641d764fc13c8b624c04430c7356c1c7c8102e20000000000000000000000000000000000000000000000000000000000000000000000000000000000000000000000000000000000000000000000000000014000000000000000000000000000000000000000000000000000000000000000010000000000000000000000000000000000000000000000000000000000000000000000000000000000000000000000000000000000000000000000000000000000000000000000000000000000000000000000000000000000000000000000000000000000000000000000000000000000000000000000000000000000000000000000000000000000000000000000000000000000000000000000000000000000000000000000000000000000000000000000000000000000000000000002e000000000000000000000000000000000000000000000000000000000000001648d80ff0a00000000000000000000000000000000000000000000000000000000000000200000000000000000000000000000000000000000000000000000000000000112000e19e56e41d42137d00dd4f51ec2f613e50cacf4000000000000000000000000000000000000000000000000000000000000000000000000000000000000000000000000000000000000000000000000000000243659cfe60000000000000000000000003cb5e43c8c46536213ac93f05daab746c9424d560056e88cb4f0136fc27d95499de4be2acf47946fa10000000000000000000000000000000000000000000000000000000000000000000000000000000000000000000000000000000000000000000000000000004499a88ec40000000000000000000000000011fa2c512063c495f77296af8d195f33a8dd3800000000000000000000000038680636a38f5f51609bee487e510893bbaa45ff00000000000000000000000000000000000000000000000000000000000000000000000000000000000000000000000000000000000000000000000000000000000000000000000000410000000000000000000000001bef05c7303d44e0e2fcd2a19d993eded4c51b5b00000000000000000000000000000000000000000000000000000000000000000100000000000000000000000000000000000000000000000000000000000000"
      },
      {
        "name": "predecessor",
        "type": "bytes32",
        "value": "0x0000000000000000000000000000000000000000000000000000000000000000"
      },
      {
        "name": "salt",
        "type": "bytes32",
        "value": "0x0000000000000000000000000000000000000000000000000000000000000000"
      },
      {
        "name": "delay",
        "type": "uint256",
        "value": "1"
      }
    ]
  },
  "confirmationsRequired": 1,
  "confirmations": [
    {
      "owner": "0xDA29BB71669f46F2a779b4b62f03644A84eE3479",
      "submissionDate": "2025-06-06T21:04:05.565403Z",
      "transactionHash": null,
      "signature": "0xd0a8574424a23bb68e2d60d65f570c33950764ab6c0655e6c078da60a18eb7c51f9e785a36e705e334696e7907697cde4424605a39d41a9429888cfbb2854d671c",
      "signatureType": "EOA"
    }
  ],
  "trusted": true,
  "signatures": null
}