{
  "safe": "0xBE1685C81aA44FF9FB319dD389addd9374383e90",
  "to": "0xC06Fd4F821eaC1fF1ae8067b36342899b57BAa2d",
  "value": "0",
  "data": "0x01d5062a000000000000000000000000369e6f597e22eab55ffb173c6d9cd234bd699111000000000000000000000000000000000000000000000000000000000000000000000000000000000000000000000000000000000000000000000000000000c00000000000000000000000000000000000000000000000000000000000000000000000000000000000000000000000000000000000000000000000000000000000000000000000000000000000000000000000000000000000000000000d2f0000000000000000000000000000000000000000000000000000000000000003646a76120200000000000000000000000040a2accbd92bca938b02010e17a5b8929b49130d0000000000000000000000000000000000000000000000000000000000000000000000000000000000000000000000000000000000000000000000000000014000000000000000000000000000000000000000000000000000000000000000010000000000000000000000000000000000000000000000000000000000000000000000000000000000000000000000000000000000000000000000000000000000000000000000000000000000000000000000000000000000000000000000000000000000000000000000000000000000000000000000000000000000000000000000000000000000000000000000000000000000000000000000000000000000000000000000000000000000000000000000000000000000000000000002e000000000000000000000000000000000000000000000000000000000000001648d80ff0a00000000000000000000000000000000000000000000000000000000000000200000000000000000000000000000000000000000000000000000000000000112005a2a4f2f3c18f09179b6703e63d9edd165909073000000000000000000000000000000000000000000000000000000000000000000000000000000000000000000000000000000000000000000000000000000243659cfe6000000000000000000000000cb27a4819a64fba93abd4d480e4466aec0503745008b9566ada63b64d1e1dcf1418b43fd1433b724440000000000000000000000000000000000000000000000000000000000000000000000000000000000000000000000000000000000000000000000000000004499a88ec4000000000000000000000000ec53bf9167f50cdeb3ae105f56099aaab9061f830000000000000000000000002c4a81e257381f87f5a5c4bd525116466d972e500000000000000000000000000000000000000000000000000000000000000000000000000000000000000000000000000000000000000000000000000000000000000000000000000041000000000000000000000000c06fd4f821eac1ff1ae8067b36342899b57baa2d0000000000000000000000000000000000000000000000000000000000000000010000000000000000000000000000000000000000000000000000000000000000000000000000000000000000000000000000000000000000000000",
  "operation": 0,
  "gasToken": "0x0000000000000000000000000000000000000000",
  "safeTxGas": 0,
  "baseGas": 0,
  "gasPrice": "0",
  "refundReceiver": "0x0000000000000000000000000000000000000000",
  "nonce": 73,
  "executionDate": "2025-07-11T16:28:23Z",
  "submissionDate": "2025-07-11T16:09:02.246533Z",
  "modified": "2025-07-12T06:59:38.679374Z",
  "blockNumber": 22897125,
  "transactionHash": "0x6e219b1ad78aa0e988ba1cde6e0bfc415edc3d1d8733dc495c8c7e79f77414f8",
  "safeTxHash": "0x873327339b018f7f5af74f9cf15d40f4902a86ab6b1da8d32a3c0875107a4a73",
  "proposer": "0xdC541e2B4adD96888b2C79006F49A9748A4f1bDF",
  "proposedByDelegate": null,
  "executor": "0xFBB1A3C8C8A99A2A4797250dF87E307Dc3f01Fe0",
  "isExecuted": true,
  "isSuccessful": true,
  "ethGasPrice": "9799900899",
  "maxFeePerGas": "9799900899",
  "maxPriorityFeePerGas": "1000500001",
  "gasUsed": 113044,
  "fee": "1107819997226556",
  "origin": "{}",
  "dataDecoded": {
    "method": "schedule",
    "parameters": [
      {
        "name": "target",
        "type": "address",
        "value": "0x369e6F597e22EaB55fFb173C6d9cD234BD699111"
      },
      {
        "name": "value",
        "type": "uint256",
        "value": "0"
      },
      {
        "name": "data",
        "type": "bytes",
        "value": "0x6a76120200000000000000000000000040a2accbd92bca938b02010e17a5b8929b49130d0000000000000000000000000000000000000000000000000000000000000000000000000000000000000000000000000000000000000000000000000000014000000000000000000000000000000000000000000000000000000000000000010000000000000000000000000000000000000000000000000000000000000000000000000000000000000000000000000000000000000000000000000000000000000000000000000000000000000000000000000000000000000000000000000000000000000000000000000000000000000000000000000000000000000000000000000000000000000000000000000000000000000000000000000000000000000000000000000000000000000000000000000000000000000000000002e000000000000000000000000000000000000000000000000000000000000001648d80ff0a00000000000000000000000000000000000000000000000000000000000000200000000000000000000000000000000000000000000000000000000000000112005a2a4f2f3c18f09179b6703e63d9edd165909073000000000000000000000000000000000000000000000000000000000000000000000000000000000000000000000000000000000000000000000000000000243659cfe6000000000000000000000000cb27a4819a64fba93abd4d480e4466aec0503745008b9566ada63b64d1e1dcf1418b43fd1433b724440000000000000000000000000000000000000000000000000000000000000000000000000000000000000000000000000000000000000000000000000000004499a88ec4000000000000000000000000ec53bf9167f50cdeb3ae105f56099aaab9061f830000000000000000000000002c4a81e257381f87f5a5c4bd525116466d972e500000000000000000000000000000000000000000000000000000000000000000000000000000000000000000000000000000000000000000000000000000000000000000000000000041000000000000000000000000c06fd4f821eac1ff1ae8067b36342899b57baa2d00000000000000000000000000000000000000000000000000000000000000000100000000000000000000000000000000000000000000000000000000000000"
      },
      {
        "name": "predecessor",
        "type": "bytes32",
        "value": "0x0000000000000000000000000000000000000000000000000000000000000000"
      },
      {
        "name": "salt",
        "type": "bytes32",
        "value": "0x0000000000000000000000000000000000000000000000000000000000000000"
      },
      {
        "name": "delay",
        "type": "uint256",
        "value": "864000"
      }
    ]
  },
  "confirmationsRequired": 3,
  "confirmations": [
    {
      "owner": "0xdC541e2B4adD96888b2C79006F49A9748A4f1bDF",
      "submissionDate": "2025-07-11T16:09:02.396746Z",
      "transactionHash": null,
      "signature": "0xacdb08cffe1216ecda0d4aae6540b00b452d3fd9a3373a1c84b6090f5ee6c76f1a2192a976ee862ac420f5a65a5112dba04c5a4260e233aaf3d3648cb6a7e68d1c",
      "signatureType": "EOA"
    },
    {
      "owner": "0xb7Ae34BB33da55f12797e793E01e63a17B11d108",
      "submissionDate": "2025-07-11T16:24:35.388037Z",
      "transactionHash": null,
      "signature": "0xc2f953c2633a3589c8db2d83606bfa04dafe776ecc0e2431080cfaad0bd09cd9112c04dab5b6420ae75e2c592ad8a3a3247bf010ba1bc91c290c04bb374c50901c",
      "signatureType": "EOA"
    },
    {
      "owner": "0xFBB1A3C8C8A99A2A4797250dF87E307Dc3f01Fe0",
      "submissionDate": "2025-07-11T16:27:26.848827Z",
      "transactionHash": null,
      "signature": "0xc52c27437f23a3ef9570dea87e088cc7804d83c2507d4e0e7ea14a9b2825012378d9eec037fb05c2d3351c223e465a5a15676e09dac6237c08447f225b96659d1b",
      "signatureType": "EOA"
    }
  ],
  "trusted": true,
  "signatures": "0xc2f953c2633a3589c8db2d83606bfa04dafe776ecc0e2431080cfaad0bd09cd9112c04dab5b6420ae75e2c592ad8a3a3247bf010ba1bc91c290c04bb374c50901cacdb08cffe1216ecda0d4aae6540b00b452d3fd9a3373a1c84b6090f5ee6c76f1a2192a976ee862ac420f5a65a5112dba04c5a4260e233aaf3d3648cb6a7e68d1cc52c27437f23a3ef9570dea87e088cc7804d83c2507d4e0e7ea14a9b2825012378d9eec037fb05c2d3351c223e465a5a15676e09dac6237c08447f225b96659d1b"
}