{
  "safe": "0x8eD55c7640497Db15aC32c698c1a06E2E604d865",
  "to": "0x9641d764fc13c8B624c04430C7356C1C7C8102e2",
  "value": "0",
  "data": "0x8d80ff0a00000000000000000000000000000000000000000000000000000000000000200000000000000000000000000000000000000000000000000000000000000c9200e48d7caec1790b293667e4bb2de1e00536f2babd00000000000000000000000000000000000000000000000000000000000000000000000000000000000000000000000000000000000000000000000000000ba401d5062a0000000000000000000000005d808608ad70873ca4de50f83416264dc15264c2000000000000000000000000000000000000000000000000000000000000000000000000000000000000000000000000000000000000000000000000000000c00000000000000000000000000000000000000000000000000000000000000000000000000000000000000000000000000000000000000000000000000000000000000000000000000000000000000000000000000000000000000000000151800000000000000000000000000000000000000000000000000000000000000aa46a76120200000000000000000000000040a2accbd92bca938b02010e17a5b8929b49130d000000000000000000000000000000000000000000000000000000000000000000000000000000000000000000000000000000000000000000000000000001400000000000000000000000000000000000000000000000000000000000000001000000000000000000000000000000000000000000000000000000000000000000000000000000000000000000000000000000000000000000000000000000000000000000000000000000000000000000000000000000000000000000000000000000000000000000000000000000000000000000000000000000000000000000000000000000000000000000000000000000000000000000000000000000000000000000000000000000000000000000000000000000000000000000000a2000000000000000000000000000000000000000000000000000000000000008a48d80ff0a0000000000000000000000000000000000000000000000000000000000000020000000000000000000000000000000000000000000000000000000000000085d00db0052e272d1d126617c36a9d6d65c801d1549ce0000000000000000000000000000000000000000000000000000000000000000000000000000000000000000000000000000000000000000000000000000004499a88ec40000000000000000000000003f55654b2b2b86bb11be2f72657f9c33bf88120a000000000000000000000000c6c7a63518d0150d57c6b00cdc7f13eb4b275d7d00db0052e272d1d126617c36a9d6d65c801d1549ce0000000000000000000000000000000000000000000000000000000000000000000000000000000000000000000000000000000000000000000000000000004499a88ec4000000000000000000000000d0930ee96d07de4f9d493c259232222e46b6ec25000000000000000000000000f2cc35a48561c2344577489a0873339f5b7e025f00db0052e272d1d126617c36a9d6d65c801d1549ce0000000000000000000000000000000000000000000000000000000000000000000000000000000000000000000000000000000000000000000000000000004499a88ec40000000000000000000000005557e1fe3068a1e823ce5dcd052c6c352e2617b5000000000000000000000000792ffea0d8734695670697f8b9f03de3f666419d00db0052e272d1d126617c36a9d6d65c801d1549ce0000000000000000000000000000000000000000000000000000000000000000000000000000000000000000000000000000000000000000000000000000004499a88ec4000000000000000000000000132b466d9d5723531f68797519dfed701ac2c7490000000000000000000000006ed28c7dfea8f70a7edec02a1e295da6307fc1bd0027a84740fdded5b7d66d9bb6e5d1dea6eb0c0129000000000000000000000000000000000000000000000000000000000000000000000000000000000000000000000000000000000000000000000000000005a4fc434a8a00000000000000000000000000000000000000000000000000000000000000800000000000000000000000000000000000000000000000000000000000000160000000000000000000000000000000000000000000000000000000000000030000000000000000000000000000000000000000000000000000000000000005600000000000000000000000000000000000000000000000000000000000000006000000000000000000000000b1754226917e866c1701f1d9f9e135d88f2e86ea00000000000000000000000027a84740fdded5b7d66d9bb6e5d1dea6eb0c01290000000000000000000000003f55654b2b2b86bb11be2f72657f9c33bf88120a000000000000000000000000d0930ee96d07de4f9d493c259232222e46b6ec250000000000000000000000005557e1fe3068a1e823ce5dcd052c6c352e2617b5000000000000000000000000132b466d9d5723531f68797519dfed701ac2c7490000000000000000000000000000000000000000000000000000000000000006000000000000000000000000000000000000000000000000000000000000000000000000000000000000000000000000000000000000000000000000000000000000000000000000000000000000000000000000000000000000000000000000000000000000000000000000000000000000000000000000000000000000000000000000000000000000000000000000000000000000000000000000000000000000000000000000000000000000000000000000000000000000000000000000000000000000000000000000000000000000000000000000000000000000000000000000000000000000000000000000000000000000000000000000000000000000000000000000000000000000000000000000000000000000000000000001000000000000000000000000000000000000000000000000000000000000000000000000000000000000000000000000000000000000000000000000000000000000000000000000000000000000000000000000000000000000000000000000000000000000000000000000000000000000000000000000000000000000000600000000000000000000000000000000000000000000000000000000000000c000000000000000000000000000000000000000000000000000000000000001000000000000000000000000000000000000000000000000000000000000000140000000000000000000000000000000000000000000000000000000000000018000000000000000000000000000000000000000000000000000000000000001c00000000000000000000000000000000000000000000000000000000000000200000000000000000000000000000000000000000000000000000000000000000e5061757365725265676973747279000000000000000000000000000000000000000000000000000000000000000000000000000000000000000000000000001050726f746f636f6c5265676973747279000000000000000000000000000000000000000000000000000000000000000000000000000000000000000000000018424e3235344365727469666963617465566572696669657200000000000000000000000000000000000000000000000000000000000000000000000000000018454344534143657274696669636174655665726966696572000000000000000000000000000000000000000000000000000000000000000000000000000000144f70657261746f725461626c6555706461746572000000000000000000000000000000000000000000000000000000000000000000000000000000000000000b5461736b4d61696c626f780000000000000000000000000000000000000000000000000000000000000000000000000000000000000000000000000000000005312e392e30000000000000000000000000000000000000000000000000000000000000000000000000000000000000000000000000000000000000000000000000000000000000000000000000000000000000000000000000000000000041000000000000000000000000e48d7caec1790b293667e4bb2de1e00536f2babd000000000000000000000000000000000000000000000000000000000000000001000000000000000000000000000000000000000000000000000000000000000000000000000000000000000000000000000000000000000000000000b1754226917e866c1701f1d9f9e135d88f2e86ea000000000000000000000000000000000000000000000000000000000000000000000000000000000000000000000000000000000000000000000000000000448568520600000000000000000000000027a84740fdded5b7d66d9bb6e5d1dea6eb0c012900000000000000000000000000000000000000000000000000000000000000010000000000000000000000000000",
  "operation": 1,
  "gasToken": "0x0000000000000000000000000000000000000000",
  "safeTxGas": "0",
  "baseGas": "0",
  "gasPrice": "0",
  "refundReceiver": "0x0000000000000000000000000000000000000000",
  "nonce": "1",
  "executionDate": "2026-01-27T19:12:27Z",
  "submissionDate": "2026-01-27T18:49:47.110570Z",
  "modified": "2026-01-27T19:12:30.017733Z",
  "blockNumber": 41375900,
  "transactionHash": "0x6193d07f7b1d491646ec000ef21aaf95d5737a1d2b7c3a8e5af9ee31f955648a",
  "safeTxHash": "0x7eeb01e432ac3db6488734d3266e637197c13b05b29f8649f1d7ec99b85e76e4",
  "proposer": "0xdC541e2B4adD96888b2C79006F49A9748A4f1bDF",
  "proposedByDelegate": null,
  "executor": "0x620d7E459cfFcdC56a874536dC19147De801a4A1",
  "isExecuted": true,
  "isSuccessful": true,
  "ethGasPrice": "10827602",
  "maxFeePerGas": "14748642",
  "maxPriorityFeePerGas": "1025000",
  "gasUsed": 214240,
  "fee": "2319705452480",
  "origin": "{}",
  "dataDecoded": {
    "method": "multiSend",
    "parameters": [
      {
        "name": "transactions",
        "type": "bytes",
        "value": "0x00e48d7caec1790b293667e4bb2de1e00536f2babd00000000000000000000000000000000000000000000000000000000000000000000000000000000000000000000000000000000000000000000000000000ba401d5062a0000000000000000000000005d808608ad70873ca4de50f83416264dc15264c2000000000000000000000000000000000000000000000000000000000000000000000000000000000000000000000000000000000000000000000000000000c00000000000000000000000000000000000000000000000000000000000000000000000000000000000000000000000000000000000000000000000000000000000000000000000000000000000000000000000000000000000000000000151800000000000000000000000000000000000000000000000000000000000000aa46a76120200000000000000000000000040a2accbd92bca938b02010e17a5b8929b49130d000000000000000000000000000000000000000000000000000000000000000000000000000000000000000000000000000000000000000000000000000001400000000000000000000000000000000000000000000000000000000000000001000000000000000000000000000000000000000000000000000000000000000000000000000000000000000000000000000000000000000000000000000000000000000000000000000000000000000000000000000000000000000000000000000000000000000000000000000000000000000000000000000000000000000000000000000000000000000000000000000000000000000000000000000000000000000000000000000000000000000000000000000000000000000000000a2000000000000000000000000000000000000000000000000000000000000008a48d80ff0a0000000000000000000000000000000000000000000000000000000000000020000000000000000000000000000000000000000000000000000000000000085d00db0052e272d1d126617c36a9d6d65c801d1549ce0000000000000000000000000000000000000000000000000000000000000000000000000000000000000000000000000000000000000000000000000000004499a88ec40000000000000000000000003f55654b2b2b86bb11be2f72657f9c33bf88120a000000000000000000000000c6c7a63518d0150d57c6b00cdc7f13eb4b275d7d00db0052e272d1d126617c36a9d6d65c801d1549ce0000000000000000000000000000000000000000000000000000000000000000000000000000000000000000000000000000000000000000000000000000004499a88ec4000000000000000000000000d0930ee96d07de4f9d493c259232222e46b6ec25000000000000000000000000f2cc35a48561c2344577489a0873339f5b7e025f00db0052e272d1d126617c36a9d6d65c801d1549ce0000000000000000000000000000000000000000000000000000000000000000000000000000000000000000000000000000000000000000000000000000004499a88ec40000000000000000000000005557e1fe3068a1e823ce5dcd052c6c352e2617b5000000000000000000000000792ffea0d8734695670697f8b9f03de3f666419d00db0052e272d1d126617c36a9d6d65c801d1549ce0000000000000000000000000000000000000000000000000000000000000000000000000000000000000000000000000000000000000000000000000000004499a88ec4000000000000000000000000132b466d9d5723531f68797519dfed701ac2c7490000000000000000000000006ed28c7dfea8f70a7edec02a1e295da6307fc1bd0027a84740fdded5b7d66d9bb6e5d1dea6eb0c0129000000000000000000000000000000000000000000000000000000000000000000000000000000000000000000000000000000000000000000000000000005a4fc434a8a00000000000000000000000000000000000000000000000000000000000000800000000000000000000000000000000000000000000000000000000000000160000000000000000000000000000000000000000000000000000000000000030000000000000000000000000000000000000000000000000000000000000005600000000000000000000000000000000000000000000000000000000000000006000000000000000000000000b1754226917e866c1701f1d9f9e135d88f2e86ea00000000000000000000000027a84740fdded5b7d66d9bb6e5d1dea6eb0c01290000000000000000000000003f55654b2b2b86bb11be2f72657f9c33bf88120a000000000000000000000000d0930ee96d07de4f9d493c259232222e46b6ec250000000000000000000000005557e1fe3068a1e823ce5dcd052c6c352e2617b5000000000000000000000000132b466d9d5723531f68797519dfed701ac2c7490000000000000000000000000000000000000000000000000000000000000006000000000000000000000000000000000000000000000000000000000000000000000000000000000000000000000000000000000000000000000000000000000000000000000000000000000000000000000000000000000000000000000000000000000000000000000000000000000000000000000000000000000000000000000000000000000000000000000000000000000000000000000000000000000000000000000000000000000000000000000000000000000000000000000000000000000000000000000000000000000000000000000000000000000000000000000000000000000000000000000000000000000000000000000000000000000000000000000000000000000000000000000000000000000000000000000001000000000000000000000000000000000000000000000000000000000000000000000000000000000000000000000000000000000000000000000000000000000000000000000000000000000000000000000000000000000000000000000000000000000000000000000000000000000000000000000000000000000000000600000000000000000000000000000000000000000000000000000000000000c000000000000000000000000000000000000000000000000000000000000001000000000000000000000000000000000000000000000000000000000000000140000000000000000000000000000000000000000000000000000000000000018000000000000000000000000000000000000000000000000000000000000001c00000000000000000000000000000000000000000000000000000000000000200000000000000000000000000000000000000000000000000000000000000000e5061757365725265676973747279000000000000000000000000000000000000000000000000000000000000000000000000000000000000000000000000001050726f746f636f6c5265676973747279000000000000000000000000000000000000000000000000000000000000000000000000000000000000000000000018424e3235344365727469666963617465566572696669657200000000000000000000000000000000000000000000000000000000000000000000000000000018454344534143657274696669636174655665726966696572000000000000000000000000000000000000000000000000000000000000000000000000000000144f70657261746f725461626c6555706461746572000000000000000000000000000000000000000000000000000000000000000000000000000000000000000b5461736b4d61696c626f780000000000000000000000000000000000000000000000000000000000000000000000000000000000000000000000000000000005312e392e30000000000000000000000000000000000000000000000000000000000000000000000000000000000000000000000000000000000000000000000000000000000000000000000000000000000000000000000000000000000041000000000000000000000000e48d7caec1790b293667e4bb2de1e00536f2babd000000000000000000000000000000000000000000000000000000000000000001000000000000000000000000000000000000000000000000000000000000000000000000000000000000000000000000000000000000000000000000b1754226917e866c1701f1d9f9e135d88f2e86ea000000000000000000000000000000000000000000000000000000000000000000000000000000000000000000000000000000000000000000000000000000448568520600000000000000000000000027a84740fdded5b7d66d9bb6e5d1dea6eb0c01290000000000000000000000000000000000000000000000000000000000000001",
        "valueDecoded": [
          {
            "operation": 0,
            "to": "0xE48D7CaeC1790b293667e4bB2dE1E00536F2bABd",
            "value": "0",
            "data": "0x01d5062a0000000000000000000000005d808608ad70873ca4de50f83416264dc15264c2000000000000000000000000000000000000000000000000000000000000000000000000000000000000000000000000000000000000000000000000000000c00000000000000000000000000000000000000000000000000000000000000000000000000000000000000000000000000000000000000000000000000000000000000000000000000000000000000000000000000000000000000000000151800000000000000000000000000000000000000000000000000000000000000aa46a76120200000000000000000000000040a2accbd92bca938b02010e17a5b8929b49130d000000000000000000000000000000000000000000000000000000000000000000000000000000000000000000000000000000000000000000000000000001400000000000000000000000000000000000000000000000000000000000000001000000000000000000000000000000000000000000000000000000000000000000000000000000000000000000000000000000000000000000000000000000000000000000000000000000000000000000000000000000000000000000000000000000000000000000000000000000000000000000000000000000000000000000000000000000000000000000000000000000000000000000000000000000000000000000000000000000000000000000000000000000000000000000000a2000000000000000000000000000000000000000000000000000000000000008a48d80ff0a0000000000000000000000000000000000000000000000000000000000000020000000000000000000000000000000000000000000000000000000000000085d00db0052e272d1d126617c36a9d6d65c801d1549ce0000000000000000000000000000000000000000000000000000000000000000000000000000000000000000000000000000000000000000000000000000004499a88ec40000000000000000000000003f55654b2b2b86bb11be2f72657f9c33bf88120a000000000000000000000000c6c7a63518d0150d57c6b00cdc7f13eb4b275d7d00db0052e272d1d126617c36a9d6d65c801d1549ce0000000000000000000000000000000000000000000000000000000000000000000000000000000000000000000000000000000000000000000000000000004499a88ec4000000000000000000000000d0930ee96d07de4f9d493c259232222e46b6ec25000000000000000000000000f2cc35a48561c2344577489a0873339f5b7e025f00db0052e272d1d126617c36a9d6d65c801d1549ce0000000000000000000000000000000000000000000000000000000000000000000000000000000000000000000000000000000000000000000000000000004499a88ec40000000000000000000000005557e1fe3068a1e823ce5dcd052c6c352e2617b5000000000000000000000000792ffea0d8734695670697f8b9f03de3f666419d00db0052e272d1d126617c36a9d6d65c801d1549ce0000000000000000000000000000000000000000000000000000000000000000000000000000000000000000000000000000000000000000000000000000004499a88ec4000000000000000000000000132b466d9d5723531f68797519dfed701ac2c7490000000000000000000000006ed28c7dfea8f70a7edec02a1e295da6307fc1bd0027a84740fdded5b7d66d9bb6e5d1dea6eb0c0129000000000000000000000000000000000000000000000000000000000000000000000000000000000000000000000000000000000000000000000000000005a4fc434a8a00000000000000000000000000000000000000000000000000000000000000800000000000000000000000000000000000000000000000000000000000000160000000000000000000000000000000000000000000000000000000000000030000000000000000000000000000000000000000000000000000000000000005600000000000000000000000000000000000000000000000000000000000000006000000000000000000000000b1754226917e866c1701f1d9f9e135d88f2e86ea00000000000000000000000027a84740fdded5b7d66d9bb6e5d1dea6eb0c01290000000000000000000000003f55654b2b2b86bb11be2f72657f9c33bf88120a000000000000000000000000d0930ee96d07de4f9d493c259232222e46b6ec250000000000000000000000005557e1fe3068a1e823ce5dcd052c6c352e2617b5000000000000000000000000132b466d9d5723531f68797519dfed701ac2c7490000000000000000000000000000000000000000000000000000000000000006000000000000000000000000000000000000000000000000000000000000000000000000000000000000000000000000000000000000000000000000000000000000000000000000000000000000000000000000000000000000000000000000000000000000000000000000000000000000000000000000000000000000000000000000000000000000000000000000000000000000000000000000000000000000000000000000000000000000000000000000000000000000000000000000000000000000000000000000000000000000000000000000000000000000000000000000000000000000000000000000000000000000000000000000000000000000000000000000000000000000000000000000000000000000000000000001000000000000000000000000000000000000000000000000000000000000000000000000000000000000000000000000000000000000000000000000000000000000000000000000000000000000000000000000000000000000000000000000000000000000000000000000000000000000000000000000000000000000000600000000000000000000000000000000000000000000000000000000000000c000000000000000000000000000000000000000000000000000000000000001000000000000000000000000000000000000000000000000000000000000000140000000000000000000000000000000000000000000000000000000000000018000000000000000000000000000000000000000000000000000000000000001c00000000000000000000000000000000000000000000000000000000000000200000000000000000000000000000000000000000000000000000000000000000e5061757365725265676973747279000000000000000000000000000000000000000000000000000000000000000000000000000000000000000000000000001050726f746f636f6c5265676973747279000000000000000000000000000000000000000000000000000000000000000000000000000000000000000000000018424e3235344365727469666963617465566572696669657200000000000000000000000000000000000000000000000000000000000000000000000000000018454344534143657274696669636174655665726966696572000000000000000000000000000000000000000000000000000000000000000000000000000000144f70657261746f725461626c6555706461746572000000000000000000000000000000000000000000000000000000000000000000000000000000000000000b5461736b4d61696c626f780000000000000000000000000000000000000000000000000000000000000000000000000000000000000000000000000000000005312e392e30000000000000000000000000000000000000000000000000000000000000000000000000000000000000000000000000000000000000000000000000000000000000000000000000000000000000000000000000000000000041000000000000000000000000e48d7caec1790b293667e4bb2de1e00536f2babd0000000000000000000000000000000000000000000000000000000000000000010000000000000000000000000000000000000000000000000000000000000000000000000000000000000000000000000000000000000000000000",
            "dataDecoded": {
              "method": "schedule",
              "parameters": [
                {
                  "name": "target",
                  "type": "address",
                  "value": "0x5d808608Ad70873ca4dE50F83416264dc15264C2"
                },
                {
                  "name": "value",
                  "type": "uint256",
                  "value": "0"
                },
                {
                  "name": "data",
                  "type": "bytes",
                  "value": "0x6a76120200000000000000000000000040a2accbd92bca938b02010e17a5b8929b49130d000000000000000000000000000000000000000000000000000000000000000000000000000000000000000000000000000000000000000000000000000001400000000000000000000000000000000000000000000000000000000000000001000000000000000000000000000000000000000000000000000000000000000000000000000000000000000000000000000000000000000000000000000000000000000000000000000000000000000000000000000000000000000000000000000000000000000000000000000000000000000000000000000000000000000000000000000000000000000000000000000000000000000000000000000000000000000000000000000000000000000000000000000000000000000000000a2000000000000000000000000000000000000000000000000000000000000008a48d80ff0a0000000000000000000000000000000000000000000000000000000000000020000000000000000000000000000000000000000000000000000000000000085d00db0052e272d1d126617c36a9d6d65c801d1549ce0000000000000000000000000000000000000000000000000000000000000000000000000000000000000000000000000000000000000000000000000000004499a88ec40000000000000000000000003f55654b2b2b86bb11be2f72657f9c33bf88120a000000000000000000000000c6c7a63518d0150d57c6b00cdc7f13eb4b275d7d00db0052e272d1d126617c36a9d6d65c801d1549ce0000000000000000000000000000000000000000000000000000000000000000000000000000000000000000000000000000000000000000000000000000004499a88ec4000000000000000000000000d0930ee96d07de4f9d493c259232222e46b6ec25000000000000000000000000f2cc35a48561c2344577489a0873339f5b7e025f00db0052e272d1d126617c36a9d6d65c801d1549ce0000000000000000000000000000000000000000000000000000000000000000000000000000000000000000000000000000000000000000000000000000004499a88ec40000000000000000000000005557e1fe3068a1e823ce5dcd052c6c352e2617b5000000000000000000000000792ffea0d8734695670697f8b9f03de3f666419d00db0052e272d1d126617c36a9d6d65c801d1549ce0000000000000000000000000000000000000000000000000000000000000000000000000000000000000000000000000000000000000000000000000000004499a88ec4000000000000000000000000132b466d9d5723531f68797519dfed701ac2c7490000000000000000000000006ed28c7dfea8f70a7edec02a1e295da6307fc1bd0027a84740fdded5b7d66d9bb6e5d1dea6eb0c0129000000000000000000000000000000000000000000000000000000000000000000000000000000000000000000000000000000000000000000000000000005a4fc434a8a00000000000000000000000000000000000000000000000000000000000000800000000000000000000000000000000000000000000000000000000000000160000000000000000000000000000000000000000000000000000000000000030000000000000000000000000000000000000000000000000000000000000005600000000000000000000000000000000000000000000000000000000000000006000000000000000000000000b1754226917e866c1701f1d9f9e135d88f2e86ea00000000000000000000000027a84740fdded5b7d66d9bb6e5d1dea6eb0c01290000000000000000000000003f55654b2b2b86bb11be2f72657f9c33bf88120a000000000000000000000000d0930ee96d07de4f9d493c259232222e46b6ec250000000000000000000000005557e1fe3068a1e823ce5dcd052c6c352e2617b5000000000000000000000000132b466d9d5723531f68797519dfed701ac2c7490000000000000000000000000000000000000000000000000000000000000006000000000000000000000000000000000000000000000000000000000000000000000000000000000000000000000000000000000000000000000000000000000000000000000000000000000000000000000000000000000000000000000000000000000000000000000000000000000000000000000000000000000000000000000000000000000000000000000000000000000000000000000000000000000000000000000000000000000000000000000000000000000000000000000000000000000000000000000000000000000000000000000000000000000000000000000000000000000000000000000000000000000000000000000000000000000000000000000000000000000000000000000000000000000000000000000001000000000000000000000000000000000000000000000000000000000000000000000000000000000000000000000000000000000000000000000000000000000000000000000000000000000000000000000000000000000000000000000000000000000000000000000000000000000000000000000000000000000000000600000000000000000000000000000000000000000000000000000000000000c000000000000000000000000000000000000000000000000000000000000001000000000000000000000000000000000000000000000000000000000000000140000000000000000000000000000000000000000000000000000000000000018000000000000000000000000000000000000000000000000000000000000001c00000000000000000000000000000000000000000000000000000000000000200000000000000000000000000000000000000000000000000000000000000000e5061757365725265676973747279000000000000000000000000000000000000000000000000000000000000000000000000000000000000000000000000001050726f746f636f6c5265676973747279000000000000000000000000000000000000000000000000000000000000000000000000000000000000000000000018424e3235344365727469666963617465566572696669657200000000000000000000000000000000000000000000000000000000000000000000000000000018454344534143657274696669636174655665726966696572000000000000000000000000000000000000000000000000000000000000000000000000000000144f70657261746f725461626c6555706461746572000000000000000000000000000000000000000000000000000000000000000000000000000000000000000b5461736b4d61696c626f780000000000000000000000000000000000000000000000000000000000000000000000000000000000000000000000000000000005312e392e30000000000000000000000000000000000000000000000000000000000000000000000000000000000000000000000000000000000000000000000000000000000000000000000000000000000000000000000000000000000041000000000000000000000000e48d7caec1790b293667e4bb2de1e00536f2babd00000000000000000000000000000000000000000000000000000000000000000100000000000000000000000000000000000000000000000000000000000000"
                },
                {
                  "name": "predecessor",
                  "type": "bytes32",
                  "value": "0x0000000000000000000000000000000000000000000000000000000000000000"
                },
                {
                  "name": "salt",
                  "type": "bytes32",
                  "value": "0x0000000000000000000000000000000000000000000000000000000000000000"
                },
                {
                  "name": "delay",
                  "type": "uint256",
                  "value": "86400"
                }
              ]
            }
          },
          {
            "operation": 0,
            "to": "0xb1754226917e866c1701f1d9F9E135D88f2e86ea",
            "value": "0",
            "data": "0x8568520600000000000000000000000027a84740fdded5b7d66d9bb6e5d1dea6eb0c01290000000000000000000000000000000000000000000000000000000000000001",
            "dataDecoded": null
          }
        ]
      }
    ]
  },
  "confirmationsRequired": 3,
  "confirmations": [
    {
      "owner": "0xdC541e2B4adD96888b2C79006F49A9748A4f1bDF",
      "submissionDate": "2026-01-27T18:49:47.166515Z",
      "transactionHash": null,
      "signature": "0x23e10c7c78d02c45ed05c2ce0d00c5ee02816a2485ad380689ee4375e51537331340e8c885118478bf101f9646e03bc01130ce774919b3db1e4842d03ab93c061c",
      "signatureType": "EOA"
    },
    {
      "owner": "0xE31ad7cFD94bD74C40b53160aA0E8A0b6D340830",
      "submissionDate": "2026-01-27T19:09:18.691551Z",
      "transactionHash": null,
      "signature": "0x01f9d6008de59c657ecfb8f3e9f28e402a5b209303360713d94a08db72027d1e34440e7115c8241cb85f2ad30370272ac789b7b7973a2af2d948d179214183461c",
      "signatureType": "EOA"
    },
    {
      "owner": "0x957236B539bfA49b650B66426BcaFbF477C1c334",
      "submissionDate": "2026-01-27T19:11:38.154893Z",
      "transactionHash": null,
      "signature": "0xdc13f2eb488418fda79153d744f820a717224fe9c21c2127a29ae2c173618a81306e58b834b9c5849198663618ca6c322a0b718920ba76e688825f979470f1a11b",
      "signatureType": "EOA"
    }
  ],
  "trusted": true,
  "signatures": "0xdc13f2eb488418fda79153d744f820a717224fe9c21c2127a29ae2c173618a81306e58b834b9c5849198663618ca6c322a0b718920ba76e688825f979470f1a11b23e10c7c78d02c45ed05c2ce0d00c5ee02816a2485ad380689ee4375e51537331340e8c885118478bf101f9646e03bc01130ce774919b3db1e4842d03ab93c061c01f9d6008de59c657ecfb8f3e9f28e402a5b209303360713d94a08db72027d1e34440e7115c8241cb85f2ad30370272ac789b7b7973a2af2d948d179214183461c"
}