{
  "safe": "0xb094Ba769b4976Dc37fC689A76675f31bc4923b0",
  "to": "0x1BEF05C7303d44e0E2FCD2A19d993eDEd4c51b5B",
  "value": "0",
  "data": "0x01d5062a0000000000000000000000004fda8998ec3b7d4b4a612d45feb8fb36734470f2000000000000000000000000000000000000000000000000000000000000000000000000000000000000000000000000000000000000000000000000000000c000000000000000000000000000000000000000000000000000000000000000000000000000000000000000000000000000000000000000000000000000000000000000000000000000000000000000000000000000000000000000000000000100000000000000000000000000000000000000000000000000000000000005c46a7612020000000000000000000000009641d764fc13c8b624c04430c7356c1c7c8102e200000000000000000000000000000000000000000000000000000000000000000000000000000000000000000000000000000000000000000000000000000140000000000000000000000000000000000000000000000000000000000000000100000000000000000000000000000000000000000000000000000000000000000000000000000000000000000000000000000000000000000000000000000000000000000000000000000000000000000000000000000000000000000000000000000000000000000000000000000000000000000000000000000000000000000000000000000000000000000000000000000000000000000000000000000000000000000000000000000000000000000000000000000000000000000000054000000000000000000000000000000000000000000000000000000000000003c48d80ff0a000000000000000000000000000000000000000000000000000000000000002000000000000000000000000000000000000000000000000000000000000003760056e88cb4f0136fc27d95499de4be2acf47946fa10000000000000000000000000000000000000000000000000000000000000000000000000000000000000000000000000000000000000000000000000000004499a88ec4000000000000000000000000d4a7e1bd8015057293f0d0a557088c286942e84b000000000000000000000000a9821f0620d347648f375c597761c7fd16c1b8230056e88cb4f0136fc27d95499de4be2acf47946fa10000000000000000000000000000000000000000000000000000000000000000000000000000000000000000000000000000000000000000000000000000004499a88ec400000000000000000000000042583067658071247ec8ce0a516a58f682002d07000000000000000000000000b87aeea46bb3a3050d277272e33b011922537db70056e88cb4f0136fc27d95499de4be2acf47946fa10000000000000000000000000000000000000000000000000000000000000000000000000000000000000000000000000000000000000000000000000000004499a88ec40000000000000000000000002e3d6c0744b10eb0a4e6f679f71554a39ec47a5d000000000000000000000000f0a8735c26121e6c488ebac65c8fa3fe37cbfcb30056e88cb4f0136fc27d95499de4be2acf47946fa10000000000000000000000000000000000000000000000000000000000000000000000000000000000000000000000000000000000000000000000000000004499a88ec400000000000000000000000056bfeb94879f4543e756d26103976c567256034a00000000000000000000000010848d61ce044bcaee301a28a4c30ad0a40e88ae0056e88cb4f0136fc27d95499de4be2acf47946fa10000000000000000000000000000000000000000000000000000000000000000000000000000000000000000000000000000000000000000000000000000004499a88ec40000000000000000000000008e93249a6c37a32024756aabd813e6139b17d1d5000000000000000000000000535185d24cd1b2e4f7afde4ee39cf717c00b52b700427e627bc7e83cac0f84337d3ad94230c32697d3000000000000000000000000000000000000000000000000000000000000000000000000000000000000000000000000000000000000000000000000000000243659cfe60000000000000000000000003ba4f6973d9ed2f0617c4b15d8ce06155fd6a43b000000000000000000000000000000000000000000000000000000000000000000000000000000000000000000000000000000000000000000000000000000000000000000410000000000000000000000001bef05c7303d44e0e2fcd2a19d993eded4c51b5b0000000000000000000000000000000000000000000000000000000000000000010000000000000000000000000000000000000000000000000000000000000000000000000000000000000000000000000000000000000000000000",
  "operation": 0,
  "gasToken": "0x0000000000000000000000000000000000000000",
  "safeTxGas": 0,
  "baseGas": 0,
  "gasPrice": "0",
  "refundReceiver": "0x0000000000000000000000000000000000000000",
  "nonce": 7,
  "executionDate": null,
  "submissionDate": "2025-07-08T15:20:20.772104Z",
  "modified": "2025-07-08T15:20:20.831748Z",
  "blockNumber": null,
  "transactionHash": null,
  "safeTxHash": "0x539e558467d993f5c9371f2ba93ef9e207d66daff450d3e9e8ca85858e9067ff",
  "proposer": "0xDA29BB71669f46F2a779b4b62f03644A84eE3479",
  "proposedByDelegate": null,
  "executor": null,
  "isExecuted": false,
  "isSuccessful": null,
  "ethGasPrice": null,
  "maxFeePerGas": null,
  "maxPriorityFeePerGas": null,
  "gasUsed": null,
  "fee": null,
  "origin": "{}",
  "dataDecoded": {
    "method": "schedule",
    "parameters": [
      {
        "name": "target",
        "type": "address",
        "value": "0x4FDA8998EC3b7d4b4A612d45FeB8fB36734470f2"
      },
      {
        "name": "value",
        "type": "uint256",
        "value": "0"
      },
      {
        "name": "data",
        "type": "bytes",
        "value": "0x6a7612020000000000000000000000009641d764fc13c8b624c04430c7356c1c7c8102e200000000000000000000000000000000000000000000000000000000000000000000000000000000000000000000000000000000000000000000000000000140000000000000000000000000000000000000000000000000000000000000000100000000000000000000000000000000000000000000000000000000000000000000000000000000000000000000000000000000000000000000000000000000000000000000000000000000000000000000000000000000000000000000000000000000000000000000000000000000000000000000000000000000000000000000000000000000000000000000000000000000000000000000000000000000000000000000000000000000000000000000000000000000000000000000054000000000000000000000000000000000000000000000000000000000000003c48d80ff0a000000000000000000000000000000000000000000000000000000000000002000000000000000000000000000000000000000000000000000000000000003760056e88cb4f0136fc27d95499de4be2acf47946fa10000000000000000000000000000000000000000000000000000000000000000000000000000000000000000000000000000000000000000000000000000004499a88ec4000000000000000000000000d4a7e1bd8015057293f0d0a557088c286942e84b000000000000000000000000a9821f0620d347648f375c597761c7fd16c1b8230056e88cb4f0136fc27d95499de4be2acf47946fa10000000000000000000000000000000000000000000000000000000000000000000000000000000000000000000000000000000000000000000000000000004499a88ec400000000000000000000000042583067658071247ec8ce0a516a58f682002d07000000000000000000000000b87aeea46bb3a3050d277272e33b011922537db70056e88cb4f0136fc27d95499de4be2acf47946fa10000000000000000000000000000000000000000000000000000000000000000000000000000000000000000000000000000000000000000000000000000004499a88ec40000000000000000000000002e3d6c0744b10eb0a4e6f679f71554a39ec47a5d000000000000000000000000f0a8735c26121e6c488ebac65c8fa3fe37cbfcb30056e88cb4f0136fc27d95499de4be2acf47946fa10000000000000000000000000000000000000000000000000000000000000000000000000000000000000000000000000000000000000000000000000000004499a88ec400000000000000000000000056bfeb94879f4543e756d26103976c567256034a00000000000000000000000010848d61ce044bcaee301a28a4c30ad0a40e88ae0056e88cb4f0136fc27d95499de4be2acf47946fa10000000000000000000000000000000000000000000000000000000000000000000000000000000000000000000000000000000000000000000000000000004499a88ec40000000000000000000000008e93249a6c37a32024756aabd813e6139b17d1d5000000000000000000000000535185d24cd1b2e4f7afde4ee39cf717c00b52b700427e627bc7e83cac0f84337d3ad94230c32697d3000000000000000000000000000000000000000000000000000000000000000000000000000000000000000000000000000000000000000000000000000000243659cfe60000000000000000000000003ba4f6973d9ed2f0617c4b15d8ce06155fd6a43b000000000000000000000000000000000000000000000000000000000000000000000000000000000000000000000000000000000000000000000000000000000000000000410000000000000000000000001bef05c7303d44e0e2fcd2a19d993eded4c51b5b00000000000000000000000000000000000000000000000000000000000000000100000000000000000000000000000000000000000000000000000000000000"
      },
      {
        "name": "predecessor",
        "type": "bytes32",
        "value": "0x0000000000000000000000000000000000000000000000000000000000000000"
      },
      {
        "name": "salt",
        "type": "bytes32",
        "value": "0x0000000000000000000000000000000000000000000000000000000000000000"
      },
      {
        "name": "delay",
        "type": "uint256",
        "value": "1"
      }
    ]
  },
  "confirmationsRequired": 1,
  "confirmations": [
    {
      "owner": "0xDA29BB71669f46F2a779b4b62f03644A84eE3479",
      "submissionDate": "2025-07-08T15:20:20.831748Z",
      "transactionHash": null,
      "signature": "0xb39d80cf227af3f09f7afd37c714af00e65d5100509a1c36c911741435a999976f0915aad5510cc4bbf2135ddeebd2b3b03c1959be20432342e5f1c6309922dc1b",
      "signatureType": "EOA"
    }
  ],
  "trusted": true,
  "signatures": null
}