{
  "safe": "0x461854d84Ee845F905e0eCf6C288DDEEb4A9533F",
  "to": "0xC06Fd4F821eaC1fF1ae8067b36342899b57BAa2d",
  "value": "0",
  "data": "0x134008d3000000000000000000000000369e6f597e22eab55ffb173c6d9cd234bd699111000000000000000000000000000000000000000000000000000000000000000000000000000000000000000000000000000000000000000000000000000000a0000000000000000000000000000000000000000000000000000000000000000000000000000000000000000000000000000000000000000000000000000000000000000000000000000000000000000000000000000000000000000000000d046a76120200000000000000000000000040a2accbd92bca938b02010e17a5b8929b49130d000000000000000000000000000000000000000000000000000000000000000000000000000000000000000000000000000000000000000000000000000001400000000000000000000000000000000000000000000000000000000000000001000000000000000000000000000000000000000000000000000000000000000000000000000000000000000000000000000000000000000000000000000000000000000000000000000000000000000000000000000000000000000000000000000000000000000000000000000000000000000000000000000000000000000000000000000000000000000000000000000000000000000000000000000000000000000000000000000000000000000000000000000000000000000000000c800000000000000000000000000000000000000000000000000000000000000b048d80ff0a00000000000000000000000000000000000000000000000000000000000000200000000000000000000000000000000000000000000000000000000000000aa2008b9566ada63b64d1e1dcf1418b43fd1433b724440000000000000000000000000000000000000000000000000000000000000000000000000000000000000000000000000000000000000000000000000000004499a88ec400000000000000000000000039053d51b77dc0d36036fc1fcc8cb819df8ef37a0000000000000000000000006eed6c2802df347e05884857cddb2d3e96d12f89008b9566ada63b64d1e1dcf1418b43fd1433b724440000000000000000000000000000000000000000000000000000000000000000000000000000000000000000000000000000000000000000000000000000004499a88ec4000000000000000000000000948a420b8cc1d6bfd0b6087c2e7c344a2cd0bc39000000000000000000000000c97602648fa52f92b4ee2b0e5a54bd15b6cb0345008b9566ada63b64d1e1dcf1418b43fd1433b724440000000000000000000000000000000000000000000000000000000000000000000000000000000000000000000000000000000000000000000000000000004499a88ec4000000000000000000000000858646372cc42e1a627fce94aa7a7033e7cf075a00000000000000000000000046aefd30415be99e20169ee7046f65784b46d123008b9566ada63b64d1e1dcf1418b43fd1433b724440000000000000000000000000000000000000000000000000000000000000000000000000000000000000000000000000000000000000000000000000000004499a88ec400000000000000000000000091e677b07f7af907ec9a428aafa9fc14a0d3a338000000000000000000000000e48d7caec1790b293667e4bb2de1e00536f2babd008b9566ada63b64d1e1dcf1418b43fd1433b724440000000000000000000000000000000000000000000000000000000000000000000000000000000000000000000000000000000000000000000000000000004499a88ec4000000000000000000000000acb55c530acdb2849e6d4f36992cd8c9d50ed8f7000000000000000000000000530fdb7adf7d489df49c27e3d3512c0dd64886be000ed6703c298d28ae0878d1b28e88ca87f9662fe9000000000000000000000000000000000000000000000000000000000000000000000000000000000000000000000000000000000000000000000000000000243659cfe6000000000000000000000000d4d1746142642db4c1ab17b03b9c58baac913e5b008b9566ada63b64d1e1dcf1418b43fd1433b724440000000000000000000000000000000000000000000000000000000000000000000000000000000000000000000000000000000000000000000000000000004499a88ec400000000000000000000000093c4b944d05dfe6df7645a86cd2206016c51564d00000000000000000000000062f7226fb9d615590eadb539713b250fb2fdf4e0008b9566ada63b64d1e1dcf1418b43fd1433b724440000000000000000000000000000000000000000000000000000000000000000000000000000000000000000000000000000000000000000000000000000004499a88ec40000000000000000000000001bee69b7dfffa4e2d53c2a2df135c388ad25dcd200000000000000000000000062f7226fb9d615590eadb539713b250fb2fdf4e0008b9566ada63b64d1e1dcf1418b43fd1433b724440000000000000000000000000000000000000000000000000000000000000000000000000000000000000000000000000000000000000000000000000000004499a88ec400000000000000000000000054945180db7943c0ed0fee7edab2bd24620256bc00000000000000000000000062f7226fb9d615590eadb539713b250fb2fdf4e0008b9566ada63b64d1e1dcf1418b43fd1433b724440000000000000000000000000000000000000000000000000000000000000000000000000000000000000000000000000000000000000000000000000000004499a88ec40000000000000000000000009d7ed45ee2e8fc5482fa2428f15c971e6369011d00000000000000000000000062f7226fb9d615590eadb539713b250fb2fdf4e0008b9566ada63b64d1e1dcf1418b43fd1433b724440000000000000000000000000000000000000000000000000000000000000000000000000000000000000000000000000000000000000000000000000000004499a88ec400000000000000000000000013760f50a9d7377e4f20cb8cf9e4c26586c658ff00000000000000000000000062f7226fb9d615590eadb539713b250fb2fdf4e0008b9566ada63b64d1e1dcf1418b43fd1433b724440000000000000000000000000000000000000000000000000000000000000000000000000000000000000000000000000000000000000000000000000000004499a88ec4000000000000000000000000a4c637e0f704745d182e4d38cab7e7485321d05900000000000000000000000062f7226fb9d615590eadb539713b250fb2fdf4e0008b9566ada63b64d1e1dcf1418b43fd1433b724440000000000000000000000000000000000000000000000000000000000000000000000000000000000000000000000000000000000000000000000000000004499a88ec400000000000000000000000057ba429517c3473b6d34ca9acd56c0e735b94c0200000000000000000000000062f7226fb9d615590eadb539713b250fb2fdf4e0008b9566ada63b64d1e1dcf1418b43fd1433b724440000000000000000000000000000000000000000000000000000000000000000000000000000000000000000000000000000000000000000000000000000004499a88ec40000000000000000000000000fe4f44bee93503346a3ac9ee5a26b130a5796d600000000000000000000000062f7226fb9d615590eadb539713b250fb2fdf4e0008b9566ada63b64d1e1dcf1418b43fd1433b724440000000000000000000000000000000000000000000000000000000000000000000000000000000000000000000000000000000000000000000000000000004499a88ec40000000000000000000000007ca911e83dabf90c90dd3de5411a10f1a611218400000000000000000000000062f7226fb9d615590eadb539713b250fb2fdf4e0008b9566ada63b64d1e1dcf1418b43fd1433b724440000000000000000000000000000000000000000000000000000000000000000000000000000000000000000000000000000000000000000000000000000004499a88ec40000000000000000000000008ca7a5d6f3acd3a7a8bc468a8cd0fb14b6bd28b600000000000000000000000062f7226fb9d615590eadb539713b250fb2fdf4e0008b9566ada63b64d1e1dcf1418b43fd1433b724440000000000000000000000000000000000000000000000000000000000000000000000000000000000000000000000000000000000000000000000000000004499a88ec4000000000000000000000000ae60d8180437b5c34bb956822ac271097258447300000000000000000000000062f7226fb9d615590eadb539713b250fb2fdf4e0008b9566ada63b64d1e1dcf1418b43fd1433b724440000000000000000000000000000000000000000000000000000000000000000000000000000000000000000000000000000000000000000000000000000004499a88ec4000000000000000000000000298afb19a105d59e74658c4c334ff360bade6dd200000000000000000000000062f7226fb9d615590eadb539713b250fb2fdf4e0000000000000000000000000000000000000000000000000000000000000000000000000000000000000000000000000000000000000000000000000000000000000000000000000000000000000000000000000000000000041000000000000000000000000c06fd4f821eac1ff1ae8067b36342899b57baa2d0000000000000000000000000000000000000000000000000000000000000000010000000000000000000000000000000000000000000000000000000000000000000000000000000000000000000000000000000000000000000000",
  "operation": 0,
  "gasToken": "0x0000000000000000000000000000000000000000",
  "safeTxGas": 0,
  "baseGas": 0,
  "gasPrice": "0",
  "refundReceiver": "0x0000000000000000000000000000000000000000",
  "nonce": 12,
  "executionDate": "2025-07-21T21:02:35Z",
  "submissionDate": "2025-07-21T20:31:30.668711Z",
  "modified": "2025-07-21T21:02:45.092363Z",
  "blockNumber": 22970122,
  "transactionHash": "0xf5d819a6b5fcc031b468d79e83bdb64e0417817f2b0b4f26e5b4ff84284af5a2",
  "safeTxHash": "0x8b0a829ab47f8d99bc374967e951a2b7390a340a35c26c38aa0346db294dddef",
  "proposer": "0x9229C290F60F303884073F28EB8E81F9B82506d5",
  "proposedByDelegate": null,
  "executor": "0x9229C290F60F303884073F28EB8E81F9B82506d5",
  "isExecuted": true,
  "isSuccessful": true,
  "ethGasPrice": "1321056008",
  "maxFeePerGas": "1389964198",
  "maxPriorityFeePerGas": "96584129",
  "gasUsed": 425133,
  "fee": "561624503849064",
  "origin": "{}",
  "dataDecoded": {
    "method": "execute",
    "parameters": [
      {
        "name": "target",
        "type": "address",
        "value": "0x369e6F597e22EaB55fFb173C6d9cD234BD699111"
      },
      {
        "name": "value",
        "type": "uint256",
        "value": "0"
      },
      {
        "name": "payload",
        "type": "bytes",
        "value": "0x6a76120200000000000000000000000040a2accbd92bca938b02010e17a5b8929b49130d000000000000000000000000000000000000000000000000000000000000000000000000000000000000000000000000000000000000000000000000000001400000000000000000000000000000000000000000000000000000000000000001000000000000000000000000000000000000000000000000000000000000000000000000000000000000000000000000000000000000000000000000000000000000000000000000000000000000000000000000000000000000000000000000000000000000000000000000000000000000000000000000000000000000000000000000000000000000000000000000000000000000000000000000000000000000000000000000000000000000000000000000000000000000000000000c800000000000000000000000000000000000000000000000000000000000000b048d80ff0a00000000000000000000000000000000000000000000000000000000000000200000000000000000000000000000000000000000000000000000000000000aa2008b9566ada63b64d1e1dcf1418b43fd1433b724440000000000000000000000000000000000000000000000000000000000000000000000000000000000000000000000000000000000000000000000000000004499a88ec400000000000000000000000039053d51b77dc0d36036fc1fcc8cb819df8ef37a0000000000000000000000006eed6c2802df347e05884857cddb2d3e96d12f89008b9566ada63b64d1e1dcf1418b43fd1433b724440000000000000000000000000000000000000000000000000000000000000000000000000000000000000000000000000000000000000000000000000000004499a88ec4000000000000000000000000948a420b8cc1d6bfd0b6087c2e7c344a2cd0bc39000000000000000000000000c97602648fa52f92b4ee2b0e5a54bd15b6cb0345008b9566ada63b64d1e1dcf1418b43fd1433b724440000000000000000000000000000000000000000000000000000000000000000000000000000000000000000000000000000000000000000000000000000004499a88ec4000000000000000000000000858646372cc42e1a627fce94aa7a7033e7cf075a00000000000000000000000046aefd30415be99e20169ee7046f65784b46d123008b9566ada63b64d1e1dcf1418b43fd1433b724440000000000000000000000000000000000000000000000000000000000000000000000000000000000000000000000000000000000000000000000000000004499a88ec400000000000000000000000091e677b07f7af907ec9a428aafa9fc14a0d3a338000000000000000000000000e48d7caec1790b293667e4bb2de1e00536f2babd008b9566ada63b64d1e1dcf1418b43fd1433b724440000000000000000000000000000000000000000000000000000000000000000000000000000000000000000000000000000000000000000000000000000004499a88ec4000000000000000000000000acb55c530acdb2849e6d4f36992cd8c9d50ed8f7000000000000000000000000530fdb7adf7d489df49c27e3d3512c0dd64886be000ed6703c298d28ae0878d1b28e88ca87f9662fe9000000000000000000000000000000000000000000000000000000000000000000000000000000000000000000000000000000000000000000000000000000243659cfe6000000000000000000000000d4d1746142642db4c1ab17b03b9c58baac913e5b008b9566ada63b64d1e1dcf1418b43fd1433b724440000000000000000000000000000000000000000000000000000000000000000000000000000000000000000000000000000000000000000000000000000004499a88ec400000000000000000000000093c4b944d05dfe6df7645a86cd2206016c51564d00000000000000000000000062f7226fb9d615590eadb539713b250fb2fdf4e0008b9566ada63b64d1e1dcf1418b43fd1433b724440000000000000000000000000000000000000000000000000000000000000000000000000000000000000000000000000000000000000000000000000000004499a88ec40000000000000000000000001bee69b7dfffa4e2d53c2a2df135c388ad25dcd200000000000000000000000062f7226fb9d615590eadb539713b250fb2fdf4e0008b9566ada63b64d1e1dcf1418b43fd1433b724440000000000000000000000000000000000000000000000000000000000000000000000000000000000000000000000000000000000000000000000000000004499a88ec400000000000000000000000054945180db7943c0ed0fee7edab2bd24620256bc00000000000000000000000062f7226fb9d615590eadb539713b250fb2fdf4e0008b9566ada63b64d1e1dcf1418b43fd1433b724440000000000000000000000000000000000000000000000000000000000000000000000000000000000000000000000000000000000000000000000000000004499a88ec40000000000000000000000009d7ed45ee2e8fc5482fa2428f15c971e6369011d00000000000000000000000062f7226fb9d615590eadb539713b250fb2fdf4e0008b9566ada63b64d1e1dcf1418b43fd1433b724440000000000000000000000000000000000000000000000000000000000000000000000000000000000000000000000000000000000000000000000000000004499a88ec400000000000000000000000013760f50a9d7377e4f20cb8cf9e4c26586c658ff00000000000000000000000062f7226fb9d615590eadb539713b250fb2fdf4e0008b9566ada63b64d1e1dcf1418b43fd1433b724440000000000000000000000000000000000000000000000000000000000000000000000000000000000000000000000000000000000000000000000000000004499a88ec4000000000000000000000000a4c637e0f704745d182e4d38cab7e7485321d05900000000000000000000000062f7226fb9d615590eadb539713b250fb2fdf4e0008b9566ada63b64d1e1dcf1418b43fd1433b724440000000000000000000000000000000000000000000000000000000000000000000000000000000000000000000000000000000000000000000000000000004499a88ec400000000000000000000000057ba429517c3473b6d34ca9acd56c0e735b94c0200000000000000000000000062f7226fb9d615590eadb539713b250fb2fdf4e0008b9566ada63b64d1e1dcf1418b43fd1433b724440000000000000000000000000000000000000000000000000000000000000000000000000000000000000000000000000000000000000000000000000000004499a88ec40000000000000000000000000fe4f44bee93503346a3ac9ee5a26b130a5796d600000000000000000000000062f7226fb9d615590eadb539713b250fb2fdf4e0008b9566ada63b64d1e1dcf1418b43fd1433b724440000000000000000000000000000000000000000000000000000000000000000000000000000000000000000000000000000000000000000000000000000004499a88ec40000000000000000000000007ca911e83dabf90c90dd3de5411a10f1a611218400000000000000000000000062f7226fb9d615590eadb539713b250fb2fdf4e0008b9566ada63b64d1e1dcf1418b43fd1433b724440000000000000000000000000000000000000000000000000000000000000000000000000000000000000000000000000000000000000000000000000000004499a88ec40000000000000000000000008ca7a5d6f3acd3a7a8bc468a8cd0fb14b6bd28b600000000000000000000000062f7226fb9d615590eadb539713b250fb2fdf4e0008b9566ada63b64d1e1dcf1418b43fd1433b724440000000000000000000000000000000000000000000000000000000000000000000000000000000000000000000000000000000000000000000000000000004499a88ec4000000000000000000000000ae60d8180437b5c34bb956822ac271097258447300000000000000000000000062f7226fb9d615590eadb539713b250fb2fdf4e0008b9566ada63b64d1e1dcf1418b43fd1433b724440000000000000000000000000000000000000000000000000000000000000000000000000000000000000000000000000000000000000000000000000000004499a88ec4000000000000000000000000298afb19a105d59e74658c4c334ff360bade6dd200000000000000000000000062f7226fb9d615590eadb539713b250fb2fdf4e0000000000000000000000000000000000000000000000000000000000000000000000000000000000000000000000000000000000000000000000000000000000000000000000000000000000000000000000000000000000041000000000000000000000000c06fd4f821eac1ff1ae8067b36342899b57baa2d00000000000000000000000000000000000000000000000000000000000000000100000000000000000000000000000000000000000000000000000000000000"
      },
      {
        "name": "predecessor",
        "type": "bytes32",
        "value": "0x0000000000000000000000000000000000000000000000000000000000000000"
      },
      {
        "name": "salt",
        "type": "bytes32",
        "value": "0x0000000000000000000000000000000000000000000000000000000000000000"
      }
    ]
  },
  "confirmationsRequired": 3,
  "confirmations": [
    {
      "owner": "0x9229C290F60F303884073F28EB8E81F9B82506d5",
      "submissionDate": "2025-07-21T20:31:30.782993Z",
      "transactionHash": null,
      "signature": "0xd0f6d73b19cb4ef6373359f51822823921886430c1fbf7419279480b872b525a3467d6d5e72ee321f6f32bf0960525dfe49f34fcc0bae5020cf93b453ac258e51b",
      "signatureType": "EOA"
    },
    {
      "owner": "0xc5280E368648b0e192b355c7d8330593bA7af700",
      "submissionDate": "2025-07-21T20:58:52.443476Z",
      "transactionHash": null,
      "signature": "0x95f9504ec34e8c19dd92a78a3baa7865bed97bf968c21977c6f1b41a573d66d755b1cef1a9f73ced40926c672a21159464f8ecb65c56a72875004337239763d91c",
      "signatureType": "EOA"
    },
    {
      "owner": "0x3e89Ef7435d4A3e0b52b70B1176f849b351953eE",
      "submissionDate": "2025-07-21T21:00:43.623277Z",
      "transactionHash": null,
      "signature": "0x77d57648b917c429858ac51252dc0d67ac0df889a8625efe8ba109fc7bdb290f6a9e7a433bd2634159270be307893b183f24e6535a440a1c91c3b2303a996c781b",
      "signatureType": "EOA"
    }
  ],
  "trusted": true,
  "signatures": "0x77d57648b917c429858ac51252dc0d67ac0df889a8625efe8ba109fc7bdb290f6a9e7a433bd2634159270be307893b183f24e6535a440a1c91c3b2303a996c781bd0f6d73b19cb4ef6373359f51822823921886430c1fbf7419279480b872b525a3467d6d5e72ee321f6f32bf0960525dfe49f34fcc0bae5020cf93b453ac258e51b95f9504ec34e8c19dd92a78a3baa7865bed97bf968c21977c6f1b41a573d66d755b1cef1a9f73ced40926c672a21159464f8ecb65c56a72875004337239763d91c"
}