{
  "safe": "0xa3053EF25F1F7d9D55a7655372B8a31D0f40eCA9",
  "to": "0x9641d764fc13c8B624c04430C7356C1C7C8102e2",
  "value": "0",
  "data": "0x8d80ff0a000000000000000000000000000000000000000000000000000000000000002000000000000000000000000000000000000000000000000000000000000001920027a84740fdded5b7d66d9bb6e5d1dea6eb0c0129000000000000000000000000000000000000000000000000000000000000000000000000000000000000000000000000000000000000000000000000000000c44f1ef286000000000000000000000000069f49be653522fd3f806920f3c21b15f351f9bc00000000000000000000000000000000000000000000000000000000000000400000000000000000000000000000000000000000000000000000000000000044485cc9550000000000000000000000005d808608ad70873ca4de50f83416264dc15264c20000000000000000000000001a051ef1524cbaea57ca04319ef93fe78903d5e6000000000000000000000000000000000000000000000000000000000027a84740fdded5b7d66d9bb6e5d1dea6eb0c0129000000000000000000000000000000000000000000000000000000000000000000000000000000000000000000000000000000000000000000000000000000248f283970000000000000000000000000db0052e272d1d126617c36a9d6d65c801d1549ce0000000000000000000000000000",
  "operation": 1,
  "gasToken": "0x0000000000000000000000000000000000000000",
  "safeTxGas": "0",
  "baseGas": "0",
  "gasPrice": "0",
  "refundReceiver": "0x0000000000000000000000000000000000000000",
  "nonce": "6",
  "executionDate": "2026-01-27T18:34:55Z",
  "submissionDate": "2026-01-27T18:24:06.066449Z",
  "modified": "2026-01-27T18:34:58.532016Z",
  "blockNumber": 41374774,
  "transactionHash": "0x5b5a0c3f6f328792870c285a4d883b4e0bdf9e9692224b61ea32befe82798e2a",
  "safeTxHash": "0xeb05614d2d8ca212b31ea6ee2d1fdd1b4ff96248701208adb67486d0e0866c18",
  "proposer": "0x792e42f05E87Fb9D8b8F9FdFC598B1de20507964",
  "proposedByDelegate": null,
  "executor": "0xba9A3c0a22bAebE8c4926227BdE32d6EdC0D5d28",
  "isExecuted": true,
  "isSuccessful": true,
  "ethGasPrice": "4472689",
  "maxFeePerGas": "5884473",
  "maxPriorityFeePerGas": "1010000",
  "gasUsed": 312807,
  "fee": "1399088428023",
  "origin": "{}",
  "dataDecoded": {
    "method": "multiSend",
    "parameters": [
      {
        "name": "transactions",
        "type": "bytes",
        "value": "0x0027a84740fdded5b7d66d9bb6e5d1dea6eb0c0129000000000000000000000000000000000000000000000000000000000000000000000000000000000000000000000000000000000000000000000000000000c44f1ef286000000000000000000000000069f49be653522fd3f806920f3c21b15f351f9bc00000000000000000000000000000000000000000000000000000000000000400000000000000000000000000000000000000000000000000000000000000044485cc9550000000000000000000000005d808608ad70873ca4de50f83416264dc15264c20000000000000000000000001a051ef1524cbaea57ca04319ef93fe78903d5e6000000000000000000000000000000000000000000000000000000000027a84740fdded5b7d66d9bb6e5d1dea6eb0c0129000000000000000000000000000000000000000000000000000000000000000000000000000000000000000000000000000000000000000000000000000000248f283970000000000000000000000000db0052e272d1d126617c36a9d6d65c801d1549ce",
        "valueDecoded": [
          {
            "operation": 0,
            "to": "0x27a84740FdDed5B7D66d9bb6E5d1DEA6eb0C0129",
            "value": "0",
            "data": "0x4f1ef286000000000000000000000000069f49be653522fd3f806920f3c21b15f351f9bc00000000000000000000000000000000000000000000000000000000000000400000000000000000000000000000000000000000000000000000000000000044485cc9550000000000000000000000005d808608ad70873ca4de50f83416264dc15264c20000000000000000000000001a051ef1524cbaea57ca04319ef93fe78903d5e600000000000000000000000000000000000000000000000000000000",
            "dataDecoded": {
              "method": "upgradeToAndCall",
              "parameters": [
                {
                  "name": "newImplementation",
                  "type": "address",
                  "value": "0x069f49Be653522fd3F806920f3C21b15F351f9bC"
                },
                {
                  "name": "data",
                  "type": "bytes",
                  "value": "0x485cc9550000000000000000000000005d808608ad70873ca4de50f83416264dc15264c20000000000000000000000001a051ef1524cbaea57ca04319ef93fe78903d5e6"
                }
              ]
            }
          },
          {
            "operation": 0,
            "to": "0x27a84740FdDed5B7D66d9bb6E5d1DEA6eb0C0129",
            "value": "0",
            "data": "0x8f283970000000000000000000000000db0052e272d1d126617c36a9d6d65c801d1549ce",
            "dataDecoded": {
              "method": "changeAdmin",
              "parameters": [
                {
                  "name": "newAdmin",
                  "type": "address",
                  "value": "0xDb0052E272D1D126617c36A9D6d65C801d1549CE"
                }
              ]
            }
          }
        ]
      }
    ]
  },
  "confirmationsRequired": 3,
  "confirmations": [
    {
      "owner": "0x792e42f05E87Fb9D8b8F9FdFC598B1de20507964",
      "submissionDate": "2026-01-27T18:24:06.104299Z",
      "transactionHash": null,
      "signature": "0x76f0535a358074ec54a76574e59c739dfe5372285a9a480f77ed3cbaf9f8edc416324423ca1cb43952b539088c5927f297298e729f1531beb95311644bcbcfe31c",
      "signatureType": "EOA"
    },
    {
      "owner": "0xE31ad7cFD94bD74C40b53160aA0E8A0b6D340830",
      "submissionDate": "2026-01-27T18:32:45.000052Z",
      "transactionHash": null,
      "signature": "0xc5230f683367100c6f26ab1bfeb71213c47d3db7c916bd8a73a43de4eca1f88a0480d7472e4cd859d2e33eef19ccbcf7330b49454e5f195b17ff315ebcf1a8961b",
      "signatureType": "EOA"
    },
    {
      "owner": "0xdC541e2B4adD96888b2C79006F49A9748A4f1bDF",
      "submissionDate": "2026-01-27T18:34:44.114444Z",
      "transactionHash": null,
      "signature": "0x74ab040e103b6f94433829d5781d7cea1362736edb20611253f59e2d855002715af6cc9abc50c58c086d203905fdeaa01a1f1dcbf6bb5a62844458a7feb436b71c",
      "signatureType": "EOA"
    }
  ],
  "trusted": true,
  "signatures": "0x76f0535a358074ec54a76574e59c739dfe5372285a9a480f77ed3cbaf9f8edc416324423ca1cb43952b539088c5927f297298e729f1531beb95311644bcbcfe31c74ab040e103b6f94433829d5781d7cea1362736edb20611253f59e2d855002715af6cc9abc50c58c086d203905fdeaa01a1f1dcbf6bb5a62844458a7feb436b71cc5230f683367100c6f26ab1bfeb71213c47d3db7c916bd8a73a43de4eca1f88a0480d7472e4cd859d2e33eef19ccbcf7330b49454e5f195b17ff315ebcf1a8961b"
}