{
  "safe": "0x8eA6C3Cca1c96967F7B164FfaA5fabede10311A9",
  "to": "0x1BEF05C7303d44e0E2FCD2A19d993eDEd4c51b5B",
  "value": "0",
  "data": "0x134008d30000000000000000000000004fda8998ec3b7d4b4a612d45feb8fb36734470f2000000000000000000000000000000000000000000000000000000000000000000000000000000000000000000000000000000000000000000000000000000a00000000000000000000000000000000000000000000000000000000000000000000000000000000000000000000000000000000000000000000000000000000000000000000000000000000000000000000000000000000000000000000005c46a7612020000000000000000000000009641d764fc13c8b624c04430c7356c1c7c8102e200000000000000000000000000000000000000000000000000000000000000000000000000000000000000000000000000000000000000000000000000000140000000000000000000000000000000000000000000000000000000000000000100000000000000000000000000000000000000000000000000000000000000000000000000000000000000000000000000000000000000000000000000000000000000000000000000000000000000000000000000000000000000000000000000000000000000000000000000000000000000000000000000000000000000000000000000000000000000000000000000000000000000000000000000000000000000000000000000000000000000000000000000000000000000000000054000000000000000000000000000000000000000000000000000000000000003c48d80ff0a000000000000000000000000000000000000000000000000000000000000002000000000000000000000000000000000000000000000000000000000000003760056e88cb4f0136fc27d95499de4be2acf47946fa10000000000000000000000000000000000000000000000000000000000000000000000000000000000000000000000000000000000000000000000000000004499a88ec4000000000000000000000000d4a7e1bd8015057293f0d0a557088c286942e84b0000000000000000000000008a62419f507cf5fafacafad1e0c20c49a0bbfddb0056e88cb4f0136fc27d95499de4be2acf47946fa10000000000000000000000000000000000000000000000000000000000000000000000000000000000000000000000000000000000000000000000000000004499a88ec400000000000000000000000042583067658071247ec8ce0a516a58f682002d07000000000000000000000000b36883818b5a4d25c409a81946de9067cdc8dad60056e88cb4f0136fc27d95499de4be2acf47946fa10000000000000000000000000000000000000000000000000000000000000000000000000000000000000000000000000000000000000000000000000000004499a88ec40000000000000000000000002e3d6c0744b10eb0a4e6f679f71554a39ec47a5d000000000000000000000000994213ce37db1d6ac856ad014d4392f60eb16e420056e88cb4f0136fc27d95499de4be2acf47946fa10000000000000000000000000000000000000000000000000000000000000000000000000000000000000000000000000000000000000000000000000000004499a88ec400000000000000000000000056bfeb94879f4543e756d26103976c567256034a000000000000000000000000b417f83047db5197d52af36302a23b4878f2b4990056e88cb4f0136fc27d95499de4be2acf47946fa10000000000000000000000000000000000000000000000000000000000000000000000000000000000000000000000000000000000000000000000000000004499a88ec40000000000000000000000008e93249a6c37a32024756aabd813e6139b17d1d5000000000000000000000000d2dcaf17966337fdb2ae586a3068c4df2f516a6800427e627bc7e83cac0f84337d3ad94230c32697d3000000000000000000000000000000000000000000000000000000000000000000000000000000000000000000000000000000000000000000000000000000243659cfe60000000000000000000000003f718edeec587081d105f1120934254d039585ce000000000000000000000000000000000000000000000000000000000000000000000000000000000000000000000000000000000000000000000000000000000000000000410000000000000000000000001bef05c7303d44e0e2fcd2a19d993eded4c51b5b0000000000000000000000000000000000000000000000000000000000000000010000000000000000000000000000000000000000000000000000000000000000000000000000000000000000000000000000000000000000000000",
  "operation": 0,
  "gasToken": "0x0000000000000000000000000000000000000000",
  "safeTxGas": 0,
  "baseGas": 0,
  "gasPrice": "0",
  "refundReceiver": "0x0000000000000000000000000000000000000000",
  "nonce": 5,
  "executionDate": "2025-06-02T20:51:48Z",
  "submissionDate": "2025-06-02T20:47:16.550789Z",
  "modified": "2025-06-02T20:51:51.698700Z",
  "blockNumber": 8463211,
  "transactionHash": "0xd2eeacfac545ab482a0890a0800cfccc0f36d7e7a178eaea896335a9807624e0",
  "safeTxHash": "0x78f95ef49f172c9e995894ed05a72ad0e921716296cbcd511e5935d59b84e7b6",
  "proposer": "0xDA29BB71669f46F2a779b4b62f03644A84eE3479",
  "proposedByDelegate": null,
  "executor": "0xDA29BB71669f46F2a779b4b62f03644A84eE3479",
  "isExecuted": true,
  "isSuccessful": true,
  "ethGasPrice": "1000011",
  "maxFeePerGas": "1000020",
  "maxPriorityFeePerGas": "1000000",
  "gasUsed": 216098,
  "fee": "216100377078",
  "origin": "{}",
  "dataDecoded": {
    "method": "execute",
    "parameters": [
      {
        "name": "target",
        "type": "address",
        "value": "0x4FDA8998EC3b7d4b4A612d45FeB8fB36734470f2"
      },
      {
        "name": "value",
        "type": "uint256",
        "value": "0"
      },
      {
        "name": "payload",
        "type": "bytes",
        "value": "0x6a7612020000000000000000000000009641d764fc13c8b624c04430c7356c1c7c8102e200000000000000000000000000000000000000000000000000000000000000000000000000000000000000000000000000000000000000000000000000000140000000000000000000000000000000000000000000000000000000000000000100000000000000000000000000000000000000000000000000000000000000000000000000000000000000000000000000000000000000000000000000000000000000000000000000000000000000000000000000000000000000000000000000000000000000000000000000000000000000000000000000000000000000000000000000000000000000000000000000000000000000000000000000000000000000000000000000000000000000000000000000000000000000000000054000000000000000000000000000000000000000000000000000000000000003c48d80ff0a000000000000000000000000000000000000000000000000000000000000002000000000000000000000000000000000000000000000000000000000000003760056e88cb4f0136fc27d95499de4be2acf47946fa10000000000000000000000000000000000000000000000000000000000000000000000000000000000000000000000000000000000000000000000000000004499a88ec4000000000000000000000000d4a7e1bd8015057293f0d0a557088c286942e84b0000000000000000000000008a62419f507cf5fafacafad1e0c20c49a0bbfddb0056e88cb4f0136fc27d95499de4be2acf47946fa10000000000000000000000000000000000000000000000000000000000000000000000000000000000000000000000000000000000000000000000000000004499a88ec400000000000000000000000042583067658071247ec8ce0a516a58f682002d07000000000000000000000000b36883818b5a4d25c409a81946de9067cdc8dad60056e88cb4f0136fc27d95499de4be2acf47946fa10000000000000000000000000000000000000000000000000000000000000000000000000000000000000000000000000000000000000000000000000000004499a88ec40000000000000000000000002e3d6c0744b10eb0a4e6f679f71554a39ec47a5d000000000000000000000000994213ce37db1d6ac856ad014d4392f60eb16e420056e88cb4f0136fc27d95499de4be2acf47946fa10000000000000000000000000000000000000000000000000000000000000000000000000000000000000000000000000000000000000000000000000000004499a88ec400000000000000000000000056bfeb94879f4543e756d26103976c567256034a000000000000000000000000b417f83047db5197d52af36302a23b4878f2b4990056e88cb4f0136fc27d95499de4be2acf47946fa10000000000000000000000000000000000000000000000000000000000000000000000000000000000000000000000000000000000000000000000000000004499a88ec40000000000000000000000008e93249a6c37a32024756aabd813e6139b17d1d5000000000000000000000000d2dcaf17966337fdb2ae586a3068c4df2f516a6800427e627bc7e83cac0f84337d3ad94230c32697d3000000000000000000000000000000000000000000000000000000000000000000000000000000000000000000000000000000000000000000000000000000243659cfe60000000000000000000000003f718edeec587081d105f1120934254d039585ce000000000000000000000000000000000000000000000000000000000000000000000000000000000000000000000000000000000000000000000000000000000000000000410000000000000000000000001bef05c7303d44e0e2fcd2a19d993eded4c51b5b00000000000000000000000000000000000000000000000000000000000000000100000000000000000000000000000000000000000000000000000000000000"
      },
      {
        "name": "predecessor",
        "type": "bytes32",
        "value": "0x0000000000000000000000000000000000000000000000000000000000000000"
      },
      {
        "name": "salt",
        "type": "bytes32",
        "value": "0x0000000000000000000000000000000000000000000000000000000000000000"
      }
    ]
  },
  "confirmationsRequired": 1,
  "confirmations": [
    {
      "owner": "0xDA29BB71669f46F2a779b4b62f03644A84eE3479",
      "submissionDate": "2025-06-02T20:47:16.623922Z",
      "transactionHash": null,
      "signature": "0x4278934ea997255c7ef81984bca202587ac26498201b8eb74daf074354247839076ad8c73ae5c32776999ef3951294473f31c4e3eda89cb26c45776ea1364ef91c",
      "signatureType": "EOA"
    }
  ],
  "trusted": true,
  "signatures": "0x4278934ea997255c7ef81984bca202587ac26498201b8eb74daf074354247839076ad8c73ae5c32776999ef3951294473f31c4e3eda89cb26c45776ea1364ef91c"
}