{
  "safe": "0xd140eE77d9e62901d8cEFf199d3ef4Dd1F4Eaff4",
  "to": "0x5e83c7d195318A5acf46B29E5810DdC323b2F6fD",
  "value": "0",
  "data": "0x134008d300000000000000000000000028ade60640fdbdb2609d8d8734d1b5cbefc0c348000000000000000000000000000000000000000000000000000000000000000000000000000000000000000000000000000000000000000000000000000000a00000000000000000000000000000000000000000000000000000000000000000000000000000000000000000000000000000000000000000000000000000000000000000000000000000000000000000000000000000000000000000000003646a76120200000000000000000000000040a2accbd92bca938b02010e17a5b8929b49130d0000000000000000000000000000000000000000000000000000000000000000000000000000000000000000000000000000000000000000000000000000014000000000000000000000000000000000000000000000000000000000000000010000000000000000000000000000000000000000000000000000000000000000000000000000000000000000000000000000000000000000000000000000000000000000000000000000000000000000000000000000000000000000000000000000000000000000000000000000000000000000000000000000000000000000000000000000000000000000000000000000000000000000000000000000000000000000000000000000000000000000000000000000000000000000000002e000000000000000000000000000000000000000000000000000000000000001648d80ff0a00000000000000000000000000000000000000000000000000000000000000200000000000000000000000000000000000000000000000000000000000000112007261c2bd75a7ace1762f6d7fae8f63215581832d000000000000000000000000000000000000000000000000000000000000000000000000000000000000000000000000000000000000000000000000000000243659cfe60000000000000000000000002742bd43b254f0199bb5020cb477ff9ad3a80ad900db023566064246399b4ae851197a97729c93a6cf0000000000000000000000000000000000000000000000000000000000000000000000000000000000000000000000000000000000000000000000000000004499a88ec40000000000000000000000003b78576f7d6837500ba3de27a60c7f594934027e000000000000000000000000ff1e23c37ec543684cf866785c0626c2ac7468f000000000000000000000000000000000000000000000000000000000000000000000000000000000000000000000000000000000000000000000000000000000000000000000000000410000000000000000000000005e83c7d195318a5acf46b29e5810ddc323b2f6fd0000000000000000000000000000000000000000000000000000000000000000010000000000000000000000000000000000000000000000000000000000000000000000000000000000000000000000000000000000000000000000",
  "operation": 0,
  "gasToken": "0x0000000000000000000000000000000000000000",
  "safeTxGas": 0,
  "baseGas": 0,
  "gasPrice": "0",
  "refundReceiver": "0x0000000000000000000000000000000000000000",
  "nonce": 25,
  "executionDate": "2025-06-06T20:58:24Z",
  "submissionDate": "2025-06-06T20:55:23.649432Z",
  "modified": "2025-06-06T20:58:24Z",
  "blockNumber": 3960105,
  "transactionHash": "0x73a39ef69c31ce81fcf8ab37dfb3391f710943426fffd6381b418adcecce7689",
  "safeTxHash": "0x7718477e9e48328ade90645d1b45b6e58385006fec50938d6e2c45b55d82b0a0",
  "proposer": "0x9c0E4D74CD97E889eAe1866Da164c3EA1737B38B",
  "proposedByDelegate": null,
  "executor": "0x6c64B7DD01aB73ABEaf8D79f906C9C608f2D4033",
  "isExecuted": true,
  "isSuccessful": true,
  "ethGasPrice": "1588184",
  "maxFeePerGas": "1588887",
  "maxPriorityFeePerGas": "1587079",
  "gasUsed": 172730,
  "fee": "274327022320",
  "origin": "{}",
  "dataDecoded": {
    "method": "execute",
    "parameters": [
      {
        "name": "target",
        "type": "address",
        "value": "0x28Ade60640fdBDb2609D8d8734D1b5cBeFc0C348"
      },
      {
        "name": "value",
        "type": "uint256",
        "value": "0"
      },
      {
        "name": "payload",
        "type": "bytes",
        "value": "0x6a76120200000000000000000000000040a2accbd92bca938b02010e17a5b8929b49130d0000000000000000000000000000000000000000000000000000000000000000000000000000000000000000000000000000000000000000000000000000014000000000000000000000000000000000000000000000000000000000000000010000000000000000000000000000000000000000000000000000000000000000000000000000000000000000000000000000000000000000000000000000000000000000000000000000000000000000000000000000000000000000000000000000000000000000000000000000000000000000000000000000000000000000000000000000000000000000000000000000000000000000000000000000000000000000000000000000000000000000000000000000000000000000000002e000000000000000000000000000000000000000000000000000000000000001648d80ff0a00000000000000000000000000000000000000000000000000000000000000200000000000000000000000000000000000000000000000000000000000000112007261c2bd75a7ace1762f6d7fae8f63215581832d000000000000000000000000000000000000000000000000000000000000000000000000000000000000000000000000000000000000000000000000000000243659cfe60000000000000000000000002742bd43b254f0199bb5020cb477ff9ad3a80ad900db023566064246399b4ae851197a97729c93a6cf0000000000000000000000000000000000000000000000000000000000000000000000000000000000000000000000000000000000000000000000000000004499a88ec40000000000000000000000003b78576f7d6837500ba3de27a60c7f594934027e000000000000000000000000ff1e23c37ec543684cf866785c0626c2ac7468f000000000000000000000000000000000000000000000000000000000000000000000000000000000000000000000000000000000000000000000000000000000000000000000000000410000000000000000000000005e83c7d195318a5acf46b29e5810ddc323b2f6fd00000000000000000000000000000000000000000000000000000000000000000100000000000000000000000000000000000000000000000000000000000000"
      },
      {
        "name": "predecessor",
        "type": "bytes32",
        "value": "0x0000000000000000000000000000000000000000000000000000000000000000"
      },
      {
        "name": "salt",
        "type": "bytes32",
        "value": "0x0000000000000000000000000000000000000000000000000000000000000000"
      }
    ]
  },
  "confirmationsRequired": 2,
  "confirmations": [
    {
      "owner": "0x9c0E4D74CD97E889eAe1866Da164c3EA1737B38B",
      "submissionDate": "2025-06-06T20:55:23.702948Z",
      "transactionHash": null,
      "signature": "0xab70e7e1d6fbb787486bf2d1a4c933fb58085c6d46b26d55f6d4a0d23f3450c43db988446c1d78220914c5986e17b10049019a2a7de9dc07d3505744c17e20441b",
      "signatureType": "EOA"
    },
    {
      "owner": "0x6c64B7DD01aB73ABEaf8D79f906C9C608f2D4033",
      "submissionDate": "2025-06-06T20:58:24Z",
      "transactionHash": null,
      "signature": "0x0000000000000000000000006c64b7dd01ab73abeaf8d79f906c9c608f2d4033000000000000000000000000000000000000000000000000000000000000000001",
      "signatureType": "APPROVED_HASH"
    }
  ],
  "trusted": true,
  "signatures": "0x0000000000000000000000006c64b7dd01ab73abeaf8d79f906c9c608f2d4033000000000000000000000000000000000000000000000000000000000000000001ab70e7e1d6fbb787486bf2d1a4c933fb58085c6d46b26d55f6d4a0d23f3450c43db988446c1d78220914c5986e17b10049019a2a7de9dc07d3505744c17e20441b"
}