{
  "safe": "0x314A6B61B5CBFA79dc7b2c0416e039822E886b54",
  "to": "0x7c66A1e862E11C4887270aBd649157ACe837A2D0",
  "value": "0",
  "data": "0x134008d300000000000000000000000084e5e0d6f6c3153057bd5d661be1ff1766ceac08000000000000000000000000000000000000000000000000000000000000000000000000000000000000000000000000000000000000000000000000000000a0000000000000000000000000000000000000000000000000000000000000000000000000000000000000000000000000000000000000000000000000000000000000000000000000000000000000000000000000000000000000000000000d046a76120200000000000000000000000040a2accbd92bca938b02010e17a5b8929b49130d000000000000000000000000000000000000000000000000000000000000000000000000000000000000000000000000000000000000000000000000000001400000000000000000000000000000000000000000000000000000000000000001000000000000000000000000000000000000000000000000000000000000000000000000000000000000000000000000000000000000000000000000000000000000000000000000000000000000000000000000000000000000000000000000000000000000000000000000000000000000000000000000000000000000000000000000000000000000000000000000000000000000000000000000000000000000000000000000000000000000000000000000000000000000000000000c800000000000000000000000000000000000000000000000000000000000000b048d80ff0a00000000000000000000000000000000000000000000000000000000000000200000000000000000000000000000000000000000000000000000000000000aa2001bef05c7303d44e0e2fcd2a19d993eded4c51b5b0000000000000000000000000000000000000000000000000000000000000000000000000000000000000000000000000000000000000000000000000000004499a88ec400000000000000000000000075dfe5b44c2e530568001400d3f704bc8ae350cc0000000000000000000000003fe3f1f8d214722eb6470db063bbd503b42167ba001bef05c7303d44e0e2fcd2a19d993eded4c51b5b0000000000000000000000000000000000000000000000000000000000000000000000000000000000000000000000000000000000000000000000000000004499a88ec4000000000000000000000000fdd5749e11977d60850e06bf5b13221ad95eb6b4000000000000000000000000eee0ac047fa93d930cd9a89664647cf607672f1e001bef05c7303d44e0e2fcd2a19d993eded4c51b5b0000000000000000000000000000000000000000000000000000000000000000000000000000000000000000000000000000000000000000000000000000004499a88ec4000000000000000000000000f9fbf2e35d8803273e214c99bf15174139f4e67a000000000000000000000000dc11c13fc4f69c8a76e69e4608c06430d28c5072001bef05c7303d44e0e2fcd2a19d993eded4c51b5b0000000000000000000000000000000000000000000000000000000000000000000000000000000000000000000000000000000000000000000000000000004499a88ec4000000000000000000000000b8d8952f572e67b11e43bc21250967772fa883ff000000000000000000000000f484a0846cdb701600ee99b4870bdeff639bae89001bef05c7303d44e0e2fcd2a19d993eded4c51b5b0000000000000000000000000000000000000000000000000000000000000000000000000000000000000000000000000000000000000000000000000000004499a88ec40000000000000000000000004e0125f8a928eb1b9db4bedd3756ba3c200563c20000000000000000000000004bc554118cb063b2e0069d4a90873022092b2c0c00f2c2aca859c685895e60ca7a14274365b64c0c2a000000000000000000000000000000000000000000000000000000000000000000000000000000000000000000000000000000000000000000000000000000243659cfe6000000000000000000000000f064b844b53f37e2871b4d49e915a8dfbc77061b001bef05c7303d44e0e2fcd2a19d993eded4c51b5b0000000000000000000000000000000000000000000000000000000000000000000000000000000000000000000000000000000000000000000000000000004499a88ec40000000000000000000000006e5d5060b33ca2090a78e9cb74fe207453b30e490000000000000000000000005cfa5939b22078a743f0e5bde833d5badbf6db98001bef05c7303d44e0e2fcd2a19d993eded4c51b5b0000000000000000000000000000000000000000000000000000000000000000000000000000000000000000000000000000000000000000000000000000004499a88ec4000000000000000000000000f6a09ae03d7760aecf1626ce7df0f113bec2d9bd0000000000000000000000005cfa5939b22078a743f0e5bde833d5badbf6db98001bef05c7303d44e0e2fcd2a19d993eded4c51b5b0000000000000000000000000000000000000000000000000000000000000000000000000000000000000000000000000000000000000000000000000000004499a88ec40000000000000000000000007fa77c321bf66e42eabc9b10129304f7f90c55850000000000000000000000005cfa5939b22078a743f0e5bde833d5badbf6db98001bef05c7303d44e0e2fcd2a19d993eded4c51b5b0000000000000000000000000000000000000000000000000000000000000000000000000000000000000000000000000000000000000000000000000000004499a88ec400000000000000000000000024da526f9e465c4fb6bae41e226df8aa5b34eac70000000000000000000000005cfa5939b22078a743f0e5bde833d5badbf6db98001bef05c7303d44e0e2fcd2a19d993eded4c51b5b0000000000000000000000000000000000000000000000000000000000000000000000000000000000000000000000000000000000000000000000000000004499a88ec40000000000000000000000006dc6ce589f852f96ac86cb160ab0b15b9f56dedd0000000000000000000000005cfa5939b22078a743f0e5bde833d5badbf6db98001bef05c7303d44e0e2fcd2a19d993eded4c51b5b0000000000000000000000000000000000000000000000000000000000000000000000000000000000000000000000000000000000000000000000000000004499a88ec40000000000000000000000003c28437e610fb099cc3d6de4d9c707dfacd308ae0000000000000000000000005cfa5939b22078a743f0e5bde833d5badbf6db98001bef05c7303d44e0e2fcd2a19d993eded4c51b5b0000000000000000000000000000000000000000000000000000000000000000000000000000000000000000000000000000000000000000000000000000004499a88ec40000000000000000000000007b6257f5caf7311b36f7416133a8499c68a83c3a0000000000000000000000005cfa5939b22078a743f0e5bde833d5badbf6db98001bef05c7303d44e0e2fcd2a19d993eded4c51b5b0000000000000000000000000000000000000000000000000000000000000000000000000000000000000000000000000000000000000000000000000000004499a88ec4000000000000000000000000c86382179500e8ed3e686fc4a99ed9ec72df3f560000000000000000000000005cfa5939b22078a743f0e5bde833d5badbf6db98001bef05c7303d44e0e2fcd2a19d993eded4c51b5b0000000000000000000000000000000000000000000000000000000000000000000000000000000000000000000000000000000000000000000000000000004499a88ec40000000000000000000000003cb1fd19cfb178c1098f2fc1e11090a0642b23140000000000000000000000005cfa5939b22078a743f0e5bde833d5badbf6db98001bef05c7303d44e0e2fcd2a19d993eded4c51b5b0000000000000000000000000000000000000000000000000000000000000000000000000000000000000000000000000000000000000000000000000000004499a88ec400000000000000000000000087f6c7d24b109919eb38295e3f8298425e6331d90000000000000000000000005cfa5939b22078a743f0e5bde833d5badbf6db98001bef05c7303d44e0e2fcd2a19d993eded4c51b5b0000000000000000000000000000000000000000000000000000000000000000000000000000000000000000000000000000000000000000000000000000004499a88ec40000000000000000000000005c8b55722f421556a2aafb7a3ea63d4c3e5143120000000000000000000000005cfa5939b22078a743f0e5bde833d5badbf6db98001bef05c7303d44e0e2fcd2a19d993eded4c51b5b0000000000000000000000000000000000000000000000000000000000000000000000000000000000000000000000000000000000000000000000000000004499a88ec4000000000000000000000000d523267698c81a372191136e477fdebfa33d9fb40000000000000000000000005cfa5939b22078a743f0e5bde833d5badbf6db980000000000000000000000000000000000000000000000000000000000000000000000000000000000000000000000000000000000000000000000000000000000000000000000000000000000000000000000000000000000410000000000000000000000007c66a1e862e11c4887270abd649157ace837a2d00000000000000000000000000000000000000000000000000000000000000000010000000000000000000000000000000000000000000000000000000000000000000000000000000000000000000000000000000000000000000000",
  "operation": 0,
  "gasToken": "0x0000000000000000000000000000000000000000",
  "safeTxGas": 0,
  "baseGas": 0,
  "gasPrice": "0",
  "refundReceiver": "0x0000000000000000000000000000000000000000",
  "nonce": 20,
  "executionDate": null,
  "submissionDate": "2025-05-30T21:14:35.420920Z",
  "modified": "2025-05-30T21:14:35.579054Z",
  "blockNumber": null,
  "transactionHash": null,
  "safeTxHash": "0x6fba795bae65081541b63fcf6eeb9581408ba3ec3c1b431e684e8d0e56cd25c6",
  "proposer": "0xDA29BB71669f46F2a779b4b62f03644A84eE3479",
  "proposedByDelegate": null,
  "executor": null,
  "isExecuted": false,
  "isSuccessful": null,
  "ethGasPrice": null,
  "maxFeePerGas": null,
  "maxPriorityFeePerGas": null,
  "gasUsed": null,
  "fee": null,
  "origin": "{}",
  "dataDecoded": {
    "method": "execute",
    "parameters": [
      {
        "name": "target",
        "type": "address",
        "value": "0x84E5e0D6f6c3153057bd5d661Be1ff1766cEac08"
      },
      {
        "name": "value",
        "type": "uint256",
        "value": "0"
      },
      {
        "name": "payload",
        "type": "bytes",
        "value": "0x6a76120200000000000000000000000040a2accbd92bca938b02010e17a5b8929b49130d000000000000000000000000000000000000000000000000000000000000000000000000000000000000000000000000000000000000000000000000000001400000000000000000000000000000000000000000000000000000000000000001000000000000000000000000000000000000000000000000000000000000000000000000000000000000000000000000000000000000000000000000000000000000000000000000000000000000000000000000000000000000000000000000000000000000000000000000000000000000000000000000000000000000000000000000000000000000000000000000000000000000000000000000000000000000000000000000000000000000000000000000000000000000000000000c800000000000000000000000000000000000000000000000000000000000000b048d80ff0a00000000000000000000000000000000000000000000000000000000000000200000000000000000000000000000000000000000000000000000000000000aa2001bef05c7303d44e0e2fcd2a19d993eded4c51b5b0000000000000000000000000000000000000000000000000000000000000000000000000000000000000000000000000000000000000000000000000000004499a88ec400000000000000000000000075dfe5b44c2e530568001400d3f704bc8ae350cc0000000000000000000000003fe3f1f8d214722eb6470db063bbd503b42167ba001bef05c7303d44e0e2fcd2a19d993eded4c51b5b0000000000000000000000000000000000000000000000000000000000000000000000000000000000000000000000000000000000000000000000000000004499a88ec4000000000000000000000000fdd5749e11977d60850e06bf5b13221ad95eb6b4000000000000000000000000eee0ac047fa93d930cd9a89664647cf607672f1e001bef05c7303d44e0e2fcd2a19d993eded4c51b5b0000000000000000000000000000000000000000000000000000000000000000000000000000000000000000000000000000000000000000000000000000004499a88ec4000000000000000000000000f9fbf2e35d8803273e214c99bf15174139f4e67a000000000000000000000000dc11c13fc4f69c8a76e69e4608c06430d28c5072001bef05c7303d44e0e2fcd2a19d993eded4c51b5b0000000000000000000000000000000000000000000000000000000000000000000000000000000000000000000000000000000000000000000000000000004499a88ec4000000000000000000000000b8d8952f572e67b11e43bc21250967772fa883ff000000000000000000000000f484a0846cdb701600ee99b4870bdeff639bae89001bef05c7303d44e0e2fcd2a19d993eded4c51b5b0000000000000000000000000000000000000000000000000000000000000000000000000000000000000000000000000000000000000000000000000000004499a88ec40000000000000000000000004e0125f8a928eb1b9db4bedd3756ba3c200563c20000000000000000000000004bc554118cb063b2e0069d4a90873022092b2c0c00f2c2aca859c685895e60ca7a14274365b64c0c2a000000000000000000000000000000000000000000000000000000000000000000000000000000000000000000000000000000000000000000000000000000243659cfe6000000000000000000000000f064b844b53f37e2871b4d49e915a8dfbc77061b001bef05c7303d44e0e2fcd2a19d993eded4c51b5b0000000000000000000000000000000000000000000000000000000000000000000000000000000000000000000000000000000000000000000000000000004499a88ec40000000000000000000000006e5d5060b33ca2090a78e9cb74fe207453b30e490000000000000000000000005cfa5939b22078a743f0e5bde833d5badbf6db98001bef05c7303d44e0e2fcd2a19d993eded4c51b5b0000000000000000000000000000000000000000000000000000000000000000000000000000000000000000000000000000000000000000000000000000004499a88ec4000000000000000000000000f6a09ae03d7760aecf1626ce7df0f113bec2d9bd0000000000000000000000005cfa5939b22078a743f0e5bde833d5badbf6db98001bef05c7303d44e0e2fcd2a19d993eded4c51b5b0000000000000000000000000000000000000000000000000000000000000000000000000000000000000000000000000000000000000000000000000000004499a88ec40000000000000000000000007fa77c321bf66e42eabc9b10129304f7f90c55850000000000000000000000005cfa5939b22078a743f0e5bde833d5badbf6db98001bef05c7303d44e0e2fcd2a19d993eded4c51b5b0000000000000000000000000000000000000000000000000000000000000000000000000000000000000000000000000000000000000000000000000000004499a88ec400000000000000000000000024da526f9e465c4fb6bae41e226df8aa5b34eac70000000000000000000000005cfa5939b22078a743f0e5bde833d5badbf6db98001bef05c7303d44e0e2fcd2a19d993eded4c51b5b0000000000000000000000000000000000000000000000000000000000000000000000000000000000000000000000000000000000000000000000000000004499a88ec40000000000000000000000006dc6ce589f852f96ac86cb160ab0b15b9f56dedd0000000000000000000000005cfa5939b22078a743f0e5bde833d5badbf6db98001bef05c7303d44e0e2fcd2a19d993eded4c51b5b0000000000000000000000000000000000000000000000000000000000000000000000000000000000000000000000000000000000000000000000000000004499a88ec40000000000000000000000003c28437e610fb099cc3d6de4d9c707dfacd308ae0000000000000000000000005cfa5939b22078a743f0e5bde833d5badbf6db98001bef05c7303d44e0e2fcd2a19d993eded4c51b5b0000000000000000000000000000000000000000000000000000000000000000000000000000000000000000000000000000000000000000000000000000004499a88ec40000000000000000000000007b6257f5caf7311b36f7416133a8499c68a83c3a0000000000000000000000005cfa5939b22078a743f0e5bde833d5badbf6db98001bef05c7303d44e0e2fcd2a19d993eded4c51b5b0000000000000000000000000000000000000000000000000000000000000000000000000000000000000000000000000000000000000000000000000000004499a88ec4000000000000000000000000c86382179500e8ed3e686fc4a99ed9ec72df3f560000000000000000000000005cfa5939b22078a743f0e5bde833d5badbf6db98001bef05c7303d44e0e2fcd2a19d993eded4c51b5b0000000000000000000000000000000000000000000000000000000000000000000000000000000000000000000000000000000000000000000000000000004499a88ec40000000000000000000000003cb1fd19cfb178c1098f2fc1e11090a0642b23140000000000000000000000005cfa5939b22078a743f0e5bde833d5badbf6db98001bef05c7303d44e0e2fcd2a19d993eded4c51b5b0000000000000000000000000000000000000000000000000000000000000000000000000000000000000000000000000000000000000000000000000000004499a88ec400000000000000000000000087f6c7d24b109919eb38295e3f8298425e6331d90000000000000000000000005cfa5939b22078a743f0e5bde833d5badbf6db98001bef05c7303d44e0e2fcd2a19d993eded4c51b5b0000000000000000000000000000000000000000000000000000000000000000000000000000000000000000000000000000000000000000000000000000004499a88ec40000000000000000000000005c8b55722f421556a2aafb7a3ea63d4c3e5143120000000000000000000000005cfa5939b22078a743f0e5bde833d5badbf6db98001bef05c7303d44e0e2fcd2a19d993eded4c51b5b0000000000000000000000000000000000000000000000000000000000000000000000000000000000000000000000000000000000000000000000000000004499a88ec4000000000000000000000000d523267698c81a372191136e477fdebfa33d9fb40000000000000000000000005cfa5939b22078a743f0e5bde833d5badbf6db980000000000000000000000000000000000000000000000000000000000000000000000000000000000000000000000000000000000000000000000000000000000000000000000000000000000000000000000000000000000410000000000000000000000007c66a1e862e11c4887270abd649157ace837a2d000000000000000000000000000000000000000000000000000000000000000000100000000000000000000000000000000000000000000000000000000000000"
      },
      {
        "name": "predecessor",
        "type": "bytes32",
        "value": "0x0000000000000000000000000000000000000000000000000000000000000000"
      },
      {
        "name": "salt",
        "type": "bytes32",
        "value": "0x0000000000000000000000000000000000000000000000000000000000000000"
      }
    ]
  },
  "confirmationsRequired": 1,
  "confirmations": [
    {
      "owner": "0xDA29BB71669f46F2a779b4b62f03644A84eE3479",
      "submissionDate": "2025-05-30T21:14:35.579054Z",
      "transactionHash": null,
      "signature": "0xb6271dcad847a3921687536be08703ace37c72b2a9b87af24730f8addd389885197051c2fbc6fb0f3514d6371404c1d1f6acf6d3c6ebd3d9156afe0076cf774d1c",
      "signatureType": "EOA"
    }
  ],
  "trusted": true,
  "signatures": null
}