{
  "safe": "0x461854d84Ee845F905e0eCf6C288DDEEb4A9533F",
  "to": "0xC06Fd4F821eaC1fF1ae8067b36342899b57BAa2d",
  "value": "0",
  "data": "0x134008d3000000000000000000000000369e6f597e22eab55ffb173c6d9cd234bd699111000000000000000000000000000000000000000000000000000000000000000000000000000000000000000000000000000000000000000000000000000000a00000000000000000000000000000000000000000000000000000000000000000000000000000000000000000000000000000000000000000000000000000000000000000000000000000000000000000000000000000000000000000000003646a76120200000000000000000000000040a2accbd92bca938b02010e17a5b8929b49130d0000000000000000000000000000000000000000000000000000000000000000000000000000000000000000000000000000000000000000000000000000014000000000000000000000000000000000000000000000000000000000000000010000000000000000000000000000000000000000000000000000000000000000000000000000000000000000000000000000000000000000000000000000000000000000000000000000000000000000000000000000000000000000000000000000000000000000000000000000000000000000000000000000000000000000000000000000000000000000000000000000000000000000000000000000000000000000000000000000000000000000000000000000000000000000000002e000000000000000000000000000000000000000000000000000000000000001648d80ff0a00000000000000000000000000000000000000000000000000000000000000200000000000000000000000000000000000000000000000000000000000000112005a2a4f2f3c18f09179b6703e63d9edd165909073000000000000000000000000000000000000000000000000000000000000000000000000000000000000000000000000000000000000000000000000000000243659cfe6000000000000000000000000cb27a4819a64fba93abd4d480e4466aec0503745008b9566ada63b64d1e1dcf1418b43fd1433b724440000000000000000000000000000000000000000000000000000000000000000000000000000000000000000000000000000000000000000000000000000004499a88ec4000000000000000000000000ec53bf9167f50cdeb3ae105f56099aaab9061f830000000000000000000000002c4a81e257381f87f5a5c4bd525116466d972e500000000000000000000000000000000000000000000000000000000000000000000000000000000000000000000000000000000000000000000000000000000000000000000000000041000000000000000000000000c06fd4f821eac1ff1ae8067b36342899b57baa2d0000000000000000000000000000000000000000000000000000000000000000010000000000000000000000000000000000000000000000000000000000000000000000000000000000000000000000000000000000000000000000",
  "operation": 0,
  "gasToken": "0x0000000000000000000000000000000000000000",
  "safeTxGas": 0,
  "baseGas": 0,
  "gasPrice": "0",
  "refundReceiver": "0x0000000000000000000000000000000000000000",
  "nonce": 13,
  "executionDate": "2025-07-21T21:16:23Z",
  "submissionDate": "2025-07-21T21:08:01.681365Z",
  "modified": "2025-07-21T21:16:32.588318Z",
  "blockNumber": 22970190,
  "transactionHash": "0xec20b63c1c01cccf3d778b362574a7321bc278144d9a6a448f6943187ee9ee6e",
  "safeTxHash": "0xb7ecc1571c23a971617a20a95a8574166ec8adca1de7a0f298b807d5b01f4452",
  "proposer": "0x9229C290F60F303884073F28EB8E81F9B82506d5",
  "proposedByDelegate": null,
  "executor": "0xc5280E368648b0e192b355c7d8330593bA7af700",
  "isExecuted": true,
  "isSuccessful": true,
  "ethGasPrice": "1200880448",
  "maxFeePerGas": "1207678390",
  "maxPriorityFeePerGas": "148221488",
  "gasUsed": 158449,
  "fee": "190278306105152",
  "origin": "{}",
  "dataDecoded": {
    "method": "execute",
    "parameters": [
      {
        "name": "target",
        "type": "address",
        "value": "0x369e6F597e22EaB55fFb173C6d9cD234BD699111"
      },
      {
        "name": "value",
        "type": "uint256",
        "value": "0"
      },
      {
        "name": "payload",
        "type": "bytes",
        "value": "0x6a76120200000000000000000000000040a2accbd92bca938b02010e17a5b8929b49130d0000000000000000000000000000000000000000000000000000000000000000000000000000000000000000000000000000000000000000000000000000014000000000000000000000000000000000000000000000000000000000000000010000000000000000000000000000000000000000000000000000000000000000000000000000000000000000000000000000000000000000000000000000000000000000000000000000000000000000000000000000000000000000000000000000000000000000000000000000000000000000000000000000000000000000000000000000000000000000000000000000000000000000000000000000000000000000000000000000000000000000000000000000000000000000000002e000000000000000000000000000000000000000000000000000000000000001648d80ff0a00000000000000000000000000000000000000000000000000000000000000200000000000000000000000000000000000000000000000000000000000000112005a2a4f2f3c18f09179b6703e63d9edd165909073000000000000000000000000000000000000000000000000000000000000000000000000000000000000000000000000000000000000000000000000000000243659cfe6000000000000000000000000cb27a4819a64fba93abd4d480e4466aec0503745008b9566ada63b64d1e1dcf1418b43fd1433b724440000000000000000000000000000000000000000000000000000000000000000000000000000000000000000000000000000000000000000000000000000004499a88ec4000000000000000000000000ec53bf9167f50cdeb3ae105f56099aaab9061f830000000000000000000000002c4a81e257381f87f5a5c4bd525116466d972e500000000000000000000000000000000000000000000000000000000000000000000000000000000000000000000000000000000000000000000000000000000000000000000000000041000000000000000000000000c06fd4f821eac1ff1ae8067b36342899b57baa2d00000000000000000000000000000000000000000000000000000000000000000100000000000000000000000000000000000000000000000000000000000000"
      },
      {
        "name": "predecessor",
        "type": "bytes32",
        "value": "0x0000000000000000000000000000000000000000000000000000000000000000"
      },
      {
        "name": "salt",
        "type": "bytes32",
        "value": "0x0000000000000000000000000000000000000000000000000000000000000000"
      }
    ]
  },
  "confirmationsRequired": 3,
  "confirmations": [
    {
      "owner": "0x9229C290F60F303884073F28EB8E81F9B82506d5",
      "submissionDate": "2025-07-21T21:08:01.918557Z",
      "transactionHash": null,
      "signature": "0xe1799f9e82ae9da1e4fb990902ca2d50b940727648aa3a46636df7dcfc82881020b63a7bab28fe6ab8f1f8e810e7211e3550941b47f551d71baae79a3bc634751c",
      "signatureType": "EOA"
    },
    {
      "owner": "0x3e89Ef7435d4A3e0b52b70B1176f849b351953eE",
      "submissionDate": "2025-07-21T21:14:11.574024Z",
      "transactionHash": null,
      "signature": "0x10b7221b03e1eb3837ff2859f3dcc109cdc3fda109a0d05e7337ef90a95cb92a015dc40aac2a059781943ac9e276959dea276d256fa3b32277a5e581e05fe82c1c",
      "signatureType": "EOA"
    },
    {
      "owner": "0xc5280E368648b0e192b355c7d8330593bA7af700",
      "submissionDate": "2025-07-21T21:15:16.478119Z",
      "transactionHash": null,
      "signature": "0x940e0de60abb63f1fa80eea359e198a33ad80a7ad4653e7a7af322722709f29276643b8f5f5a9eae8444055630c369668e59a3797a0c17d36dd5c888ce90ce981c",
      "signatureType": "EOA"
    }
  ],
  "trusted": true,
  "signatures": "0x10b7221b03e1eb3837ff2859f3dcc109cdc3fda109a0d05e7337ef90a95cb92a015dc40aac2a059781943ac9e276959dea276d256fa3b32277a5e581e05fe82c1ce1799f9e82ae9da1e4fb990902ca2d50b940727648aa3a46636df7dcfc82881020b63a7bab28fe6ab8f1f8e810e7211e3550941b47f551d71baae79a3bc634751c940e0de60abb63f1fa80eea359e198a33ad80a7ad4653e7a7af322722709f29276643b8f5f5a9eae8444055630c369668e59a3797a0c17d36dd5c888ce90ce981c"
}