{
  "safe": "0xd140eE77d9e62901d8cEFf199d3ef4Dd1F4Eaff4",
  "to": "0x5e83c7d195318A5acf46B29E5810DdC323b2F6fD",
  "value": "0",
  "data": "0x134008d300000000000000000000000028ade60640fdbdb2609d8d8734d1b5cbefc0c348000000000000000000000000000000000000000000000000000000000000000000000000000000000000000000000000000000000000000000000000000000a0000000000000000000000000000000000000000000000000000000000000000000000000000000000000000000000000000000000000000000000000000000000000000000000000000000000000000000000000000000000000000000000d046a76120200000000000000000000000040a2accbd92bca938b02010e17a5b8929b49130d000000000000000000000000000000000000000000000000000000000000000000000000000000000000000000000000000000000000000000000000000001400000000000000000000000000000000000000000000000000000000000000001000000000000000000000000000000000000000000000000000000000000000000000000000000000000000000000000000000000000000000000000000000000000000000000000000000000000000000000000000000000000000000000000000000000000000000000000000000000000000000000000000000000000000000000000000000000000000000000000000000000000000000000000000000000000000000000000000000000000000000000000000000000000000000000c800000000000000000000000000000000000000000000000000000000000000b048d80ff0a00000000000000000000000000000000000000000000000000000000000000200000000000000000000000000000000000000000000000000000000000000aa200db023566064246399b4ae851197a97729c93a6cf0000000000000000000000000000000000000000000000000000000000000000000000000000000000000000000000000000000000000000000000000000004499a88ec4000000000000000000000000a44151489861fe9e3055d95adc98fbd462b948e7000000000000000000000000d5639169277e342582ccd3a67c9fcaffef3867ec00db023566064246399b4ae851197a97729c93a6cf0000000000000000000000000000000000000000000000000000000000000000000000000000000000000000000000000000000000000000000000000000004499a88ec400000000000000000000000078469728304326cbc65f8f95fa756b0b731644620000000000000000000000005912005643201649542f5ae6cce96c12b4da04ea00db023566064246399b4ae851197a97729c93a6cf0000000000000000000000000000000000000000000000000000000000000000000000000000000000000000000000000000000000000000000000000000004499a88ec4000000000000000000000000dfb5f6ce42aaa7830e94ecfccad411bef4d4d5b6000000000000000000000000e856605017d1aa5406c0c0d9bbbd4a8f35aad68500db023566064246399b4ae851197a97729c93a6cf0000000000000000000000000000000000000000000000000000000000000000000000000000000000000000000000000000000000000000000000000000004499a88ec400000000000000000000000030770d7e3e71112d7a6b7259542d1f680a70e315000000000000000000000000cc817ffa0c2aded97ddedf309b52aea252f772c100db023566064246399b4ae851197a97729c93a6cf0000000000000000000000000000000000000000000000000000000000000000000000000000000000000000000000000000000000000000000000000000004499a88ec400000000000000000000000043252609bff8a13dfe5e057097f2f45a24387a8400000000000000000000000063772b1e4965a40dd658ad824f841378cf51845900d3c6c6ba4e40db9288c6a2077e5635344f8afa4f000000000000000000000000000000000000000000000000000000000000000000000000000000000000000000000000000000000000000000000000000000243659cfe6000000000000000000000000bd161189bcdb7d948761d74a84e34ab193b8342700db023566064246399b4ae851197a97729c93a6cf0000000000000000000000000000000000000000000000000000000000000000000000000000000000000000000000000000000000000000000000000000004499a88ec40000000000000000000000007d704507b76571a51d9cae8addabbfd0ba0e63d30000000000000000000000008037874c44be3fe27fa45c415163d38ceab3bc0100db023566064246399b4ae851197a97729c93a6cf0000000000000000000000000000000000000000000000000000000000000000000000000000000000000000000000000000000000000000000000000000004499a88ec40000000000000000000000003a8fbdf9e77dfc25d09741f51d3e181b25d0c4e00000000000000000000000008037874c44be3fe27fa45c415163d38ceab3bc0100db023566064246399b4ae851197a97729c93a6cf0000000000000000000000000000000000000000000000000000000000000000000000000000000000000000000000000000000000000000000000000000004499a88ec400000000000000000000000080528d6e9a2babfc766965e0e26d5ab08d9cfaf90000000000000000000000008037874c44be3fe27fa45c415163d38ceab3bc0100db023566064246399b4ae851197a97729c93a6cf0000000000000000000000000000000000000000000000000000000000000000000000000000000000000000000000000000000000000000000000000000004499a88ec4000000000000000000000000ad76d205564f955a9c18103c4422d1cd940168990000000000000000000000008037874c44be3fe27fa45c415163d38ceab3bc0100db023566064246399b4ae851197a97729c93a6cf0000000000000000000000000000000000000000000000000000000000000000000000000000000000000000000000000000000000000000000000000000004499a88ec400000000000000000000000005037a81bd7b4c9e0f7b430f1f2a22c31a2fd9430000000000000000000000008037874c44be3fe27fa45c415163d38ceab3bc0100db023566064246399b4ae851197a97729c93a6cf0000000000000000000000000000000000000000000000000000000000000000000000000000000000000000000000000000000000000000000000000000004499a88ec40000000000000000000000009281ff96637710cd9a5cacce9c6fad8c9f54631c0000000000000000000000008037874c44be3fe27fa45c415163d38ceab3bc0100db023566064246399b4ae851197a97729c93a6cf0000000000000000000000000000000000000000000000000000000000000000000000000000000000000000000000000000000000000000000000000000004499a88ec400000000000000000000000031b6f59e1627cefc9fa174ad03859fc337666af70000000000000000000000008037874c44be3fe27fa45c415163d38ceab3bc0100db023566064246399b4ae851197a97729c93a6cf0000000000000000000000000000000000000000000000000000000000000000000000000000000000000000000000000000000000000000000000000000004499a88ec400000000000000000000000046281e3b7fdcacdba44cadf069a94a588fd4c6ef0000000000000000000000008037874c44be3fe27fa45c415163d38ceab3bc0100db023566064246399b4ae851197a97729c93a6cf0000000000000000000000000000000000000000000000000000000000000000000000000000000000000000000000000000000000000000000000000000004499a88ec400000000000000000000000070eb4d3c164a6b4a5f908d4fbb5a9caffb66bab60000000000000000000000008037874c44be3fe27fa45c415163d38ceab3bc0100db023566064246399b4ae851197a97729c93a6cf0000000000000000000000000000000000000000000000000000000000000000000000000000000000000000000000000000000000000000000000000000004499a88ec4000000000000000000000000accc5a86732be85b5012e8614af237801636f8e50000000000000000000000008037874c44be3fe27fa45c415163d38ceab3bc0100db023566064246399b4ae851197a97729c93a6cf0000000000000000000000000000000000000000000000000000000000000000000000000000000000000000000000000000000000000000000000000000004499a88ec40000000000000000000000007673a47463f80c6a3553db9e54c8cdcd5313d0ac0000000000000000000000008037874c44be3fe27fa45c415163d38ceab3bc0100db023566064246399b4ae851197a97729c93a6cf0000000000000000000000000000000000000000000000000000000000000000000000000000000000000000000000000000000000000000000000000000004499a88ec400000000000000000000000078dbcbef8ff94ec7f631c23d38d197744a3238680000000000000000000000008037874c44be3fe27fa45c415163d38ceab3bc010000000000000000000000000000000000000000000000000000000000000000000000000000000000000000000000000000000000000000000000000000000000000000000000000000000000000000000000000000000000410000000000000000000000005e83c7d195318a5acf46b29e5810ddc323b2f6fd0000000000000000000000000000000000000000000000000000000000000000010000000000000000000000000000000000000000000000000000000000000000000000000000000000000000000000000000000000000000000000",
  "operation": 0,
  "gasToken": "0x0000000000000000000000000000000000000000",
  "safeTxGas": 0,
  "baseGas": 0,
  "gasPrice": "0",
  "refundReceiver": "0x0000000000000000000000000000000000000000",
  "nonce": 24,
  "executionDate": "2025-06-02T21:09:48Z",
  "submissionDate": "2025-06-02T21:02:59.281745Z",
  "modified": "2025-06-02T21:09:48Z",
  "blockNumber": 3938225,
  "transactionHash": "0x79fd01ff3e382321aaea752906ab83b6428627b394a33ce9112978512fba9f0d",
  "safeTxHash": "0x236425d755cb3df2c1fdea80cf5c5cfd01f889df12523ca4b240ec4531ff6efa",
  "proposer": "0xE5AA0d09e501a53E6B1753912d033037486C8C5C",
  "proposedByDelegate": null,
  "executor": "0x6c64B7DD01aB73ABEaf8D79f906C9C608f2D4033",
  "isExecuted": true,
  "isSuccessful": true,
  "ethGasPrice": "92591357",
  "maxFeePerGas": "96790456",
  "maxPriorityFeePerGas": "88920230",
  "gasUsed": 479288,
  "fee": "44377926313816",
  "origin": "{}",
  "dataDecoded": {
    "method": "execute",
    "parameters": [
      {
        "name": "target",
        "type": "address",
        "value": "0x28Ade60640fdBDb2609D8d8734D1b5cBeFc0C348"
      },
      {
        "name": "value",
        "type": "uint256",
        "value": "0"
      },
      {
        "name": "payload",
        "type": "bytes",
        "value": "0x6a76120200000000000000000000000040a2accbd92bca938b02010e17a5b8929b49130d000000000000000000000000000000000000000000000000000000000000000000000000000000000000000000000000000000000000000000000000000001400000000000000000000000000000000000000000000000000000000000000001000000000000000000000000000000000000000000000000000000000000000000000000000000000000000000000000000000000000000000000000000000000000000000000000000000000000000000000000000000000000000000000000000000000000000000000000000000000000000000000000000000000000000000000000000000000000000000000000000000000000000000000000000000000000000000000000000000000000000000000000000000000000000000000c800000000000000000000000000000000000000000000000000000000000000b048d80ff0a00000000000000000000000000000000000000000000000000000000000000200000000000000000000000000000000000000000000000000000000000000aa200db023566064246399b4ae851197a97729c93a6cf0000000000000000000000000000000000000000000000000000000000000000000000000000000000000000000000000000000000000000000000000000004499a88ec4000000000000000000000000a44151489861fe9e3055d95adc98fbd462b948e7000000000000000000000000d5639169277e342582ccd3a67c9fcaffef3867ec00db023566064246399b4ae851197a97729c93a6cf0000000000000000000000000000000000000000000000000000000000000000000000000000000000000000000000000000000000000000000000000000004499a88ec400000000000000000000000078469728304326cbc65f8f95fa756b0b731644620000000000000000000000005912005643201649542f5ae6cce96c12b4da04ea00db023566064246399b4ae851197a97729c93a6cf0000000000000000000000000000000000000000000000000000000000000000000000000000000000000000000000000000000000000000000000000000004499a88ec4000000000000000000000000dfb5f6ce42aaa7830e94ecfccad411bef4d4d5b6000000000000000000000000e856605017d1aa5406c0c0d9bbbd4a8f35aad68500db023566064246399b4ae851197a97729c93a6cf0000000000000000000000000000000000000000000000000000000000000000000000000000000000000000000000000000000000000000000000000000004499a88ec400000000000000000000000030770d7e3e71112d7a6b7259542d1f680a70e315000000000000000000000000cc817ffa0c2aded97ddedf309b52aea252f772c100db023566064246399b4ae851197a97729c93a6cf0000000000000000000000000000000000000000000000000000000000000000000000000000000000000000000000000000000000000000000000000000004499a88ec400000000000000000000000043252609bff8a13dfe5e057097f2f45a24387a8400000000000000000000000063772b1e4965a40dd658ad824f841378cf51845900d3c6c6ba4e40db9288c6a2077e5635344f8afa4f000000000000000000000000000000000000000000000000000000000000000000000000000000000000000000000000000000000000000000000000000000243659cfe6000000000000000000000000bd161189bcdb7d948761d74a84e34ab193b8342700db023566064246399b4ae851197a97729c93a6cf0000000000000000000000000000000000000000000000000000000000000000000000000000000000000000000000000000000000000000000000000000004499a88ec40000000000000000000000007d704507b76571a51d9cae8addabbfd0ba0e63d30000000000000000000000008037874c44be3fe27fa45c415163d38ceab3bc0100db023566064246399b4ae851197a97729c93a6cf0000000000000000000000000000000000000000000000000000000000000000000000000000000000000000000000000000000000000000000000000000004499a88ec40000000000000000000000003a8fbdf9e77dfc25d09741f51d3e181b25d0c4e00000000000000000000000008037874c44be3fe27fa45c415163d38ceab3bc0100db023566064246399b4ae851197a97729c93a6cf0000000000000000000000000000000000000000000000000000000000000000000000000000000000000000000000000000000000000000000000000000004499a88ec400000000000000000000000080528d6e9a2babfc766965e0e26d5ab08d9cfaf90000000000000000000000008037874c44be3fe27fa45c415163d38ceab3bc0100db023566064246399b4ae851197a97729c93a6cf0000000000000000000000000000000000000000000000000000000000000000000000000000000000000000000000000000000000000000000000000000004499a88ec4000000000000000000000000ad76d205564f955a9c18103c4422d1cd940168990000000000000000000000008037874c44be3fe27fa45c415163d38ceab3bc0100db023566064246399b4ae851197a97729c93a6cf0000000000000000000000000000000000000000000000000000000000000000000000000000000000000000000000000000000000000000000000000000004499a88ec400000000000000000000000005037a81bd7b4c9e0f7b430f1f2a22c31a2fd9430000000000000000000000008037874c44be3fe27fa45c415163d38ceab3bc0100db023566064246399b4ae851197a97729c93a6cf0000000000000000000000000000000000000000000000000000000000000000000000000000000000000000000000000000000000000000000000000000004499a88ec40000000000000000000000009281ff96637710cd9a5cacce9c6fad8c9f54631c0000000000000000000000008037874c44be3fe27fa45c415163d38ceab3bc0100db023566064246399b4ae851197a97729c93a6cf0000000000000000000000000000000000000000000000000000000000000000000000000000000000000000000000000000000000000000000000000000004499a88ec400000000000000000000000031b6f59e1627cefc9fa174ad03859fc337666af70000000000000000000000008037874c44be3fe27fa45c415163d38ceab3bc0100db023566064246399b4ae851197a97729c93a6cf0000000000000000000000000000000000000000000000000000000000000000000000000000000000000000000000000000000000000000000000000000004499a88ec400000000000000000000000046281e3b7fdcacdba44cadf069a94a588fd4c6ef0000000000000000000000008037874c44be3fe27fa45c415163d38ceab3bc0100db023566064246399b4ae851197a97729c93a6cf0000000000000000000000000000000000000000000000000000000000000000000000000000000000000000000000000000000000000000000000000000004499a88ec400000000000000000000000070eb4d3c164a6b4a5f908d4fbb5a9caffb66bab60000000000000000000000008037874c44be3fe27fa45c415163d38ceab3bc0100db023566064246399b4ae851197a97729c93a6cf0000000000000000000000000000000000000000000000000000000000000000000000000000000000000000000000000000000000000000000000000000004499a88ec4000000000000000000000000accc5a86732be85b5012e8614af237801636f8e50000000000000000000000008037874c44be3fe27fa45c415163d38ceab3bc0100db023566064246399b4ae851197a97729c93a6cf0000000000000000000000000000000000000000000000000000000000000000000000000000000000000000000000000000000000000000000000000000004499a88ec40000000000000000000000007673a47463f80c6a3553db9e54c8cdcd5313d0ac0000000000000000000000008037874c44be3fe27fa45c415163d38ceab3bc0100db023566064246399b4ae851197a97729c93a6cf0000000000000000000000000000000000000000000000000000000000000000000000000000000000000000000000000000000000000000000000000000004499a88ec400000000000000000000000078dbcbef8ff94ec7f631c23d38d197744a3238680000000000000000000000008037874c44be3fe27fa45c415163d38ceab3bc010000000000000000000000000000000000000000000000000000000000000000000000000000000000000000000000000000000000000000000000000000000000000000000000000000000000000000000000000000000000410000000000000000000000005e83c7d195318a5acf46b29e5810ddc323b2f6fd00000000000000000000000000000000000000000000000000000000000000000100000000000000000000000000000000000000000000000000000000000000"
      },
      {
        "name": "predecessor",
        "type": "bytes32",
        "value": "0x0000000000000000000000000000000000000000000000000000000000000000"
      },
      {
        "name": "salt",
        "type": "bytes32",
        "value": "0x0000000000000000000000000000000000000000000000000000000000000000"
      }
    ]
  },
  "confirmationsRequired": 2,
  "confirmations": [
    {
      "owner": "0xE5AA0d09e501a53E6B1753912d033037486C8C5C",
      "submissionDate": "2025-06-02T21:02:59.338062Z",
      "transactionHash": null,
      "signature": "0x9765d8508968b4bd8485ecf69a6081912450a2755df482ce274d9256837b557679621ece5a9482cae5a1376a7679c1e75ae075a250364f6ded9821426012a5971b",
      "signatureType": "EOA"
    },
    {
      "owner": "0x6c64B7DD01aB73ABEaf8D79f906C9C608f2D4033",
      "submissionDate": "2025-06-02T21:09:48Z",
      "transactionHash": null,
      "signature": "0x0000000000000000000000006c64b7dd01ab73abeaf8d79f906c9c608f2d4033000000000000000000000000000000000000000000000000000000000000000001",
      "signatureType": "APPROVED_HASH"
    }
  ],
  "trusted": true,
  "signatures": "0x0000000000000000000000006c64b7dd01ab73abeaf8d79f906c9c608f2d40330000000000000000000000000000000000000000000000000000000000000000019765d8508968b4bd8485ecf69a6081912450a2755df482ce274d9256837b557679621ece5a9482cae5a1376a7679c1e75ae075a250364f6ded9821426012a5971b"
}